:020000040800F2
:100000000030002085270008592500085B250008DE
:1000100000000000000000000000000000000000E0
:100020000000000000000000000000005D25000846
:1000300000000000000000005F25000861250008A6
:10004000D527000800000000D5270008D5270008A4
:10005000D5270008D5270008D527000869250008FE
:100060000000000075250008D5270008D5270008E6
:10007000D5270008D5270008D52700080000000074
:10008000D52700080000000000000000D527000868
:1000900000000000D5270008D5270008D527000854
:1000A00000000000D527000800000000D527000848
:1000B000D52700080000000000000000000000003C
:1000C0000023C25C0133002AFBD1581E7047000098
:1000D00003B47146490840004900095E49008E4456
:1000E00003BC7047002243088B4274D303098B4240
:1000F0005FD3030A8B4244D3030B8B4228D3030CF8
:100100008B420DD3FF22090212BA030C8B4202D399
:100110001212090265D0030B8B4219D300E0090AC1
:10012000C30B8B4201D3CB03C01A5241830B8B42CA
:1001300001D38B03C01A5241430B8B4201D34B03B3
:10014000C01A5241030B8B4201D30B03C01A524118
:10015000C30A8B4201D3CB02C01A5241830A8B429D
:1001600001D38B02C01A5241430A8B4201D34B0286
:10017000C01A5241030A8B4201D30B02C01A5241EA
:10018000CDD2C3098B4201D3CB01C01A524183099E
:100190008B4201D38B01C01A524143098B4201D3D8
:1001A0004B01C01A524103098B4201D30B01C01A03
:1001B0005241C3088B4201D3CB00C01A524183087D
:1001C0008B4201D38B00C01A524143088B4201D3AA
:1001D0004B00C01A5241411A00D20146524110460A
:1001E0007047FFE701B5002000F0F0F802BDC046FF
:1001F0000029F7D076E7704703460B437FD40022EF
:1002000043088B4274D303098B425FD3030A8B42AA
:1002100044D3030B8B4228D3030C8B420DD3FF2214
:10022000090212BA030C8B4202D31212090265D0E2
:10023000030B8B4219D300E0090AC30B8B4201D395
:10024000CB03C01A5241830B8B4201D38B03C01ADC
:100250005241430B8B4201D34B03C01A5241030B53
:100260008B4201D30B03C01A5241C30A8B4201D304
:10027000CB02C01A5241830A8B4201D38B02C01AAF
:100280005241430A8B4201D34B02C01A5241030A26
:100290008B4201D30B02C01A5241CDD2C3098B420B
:1002A00001D3CB01C01A524183098B4201D38B0188
:1002B000C01A524143098B4201D34B01C01A52412B
:1002C00003098B4201D30B01C01A5241C3088B4270
:1002D00001D3CB00C01A524183088B4201D38B005B
:1002E000C01A524143088B4201D34B00C01A5241FD
:1002F000411A00D201465241104670475DE0CA0FD4
:1003000000D04942031000D34042534000229C4693
:1003100003098B422DD3030A8B4212D3FC2289019D
:1003200012BA030A8B420CD3890192118B4208D373
:10033000890192118B4204D389013AD0921100E0D5
:100340008909C3098B4201D3CB01C01A52418309E9
:100350008B4201D38B01C01A524143098B4201D316
:100360004B01C01A524103098B4201D30B01C01A41
:100370005241C3088B4201D3CB00C01A52418308BB
:100380008B4201D38B00C01A5241D9D243088B4211
:1003900001D34B00C01A5241411A00D201466346B4
:1003A00052415B10104601D34042002B00D5494218
:1003B000704763465B1000D3404201B5002000F057
:1003C00005F802BD0029F8D016E770477047C0460F
:1003D0008446100062468C461900634600E0C04621
:1003E0001FB506F09BF9002801D40021C8421FBDAB
:1003F00010B506F0DDF84042013010BD10B506F032
:100400008DF9002801DB002010BD012010BDC04681
:1004100010B506F083F9002801DD002010BD012091
:1004200010BDC04610B506F009F9002801DC002017
:1004300010BD012010BDC04610B506F0FFF8002821
:1004400001DA002010BD012010BDC0461C2101238F
:100450001B04984201D3000C10391B0A984201D3A7
:10046000000A08391B09984201D30009043902A285
:10047000105C40187047C0460403020201010101EC
:10048000000000000000000010B5064C2378002B8F
:1004900007D1054B002B02D0044800E000BF012328
:1004A000237010BD680000200000000010770008D5
:1004B000044B10B5002B03D00349044800E000BFF3
:1004C00010BDC046000000006C000020107700083E
:1004D00010B588B003AC14220021200002F0E0FA2D
:1004E000104B596B042211435963596B0A40009217
:1004F000009A596B202211435963596B0A400192AB
:10050000019A596B0122114359635B6B13400293AB
:10051000029B03920592A0202100C00501F084F8FF
:1005200008B010BD0010024000B583B0094A916BBD
:10053000012319439163926B13400193019B0022A5
:100540000021092000F0BCFE092000F0BDFE03B030
:1005500000BDC0460010024010B5034B584303498C
:10056000FFF74AFE80B210BD88130000FF0F0000A5
:10057000F0B585B0009001910292039302F08EF9DC
:1005800007F098F80022204B05F0DAF80022F82353
:100590009B0506F031F904000D0002F07FF907F029
:1005A00089F80022184B05F0CBF80022F8239B05B0
:1005B00006F022F906000F002000290003F0B4FB2A
:1005C0000022C0231B0606F017F903F0E3FB04002A
:1005D0000D000E4A0E4B3000390006F00DF903F005
:1005E00001FC02000B002000290006F005F9029A28
:1005F000039B06F001F9009A019B05F0A1F803F0B6
:1006000047FB05B0F0BDC0460000F03F182D445434
:10061000FB211940002804DB044B984203DC80B224
:1006200070470020FCE70148FAE7C0468813000045
:10063000F0B5CE46474680B593B00268274B9A4244
:1006400004D013B0C0BCB946B046F0BD244B1888E6
:10065000FFF782FF0400234A234B00200021FFF70D
:1006600087FF2018FFF7D6FF0500A0200121C00555
:1006700001F0B8F880461D4F3C881D4B6200914642
:100680001E00D05A281A1B4B1A6880181860962131
:10069000FFF728FD184B18804B469D530134A2B23A
:1006A0003A80962A16D0154A02AC434601930104BB
:1006B000090C00912B004021200002F08DF8200051
:1006C000FFF7FEFC012382B20D485B42210001F0DE
:1006D00024FEB6E700223A80E5E7C0460024014048
:1006E000BC010020CDCCCCCCCCAC5040880000204C
:1006F0008C00002084000020B8010020287700082A
:100700003C02002010B582B072B6074B6A4603CB9C
:1007100003C26846FFF7D4FC012382B203485B4260
:10072000694601F0FAFDF0E7347700083C0200204A
:1007300000B585B00C22002101A802F0B1F91848DB
:10074000184B03608023DB05436000238360C36094
:100750008022120602610422426103764376033A44
:100760008276C261436283622C21425403634363F5
:100770003B328354C36400F0DDF800280BD101A99B
:10078000094B019301234B60054800F047FA00280C
:1007900003D105B000BDFFF7B5FFFFF7B3FFC046BB
:1007A0002C030020002401400200000410B50C4876
:1007B0000C4B0360E1235B02436000238360C36052
:1007C00003610C2242618361C361036243628362FD
:1007D00001F08AFE002800D110BDFFF793FFC0464C
:1007E0003C0200200044004010B58CB005AC1C2237
:1007F0000021200002F054F914220021684602F082
:100800004FF912490B6807229343063A13430B60D2
:10081000059280235B020693200001F097F80028E0
:100820000FD1684607230093063B019300230293F0
:1008300003930493012101F015FA002803D10CB0B1
:1008400010BDFFF75FFFFFF75DFFC04600200240CD
:1008500010B500F051F8FFF7C7FFFFF739FEFFF7BB
:1008600063FEFFF765FFFFF7A1FF002002F04AF9E2
:1008700001F0E6FF084C200000F018FC002001F019
:1008800081FE0121002001F0BFFE0449402220002A
:1008900000F068FBFEE7C0462C030020BC010020EE
:1008A00010B50400114B1978002901D1012010BDA9
:1008B000FA208000FFF716FC01000D4B1868FFF7C7
:1008C00011FC00F00DFD00280DD1032C01D90120F1
:1008D000EDE7013000222100404200F0F1FC054B21
:1008E0001C600020E3E70120E1E7C0460000002093
:1008F000080000200400002010B50320FFF7D0FFFF
:10090000041E02D00124200010BD00F079FFFAE798
:10091000034B1B78034A11685B1813607047C0468D
:100920000000002090030020014B18687047C0466B
:100930009003002030B583B0040000230193002809
:1009400000D105E1836D002B12D023689A68D20094
:100950001BD499687F4A1140802252050A439A604D
:100960007D4B18687D49FFF7BDFB4000019009E011
:1009700000F05EFF0023E3655422A354E5E7019BEA
:10098000013B0193019B002BF9D123689A68D200A7
:1009900000D59DE0A26D10210A43A265E26D0F39DA
:1009A0000A43E26501209A6804210D0015401142B6
:1009B00000D00125A26DD20600D5C2E0002D00D0E6
:1009C000BFE0A26D66490A400631FF310A43A265C5
:1009D0009A68D20752D4A268217E89030A43617EB5
:1009E000C9030A43A57E69030A43216B002901D08C
:1009F000802149010A43E1680A432169002969DB32
:100A0000802189030A432C21615C49000A4320218B
:100A1000615C012961D0616A002905D0E0256D0083
:100A20002940A56A29430A43D9684E4D29400A4303
:100A3000DA6063689B0F9B07E26C1A433C21615CA0
:100A4000012959D021680B69474D2B4013430B6195
:100A50006368C0221206934210D08022D2059342CE
:100A60000CD080221206934208D040490A68404DBB
:100A70002A40F025AD032B4013430B602168636BC4
:100A80004A690725AA4313434B612168A26B4B694E
:100A90006935AB43120113434B612369002B35D1F8
:100AA0002268916A103B0B43936223685A690723BB
:100AB0001340626B9A423BD0A36D12229343023AD9
:100AC0001343A365E36D0F3A1343E36501203DE053
:100AD000002068E74900490894E7002D03D18021F0
:100AE00049020A4397E7A16D20252943A165E16DDD
:100AF0001F3D2943E1658EE7216C0B43616C0B437D
:100B0000A16C0B43134301221A439BE780229203FB
:100B10009342CAD121688B6AE369013B9B001C2286
:100B20001A4010235B429340226E13438B62BCE752
:100B30000023E365A36D03229343023A1343A365A5
:100B400004E0A36D10221343A365012003B030BD60
:100B50000120FBE7E8FFFF6F08000020400D0300C5
:100B6000FDFEFFFF0102DEFF02FCFF1F0827014020
:100B7000FFFFC3FF704710B5806AFFF7FBFF10BD92
:100B8000704710B5806A836D402213438365C36D3F
:100B90003C3A1343C365FFF7F3FF10BD10B50300E4
:100BA000806A826D502111422AD1826D80239B0080
:100BB000134383650368D968C0221201114213D11F
:100BC000827E002A10D11A6812070DD59A68520742
:100BD0000DD45A680C218A435A60836D0E4A134023
:100BE0000432FF3213438365FFF722FD10BD836D8E
:100BF000202213438365C36D1F3A1343C365F3E794
:100C0000826DD20604D4026D526B18009047EDE756
:100C1000FFF7B6FFEAE7C046FEFEFFFFF0B583B080
:100C200004000023019305695433C35C012B00D1F8
:100C300021E154230122C254006883680332160064
:100C40001E401A4209D0A36D1C321343A365012034
:100C500054230022E25403B0F0BD4B68022B00D1B4
:100C6000D5E080221206954225D0844A954222D0B2
:100C7000226E1F271F400F25BD40AA430B685D024F
:100C80002FD19B0E1F261E40BE40324322664D6868
:100C9000AB080133E269934213D80E68826A1F23BE
:100CA0001D40103B1F00AF40BA43B60E3340AB406F
:100CB0001343836205E00B68826A5B025B0A13439D
:100CC000836220680B688D6842691B029A432B403F
:100CD0006B4D2B40134343610B68002B5FDB0020FF
:100CE000B6E7DD07D0D49D072FD45D072FD41D07AD
:100CF0002FD4DD062FD49D062FD45D062FD41D06DC
:100D00002FD4DD052FD49D052FD45D052FD41D05CF
:100D10002FD4DD042FD49D042FD45D042FD41D04C3
:100D20002FD4DD032FD49D032FD45D032FD41D03B7
:100D30002FD4DD022FD49D022FD48025ED031E0079
:100D40002E402B42A0D016269EE701269CE70226C5
:100D50009AE7032698E7042696E7052694E70626F1
:100D600092E7072690E708268EE709268CE70A26F1
:100D70008AE70B2688E70C2686E70D2684E70E26F1
:100D800082E70F2680E710267EE711267CE71226F1
:100D90007AE7132678E7142676E7152674E7394AAA
:100DA0001168C02212040A403748834204D03748F1
:100DB00083421FD000204BE70802F8D480231B0495
:100DC000134330490A683248024013430B60314BE9
:100DD00018683149FFF786F943001B189B0001335F
:100DE000019302E0019B013B0193019B002BF9D190
:100DF00000202DE749023CD48023DB031343214923
:100E00000A682348024013430B60002020E7802338
:100E10001B069D4202D0194B9D4205D10B68826A88
:100E20005B025B0A9A4382620B68002B01DB0020A5
:100E30000EE7144A126814498B4204D013498B42BE
:100E40000CD0002004E78023DB031A400D490B6817
:100E50000F4803401A430A600020F9E680231B0470
:100E60001A4008490B680A4803401A430A600020E8
:100E7000EEE60020ECE60220EDE6C046040000802D
:100E800000FFFF7F08270140000200A4000400A823
:100E9000FFFF3FFF08000020400D030030B583B086
:100EA00004000023019303689A68D2074DD499681F
:100EB000274A114217D19A6826490A4001210A435C
:100EC0009A60254B1B681B0217D5244B18682449D0
:100ED000FFF708F901300190019B002B0DD0019B19
:100EE000013B0193F8E7836D102213438365C36DC3
:100EF0000F3A1343C365012028E0637E012B01D123
:100F0000002023E0FFF710FD050004E0FFF70CFDD3
:100F1000401B02280DD823681A68D20713D49A6898
:100F2000D207F3D49A680B490A4001210A439A6018
:100F3000ECE7A36D10221343A365E36D0F3A13434F
:100F4000E365012002E0002000E0002003B030BD96
:100F500017000080E8FFFF7F0827014008000020FD
:100F6000400D030070B504000D0016000268936880
:100F70005B0747D45423C35C012B45D00123542184
:100F80004354D1680B420DD19368DB0705D59368B4
:100F90001E490B4002210B4393602268D368012154
:100FA0000B43D3602000FFF779FF00282BD1A26DFF
:100FB000174B1A4080235B001343A3650023E365AE
:100FC000226D1449D162226D13491163226D1349B8
:100FD000516322681C2111605422A3542268536873
:100FE0000C390B43536021684031206D33002A00D7
:100FF00000F026FA2268936804490B4004210B4351
:10100000936000E0022070BD0220FCE7E8FFFF7F54
:10101000FEF0FFFF9D0B0008770B0008830B000814
:1010200070B5040003689A6802210800104011425C
:1010300000D001209A68D20731D5002831D19968B3
:1010400005220A40012A09D0A36D10221343A3658B
:10105000E36D0F3A1343E365012021E09A681249DA
:101060000A4002210A439A60236803221A60FFF7AC
:101070005BFC050023689B68DB070ED5FFF754FC7B
:10108000401B0228F6D9A36D10221343A365E36D1C
:101090000F3A1343E365012002E0002000E0002046
:1010A00070BD0020FCE7C046E8FFFF7FF0B583B0CD
:1010B0000400002301935433C35C012B00D1A6E04C
:1010C00001265423C654FFF7ABFF050023689A6836
:1010D00031001140164209D0A36D10221343A365BD
:1010E00054230022E254280003B0F0BDA26D494809
:1010F00002400630FF300243A265DE68464A1640D1
:10110000DA6846480240DA60080006E0B4229A58DD
:101110007F2313400133C018013107291DD82768E8
:10112000BA683F4B1A4018331343BB6023689A6870
:10113000002AEBDA019B01330193019AAE239B0253
:101140009A42F3D3A36D12229343023A1343A36549
:1011500054230022E2540125C5E74B081818FEF776
:10116000C1FF226893682E490B4001210B43936015
:10117000226811698023DB05994217D2294B1B682D
:10118000F02189030B40E02149038B420ED39B0CD5
:10119000033B012199400091009B5B08009302E012
:1011A000009B013B0093009B002BF9D1B4215358C5
:1011B0007F27BB43184350502268936818490B405F
:1011C00002210B439360FFF7AFFB070023689A6887
:1011D000D20709D4DA683243DA60A36D032293435D
:1011E000023A1343A3657BE7FFF79EFBC01B02286F
:1011F000ECD923689B68DB07E8D5A36D1022134365
:10120000A365E36D0F3A1343E36501256BE7022500
:1012100069E7C046FDFEFFFF03800000FC7FFFFF83
:10122000E8FFFF7F0827014070B5002811DB830825
:10123000134DC0339B005C5903221040C000FC32A8
:1012400016008640B44389010A40824022435A5125
:1012500070BD0F230340083B9B0806339B00094ADF
:10126000944663445C6803221040C000FC321500C1
:101270008540AC4389010A40824022435A60E7E737
:1012800000E100E000ED00E0013880235B049842BB
:101290000FD2094A50600948036A1B021B0AC02189
:1012A00009060B4303620023936007331360002099
:1012B00070470120FCE7C04610E000E000ED00E0D0
:1012C00010B5FFF7B1FF10BD002805DB1F2202405B
:1012D00001239340014A13607047C04600E100E0DB
:1012E00010B5FFF7D1FF10BDF0B5846CC56C65601B
:1012F000046D002C02D0446D856D65600B4F7C68D9
:10130000056C1C262E400125B5402C437C600468EA
:1013100063608368102B04D0036899600368DA6007
:10132000F0BD03689A600368D960F9E700000240E5
:1013300010B504000368FF20184008381421FEF798
:10134000D1FE236C9B08064A944663449B00636469
:10135000044BA3641C2318401B3B8340E36410BD73
:1013600000820010800802404268FF231340064AB2
:101370009A1892000265054A4265013B03221A4011
:1013800001239340836570473F820010400902406B
:1013900070B5041E4DD00568274BE8181421FEF7E0
:1013A000A1FE8000206425230222E2542B68234AF8
:1013B00013402B6021680A68A368E0680343206932
:1013C000034360690343A0690343E0690343206A60
:1013D000034313430B602000FFF7AAFFA26880239A
:1013E000DB019A4218D06168626CFF230B401360E6
:1013F000A36CE26C5A606368013B032B0FD9002396
:1014000023656365A3650023E36325220121A154BD
:10141000013AA354002070BD00236360E3E720007D
:10142000FFF7A2FF236D00221A60636DA26D5A6060
:10143000E9E70120EFE7C046F8FFFDBF0F80FFFF9F
:1014400070B504002420205C012846D0242001250A
:1014500025540130205C012807D024230022E254C7
:10146000022024230022E25470BD2430013525548B
:101470000020E063256828680126B043286020002A
:10148000FFF732FF236B002B1CD0226813680E215C
:101490000B431360626C1368DB0304D5116880236F
:1014A0005B000B431360236D002B04D0196880226E
:1014B00052000A431A602268136801210B4313602B
:1014C0000020CEE72268136804218B431360226852
:1014D000136806310B431360DCE70220C4E7000009
:1014E00070B5314B196804682568026C1C231340E1
:1014F00004229A40114216D06A0714D523689B062D
:1015000003D42368042293432360274C6368026C4E
:101510001C21114004228A4013436360036B002B9B
:1015200000D0984770BD02229A4011421CD0AA07F1
:101530001AD523689B0606D423680A2293432360A6
:101540002523093AC254184C6368026C1C211140CF
:1015500002228A401343636024230022C254C36AD8
:10156000002BDFD09847DDE708229A401142D9D0FE
:101570002D07D7D523680E22934323600A4C626857
:10158000036C1C21194001231D008D402A43626019
:10159000C3632522835423330022C254436B002BA0
:1015A000C0D09847BEE7C04600000240012907D0DE
:1015B000022908D0002909D14260826008007047E2
:1015C00042600020FBE782600020F8E70120F6E798
:1015D000002802D00160002070470120FCE70000D5
:1015E00070B506000268140C01252C401F2313401F
:1015F0009D4064010A4BE3181A68154204D01D602F
:101600004368002B00D09847064B9C4664442368EF
:101610001D4204D02560B368002B00D0984770BDF0
:101620000C18024010180240F0B5D6464F46464608
:10163000C0B500233BE0052500E00025A5402C00B7
:101640003C43634D1832920054518022AF584A46B1
:10165000D2433D004C46A5434C68E40302D53D000F
:101660004C4625435A4C8027E551842567593D0057
:1016700015404C68A40302D53D004C462543544C0C
:101680008427E55127683D0015404C68E40202D5E7
:101690003D004C4625434E4C256065682A404C6809
:1016A000A40201D54A462A43494C626001330C68C2
:1016B0002200DA4000D186E001229A40260016403E
:1016C000B1461442F2D04C68022C01D0122C18D131
:1016D000DD080835AD002C58A44607271F40BF0081
:1016E0000F24A2462600BE40B04666464446A643A6
:1016F000B4460C69564626403400BC406646344326
:101700002C500468A4465D000324A2462700AF4085
:10171000B846FF4366464446A643B4464C68564620
:1017200026403400AC406646344304604C68661E74
:10173000012E03D9112C01D0122C12D184683C4007
:10174000A446CC68AC406646344384604468944305
:101750004A68120994460122664632409A40224362
:1017600042604A68032A05D0C4683C408A68AA409F
:101770002243C2604A68D20098D59A0814001834EF
:10178000A400134D675903241C40E4000F25A54015
:10179000AF43A025ED05A84200D14EE70D4DA8426C
:1017A0000BD00D4DA8420AD00C4DA84209D00C4DCB
:1017B000A84200D13FE7062540E701253EE7022584
:1017C0003CE703253AE7E0BCBA46B146A846F0BD7F
:1017D000001802400004005000080050000C0050A7
:1017E0000014005003690B4201D001207047002013
:1017F000FCE7002A01D0816170478162FCE70000AC
:1018000082B00A4B196C012211431964196C0A4009
:101810000092009ADA6B802149050A43DA63DB6B98
:101820000B400193019B02B07047C046001002407C
:1018300030B58FB004001422002109A801F030F95E
:101840001C22002102A801F02BF92268234B9A42A6
:1018500001D00FB030BD2023029302A800F0F0FAAF
:10186000002835D11E4B1A6C802149030A431A64A3
:101870001A6C0A400092009A596B01221143596375
:101880005B6B1A400192019B09A902230993013362
:101890004B6000258D60A020C005FFF7C5FE1148F4
:1018A000114B0360052343608560C5607B33036192
:1018B000803343618023DB0083612023C3610562A1
:1018C000FFF766FD002806D1064B23659C62C0E742
:1018D000FEF718FFC6E7FEF715FFF5E70024014005
:1018E00000100240D00200200800024010B588B06D
:1018F00004001422002103A801F0D2F82268114B41
:101900009A4201D008B010BD0F4BDA6B80218902DA
:101910000A43DA63DA6B0A400192019A596B012299
:10192000114359635B6B13400293029B03A90C2381
:1019300003930A3B4B600A61A020C005FFF774FEC9
:10194000E0E7C046004400400010024070B5041EAD
:1019500000D139E10368DB072CD5A14B9A68382305
:101960001340082B22D043688022520293422ED08B
:10197000A022D202934231D0994B1A6899490A4069
:101980001A601A6898490A401A606368002B31D0BF
:10199000FEF7CAFF0500924B1B689B030AD4FEF7B3
:1019A000C3FF401B6428F6D903200EE14368002BD7
:1019B00000D10BE123689B0747D5894B9B683822F0
:1019C0001A4261D1E368002B22D10120FDE0844A54
:1019D000116880235B020B431360D6E7804B1968C4
:1019E0008022D2020A431A601968802252020A43F6
:1019F0001A60CAE7FEF798FF0500794B1B689B0346
:101A0000D8D5FEF791FF401B6428F6D90320DCE00F
:101A1000734B5A6875490A40616909020A435A6062
:101A20001A6873490A4021690A431A601B68DB0A75
:101A300007221A406F4BD3406F4A13606F4B1868F0
:101A4000FEF72EFF002800D0C2E023681B0757D501
:101A5000634B9A6838231340182B4ED0A369002B90
:101A600077D05F4A136E01210B431366FEF75CFFCC
:101A700005005B4B1B6E9B0742D4FEF755FF401BD6
:101A80000228F6D90320A0E0E368002B22D0544AB4
:101A9000136857490B4021690B4313601168802379
:101AA0005B000B431360FEF73FFF05004C4B1B68C8
:101AB0005B0506D4FEF738FF401B0228F6D9032049
:101AC00083E047494B68494A134062691202134355
:101AD0004B60BAE7424A136849490B401360FEF76E
:101AE00023FF05003E4B1B685B05AED5FEF71CFFD0
:101AF000401B0228F6D9032067E0A369002B69D0B8
:101B000023685B0768D5364B9A6838231340202B2F
:101B100032D0A368012B34D0052B38D0304BDA6D8E
:101B200001218A43DA65DA6D03318A43DA65A368F5
:101B3000002B38D0FEF7F8FE0400294BDB6D9B0725
:101B40002FD4FEF7F1FE001B2E4B9842F5D903204F
:101B50003BE0234A136E01218B431366FEF7E4FE3C
:101B600005001F4B1B6E9B07CAD5FEF7DDFE401B11
:101B70000228F6D9032028E0A368002B2ED00020ED
:101B800023E0174AD36D01210B43D365CFE7144BF4
:101B9000DA6D04210A43DA65DA6D03390A43DA653E
:101BA000C5E7002011E0FEF7BFFE04000C4BDB6D23
:101BB0009B0707D5FEF7B8FE001B124B9842F5D9DC
:101BC000032002E0002000E0012070BD0120FCE7BE
:101BD0000120FAE70120F8E70020F6E70120F4E70A
:101BE00000100240FFFFFEFFFFFFFBFFFF80FFFF33
:101BF000FFC7FFFF006CDC0208000020040000208B
:101C0000FFFEFFFF88130000144B9B6838221A4226
:101C100007D1124B1A68D20A072313401048D84044
:101C200070470E4B9A6838231340082B10D00B4B8B
:101C30009A6838231340202B0CD0084B9A6838231D
:101C40001340182B01D00020EAE7FA20C001E7E793
:101C50000348E5E780200002E2E7C04600100240AA
:101C6000006CDC0270B504000D00002800D1A4E077
:101C7000544B1A68072313408B4221D323689A07D9
:101C800010D55B0707D550498A68504B1A40B023DE
:101C90001B0113438B604C4A93684D490B40E1682C
:101CA0000B4393602368DB074CD56368012B1ED080
:101CB000002B39D1444A126852051CD4012064E03B
:101CC000404A136807218B432B431360FEF72CFE19
:101CD00006003C4B1A6807231340AB42CED0FEF7F8
:101CE00023FE801B3B4A9042F3D903204DE0364A45
:101CF0001268920363D534498A68072082431343EC
:101D00008B60FEF711FE06002F4B9B6838221A40AD
:101D10006368DB009A4215D0FEF706FE801B2D4B50
:101D20009842F1D9032030E0032B05D0264AD26D2A
:101D30009207E0D4012028E0234A126E9207DAD4F9
:101D4000012022E01F4B1A6807231340AB421DD825
:101D500023685B0706D51C4A93681F490B4021691D
:101D60000B439360FFF750FF174B9A68120A0F233B
:101D700013401A4A9B009A581F231340D840184B0F
:101D80001860184B1868FEF78BFD70BD0D4A13687C
:101D900007218B432B431360FEF7C6FD0600094B5A
:101DA0001A6807231340AB42D2D0FEF7BDFD801B5B
:101DB000084B9842F3D90320E7E70120E5E701202B
:101DC000E3E7C0460020024000100240FF84FFFF0E
:101DD000FFF0FFFF88130000FF8FFFFF84770008EC
:101DE000080000200400002010B5FFF70DFF074B8E
:101DF0009A68120A0F231340054A9B009A581F2322
:101E00001340D840034B186010BDC046001002407C
:101E1000847700080800002010B5FFF7E5FF064BA7
:101E20009A68120B07231340044A9B009A581F23F9
:101E30001340D84010BDC04600100240647700082F
:101E400070B582B0040003685B0650D5424BDB6B73
:101E5000DB0035D4404BDA6B802149050A43DA6355
:101E6000DB6B0B400193019B01253B4BD96DC022DD
:101E700092000B001340114235D0A2699A420DD056
:101E8000354AD36D35490B40D06D8021490201435D
:101E9000D165D16D32480140D165D365DB0711D4DE
:101EA0002D4AD36D2D490B40A1690B43D36500200A
:101EB000012D1DD1284AD36B2A490B40D36317E06B
:101EC0000025D2E7FEF730FD0600234BDB6D9B07B4
:101ED00007D4FEF729FD801B234B9842F5D9032038
:101EE00002E0002000E000200028E1D1D8E7002037
:101EF0002368DB0706D5184A536D03218B43A1687D
:101F00000B43536523689B0706D5134A536D174946
:101F10000B40E1680B43536523689B0606D50E4AC8
:101F2000536D9B009B0861690B43536523685B07F6
:101F300006D5094A536D0E490B4021690B43536581
:101F400023681B0606D5044A1368E0218B436168A9
:101F50000B43136002B070BD00100240FFFCFFFF96
:101F6000FFFFFEFFFFFFFFEF88130000FFCFFFFF23
:101F7000FF3FFFFF30B5EFF31084012282F310889A
:101F800001680B68124D2B400B6084F31088EFF34F
:101F9000108182F31088026893680E4C234093608E
:101FA00081F31088C36E012B06D08C232022C250EF
:101FB0000023C366436730BDEFF3108183F31088BD
:101FC000026813681024A343136081F31088ECE7C0
:101FD000DFFEFFFFFEFFFFEF10B50400836802691C
:101FE000134342691343C269134301680A68624894
:101FF000024013430B602268536860490B40E1685C
:102000000B435360A369226A1A4321688B685C48BA
:10201000034013438B602268D36A0F218B43616AAC
:102020000B43D3622368574A934230D0564A9342B7
:102030003ED01023E06980221202904242D0042B4D
:1020400000D189E07BD8002B00D17FE0022B74D136
:102050004E4B1B685B090721194001314C48FEF7C4
:1020600041F8626A4B4B5200D15AFEF73BF8616867
:102070004B08C018FEF736F80200103A464B9A4259
:102080006FD823680004000CD86000206AE03F4B42
:102090005A6D03231340022B0CD005D8002B0BD014
:1020A000012B0BD10333C5E7032B09D10533C1E75E
:1020B0000023BFE70223BDE70023BBE71023B9E7F6
:1020C0001023B7E7042B35D02AD8002B2CD0022BB5
:1020D00024D12E4B1B685B090721194001312C4884
:1020E000FEF700F8626A2B4B5200D15AFDF7FAFF57
:1020F000400061684B08C018FDF7F4FF0200103A79
:10210000254B9A422BD882B20F239A434008083BB2
:10211000034013432268D360002023E0012021E024
:10212000082BDFD001201DE0FFF776FE0028D9D173
:10213000002017E0FFF768FDF8E7012012E0082B08
:1021400002D1802000028CE701200BE0FFF764FE43
:10215000002886D1002005E0FFF756FDF8E70120B2
:1021600000E0012001236A22A352023AA352002375
:102170006367A36710BDC046F369FFCFFFCFFFFFC2
:10218000FFF4FF11003801400044004000100240FD
:10219000006CDC0240770008EFFF0000836A1B0739
:1021A00006D5026853682C490B40816B0B43536082
:1021B000836ADB0706D50268536828490B40C16A69
:1021C0000B435360836A9B0706D502685368244912
:1021D0000B40016B0B435360836A5B0706D50268B3
:1021E000536820490B40416B0B435360836ADB0605
:1021F00006D5026893681C490B40C16B0B43936082
:10220000836A9B0606D50268936818490B40016CE7
:102210000B439360836A5B060BD5026853681449CD
:102220000B40416C0B435360426C80235B039A422A
:102230000AD0836A1B0606D5026853680D490B4015
:10224000C16C0B4353607047026853680A490B40E6
:10225000816C0B435360ECE7FF7FFFFFFFFFFDFF47
:10226000FFFFFEFFFFFFFBFFFFEFFFFFFFDFFFFFB3
:10227000FFFFEFFFFFFFF7FFFFFF9FFFF8B5CE4621
:10228000474680B506000D0017009946089B984602
:102290003368DC692C40641B63425C41BC4233D12F
:1022A00043460133F4D0FEF73FFB4B46C01A40458E
:1022B0002FD84346002B2ED0326813685B07E7D532
:1022C000802DE5D0402DE3D0D3691B0710D4D3690E
:1022D0001B05DDD580231B0113623000FFF74AFE8A
:1022E00090232022F2500C3B0022F25403200CE0F9
:1022F000082414623000FFF73DFE9023F4500C3B9D
:102300000022F254012000E00020C0BCB946B046D3
:10231000F8BD0320F9E70320F7E7F0B5C64600B59E
:1023200082B004000D0090461E008823C358202B65
:1023300065D1002968D0002A68D0826880235B01BB
:102340009A4204D10369002B01D1CB0760D49023BA
:102350000022E250083B2132E250FEF7E5FA070086
:1023600054234246E2520233E252A26880235B01C8
:102370009A4202D00023984618E02369002B29D006
:102380000023984612E088232022E250032037E001
:1023900043461B882268DB05DB0D936202239C46C3
:1023A000E0445623E25A013A92B2E2525623E35AEB
:1023B000002B12D000963B00002280212000FFF766
:1023C0005DFF0028DFD1002DE2D02A7823689A62D1
:1023D0000135E6E7A8460025E8E700963B00002225
:1023E00040212000FFF74AFF002803D18823202244
:1023F000E25005E088232022E250032000E0022082
:1024000002B080BCB846F0BD0120F9E70120F7E733
:102410000120F5E730B583B0040090230022C250BC
:10242000FEF782FA050023681B681B0710D4236897
:102430001B685B072BD420238822A3500432A350AF
:102440000023E3662367083AA354002003B030BD9D
:102450008021234B00930300002289032000FFF713
:102460000DFF0028E3D0EFF31081012383F31088E0
:102470002268136880208343136081F310888823C7
:102480002022E250043B0022E2547D38DEE7802126
:10249000134B00932B000022C9032000FFF7EEFE30
:1024A0000028C8D0EFF31080012282F31088216841
:1024B0000B680C4D2B400B6080F31088EFF31080FD
:1024C00082F3108821688B6893438B6080F31088B7
:1024D0008C231F32E250083B0022E2540320B5E770
:1024E000FFFFFF01DFFEFFFF10B5041E30D0882381
:1024F000C358002B22D088232422E250226813687C
:1025000001218B431360A36A002B1DD12000FFF72C
:1025100063FD012811D0226853680E490B405360B7
:10252000226893682A218B439360226813682939B3
:102530000B4313602000FFF76DFF10BD84330022B2
:10254000C254FFF7D3F9D6E72000FFF727FEDDE7F7
:102550000120F2E7FFB7FFFFFEE7FEE77047704795
:1025600010B5FEF7D5F910BD10B5002000F094F8B5
:1025700010BD000010B50248FEF7B2FF10BDC04606
:10258000D002002070B588B00400012832D800289D
:102590001DD11A4A516B012319435163526B1340E9
:1025A0000193019B164B6200D65A03A9039601239F
:1025B0004B6000238B600333CB60124BA200D058DA
:1025C000FFF732F8012C0CD0002008B070BD0B4A88
:1025D000516B042319435163526B13400293029BC6
:1025E000E0E7084BA400E05801223100FFF701F9B1
:1025F0000020EAE702204042E7E7C0460010024020
:10260000587700085C77000830B587B005001C4A91
:10261000506B042318435063526B13400093009B8C
:1026200001AB8022920101920122039201320492B5
:10263000002908D1190000234B601248FEF7F4FF6F
:10264000002007B030BD01A90F4B4B600D48FEF7CD
:10265000EBFF6C006419A4000C4BE4180C4920003B
:10266000FEF7B6FF0B4A00212000FEF79FFF002275
:102670000F210720FEF724FE0720FEF725FEDFE7E7
:1026800000100240000800500000211094030020B8
:102690000D000006B326000810B54300181880008E
:1026A000024BC018FEF79CFF10BDC04694030020EB
:1026B000704710B50020FFF7FBFF10BD01207047E9
:1026C00010B500F0F5F9162303600120404210BD5B
:1026D00010B501214942FFF7F3FFFEE770B50C008A
:1026E0001600002504E000E000BF20700135013431
:1026F000B542F8DB300070BD70B51600002405E06F
:102700004D1C087800E000BF01342900B442F7DB1B
:10271000300070BD01204042704780239B014B6018
:1027200000207047012070470020704710B503005B
:102730000C4A0D49521A0D490968002907D00B4966
:102740000868C318934206D8084A136010BD0749A9
:1027500007480860F3E700F0ABF90C2303600120A1
:102760004042F3E70030002000040000A0030020F6
:10277000F0040020024B802212059A607047C04688
:1027800000ED00E00D488546FFF7F4FF002103E06F
:102790000B4B5B58435004310A480B4B42189A428A
:1027A000F6D30A4A02E0002313600432084B9A422F
:1027B000F9D300F083F9FEF74BF8FEE70030002074
:1027C000307B000800000020680000206800002026
:1027D000F0040020FEE700000CB430B5174B0C00ED
:1027E0001D689DB0002908DA8B2301202B60404230
:1027F0001DB030BC08BC02B01847822302A99B0060
:102800008B81002302904B6608619C4200D0631EBE
:102810008B604B6101235B42CB81280021AB209A66
:10282000019300F023FA431C01DA8B232B60002C68
:10283000DED00022029B1A70DAE7C04618000020A2
:10284000104B70B51D6804002A6B002A16D11820A1
:1028500000F010FB021E286304D146210A4B0B48EE
:1028600000F082F90A4B002103600A4B43600A4BD7
:1028700083600B2383810120106151610023146167
:10288000536170BD18000020C4770008DB77000892
:102890000E33CDAB34126DE6ECDE0500164B70B591
:1028A0001D682C6B002C17D1182000F0E3FA041ED1
:1028B000286305D122005221104B114800F054F931
:1028C000104B01220360104B4360104B83600B23BD
:1028D0008381002302614361206961690C4A0D4BC9
:1028E00002F000FF0122002380185941206161613C
:1028F0004800400870BDC04618000020C47700089A
:10290000DB7700080E33CDAB34126DE6ECDE05004C
:102910002D7F954C2DF45158002310B50400036011
:102920004360836081814366C28103614361836147
:10293000190008225C3000F0B3F80B4B246263628C
:102940000A4BA3620A4BE3620A4B23630A4B9C4285
:1029500005D00A4B9C4202D0094B9C4203D1200077
:10296000583000F0EBF810BD5134000879340008FD
:10297000B1340008DD340008A40300200C0400205A
:102980007404002010B5034A0349044800F06CF8B1
:1029900010BDC0460C000020D93300081C000020E8
:1029A00041680B4B10B50400994201D000F014FDB2
:1029B000A168084B994202D0200000F00DFDE168AB
:1029C000054B994202D0200000F006FD10BDC04624
:1029D000A40300200C0400207404002010B5094B4F
:1029E000094A04211A6009480022FFF795FF0122D5
:1029F00009210748FFF790FF022212210548FFF73F
:102A00008BFF10BDDC04002085290008A4030020F2
:102A10000C0400207404002010B5024800F08FF868
:102A200010BDC046E104002010B5024800F088F84F
:102A300010BDC046E104002010B50400FFF7ECFF14
:102A4000236A002B02D0FFF7EFFF10BD044B236277
:102A5000044B1B68002BF6D1FFF7C0FFF3E7C0461D
:102A6000A1290008DC040020F7B51400002600901E
:102A70000191A5686768013F04D52468002CF8D14E
:102A80003000FEBDAB89012B08D90E22AB5E0133AD
:102A900004D029000098019B984706436835EAE76F
:102AA00003008218934200D1704719700133F9E78F
:102AB000014B18687047C0461800002070B500260A
:102AC0000C4C0D4D641BA410A64209D1002604F045
:102AD0001FFE0A4C0A4D641BA410A64205D170BD0E
:102AE000B300EB5898470136EEE7B300EB58984730
:102AF0000136F2E7287B0008287B00082C7B0008C1
:102B0000287B0008DFB501267642F7170A4B040040
:102B10000022694618680096019700F013F8002813
:102B200001DA0096019700980199002C01D02060ED
:102B3000616004B0D0BDC0461800002070477047E7
:102B400070470000002370B5064D04000800110016
:102B50002B6002F0BFFD431C03D12B68002B00D07B
:102B6000236070BDEC0400207FB514001A00094BEF
:102B700005001B680E00D868074B002C01D1074BDD
:102B80001C000749019302942B00009600F0ACFC56
:102B900000F070FD180000208C780008C77800084D
:102BA00099780008F0B58E6885B01F000C003300DE
:102BB00002900392BE4254D80C22885E9022D2002A
:102BC00010422CD00322096923685B1A01936369C0
:102BD0005343019ADD0FED187B1C6D109B182A00E2
:102BE000AB4201D91D001A00400527D511000298FB
:102BF00000F06CF9061E2AD0019A216900F031FD1F
:102C0000A289194B1A4080231343A381019B26619B
:102C1000F618266065613E00ED1A3B00A5601F00B6
:102C20003A000399206800F09FFC0020A3689B1BDA
:102C3000A3602368DB19236005B0F0BD029800F0A3
:102C400063FC061EE2D12169029800F01BFD0C23F3
:102C50000120029A40421360A28934331343A381B6
:102C6000EAE73E00DCE7C0467FFBFFFFF0B59FB020
:102C700002901C008B890E0015001B0611D50B69F4
:102C8000002B0ED1402100F021F930603061002886
:102C900005D10C23029A136001204042D4E0402366
:102CA00073610023292102AA52180B932033137059
:102CB000013102AA10335218137005942C002378A6
:102CC000002B01D0252B48D1671BAC420BD03B0019
:102CD0002A0031000298FFF765FF013000D1AEE015
:102CE0000B9BDB190B932378002B00D1A7E001226B
:102CF000532100235242079202AA5218651C0693E0
:102D00000993089313701C93554F297805223800B6
:102D100000F09CFC6C1C069906AB00281FD1CA066B
:102D200004D55327202202A8C01902700A0704D52F
:102D300053272B2202A8C01902702A782A2A15D0FC
:102D40002C0000200A27DA682178651C303909290F
:102D500050D9002811D009920FE00134AFE70123C8
:102D6000C01B83400B4325000693CDE7059A101D39
:102D700012680590002A37DBDA6022782E2A0CD1FF
:102D800062782A2A3BD1059A0234111D12680591F6
:102D9000002A01DA012252425A60324D03222800F1
:102DA000217800F053FC06AF002806D04023401BDA
:102DB0008340069A013413430693217806222A4859
:102DC000651C397600F042FC00283FD0274B002BD1
:102DD00029D10722059B07339343083305930B9BA7
:102DE00003995B180B9369E75242DA6002220A43A7
:102DF0000692C2E77A432C0001205218A4E7002271
:102E00000A205A601100130001342278651C303A00
:102E1000092A03D9002BC0D00791BEE741432C00FB
:102E200001238918F1E705AA009239003200104BFE
:102E3000029800E000BF0390039B0133CFD1B38918
:102E40000B985B0600D527E71FB0F0BD05AA0092DE
:102E500039003200064B029800F028F9EBE7C04633
:102E6000C8780008CE780008D2780008000000007A
:102E7000A52B000810B5034B0100186800F026F8D8
:102E800010BDC0461800002070B50F4E0D0031680F
:102E90000400002902D100F0A1FB306029002000CD
:102EA00000F09CFB431C03D101256D42280070BD3E
:102EB0000323C51C9D43A842F8D0291A200000F026
:102EC0008DFB0130F2D1EFE7E4040020F7B50322D7
:102ED000CB1C9343083305001F000C2B34D20C2766
:102EE000B94233D8280000F0A3FA374E33681C00EB
:102EF000002C2FD139002800FFF7C6FF0400431C27
:102F00005FD134680094009B002B4AD1002C52D032
:102F100023682800E3180099019300F05FFB019BF0
:102F2000834248D123682800FF1A3900FFF7ACFF1D
:102F3000013040D02368DB19236033685A68002AC7
:102F400033D1009B336019E0002BC9DA0C232B60CE
:102F50000020FEBD2168C91B20D40B290AD9E21923
:102F60002760A34204D1326063681160536005E0BA
:102F70005A60F9E76268A3420ED13260280000F07F
:102F80005FFA200007220B30231D9043C21A98429B
:102F9000DFD01B1AA350DCE75A60EFE72300646818
:102FA000A6E7009C63680093ADE71A005B68A34244
:102FB000FBD10023DAE70C2328002B6000F040FA55
:102FC000C6E70760DAE7C046E8040020F7B5160058
:102FD00001938A680B690C000090934200DA130099
:102FE0002200336043321278002A01D0013333606B
:102FF00023689B0602D533680233336022680623B8
:1030000015001D401A4227D0230043331B785A1E57
:1030100093412268920630D4220001990098089DBD
:103020004332A847013025D00622236800251340EB
:10303000042B05D13368E568ED1AEB43DB171D401F
:10304000A3682269934201DD9B1AED180026B54260
:1030500020D1002010E00135E36832689B1AAB42B2
:10306000D2DD2200012301990098089F1932B84748
:103070000130F0D101204042FEBD3020E118433143
:10308000087021005A1C45310978A21843320233D6
:103090001170C1E72200012301990098089F1A329C
:1030A000B8470130E6D00136D1E70000F0B58BB06B
:1030B00006920A0043320793059003920A7E0C00A1
:1030C000109B782A09D8622A0BD8002A00D1BAE0CE
:1030D0007A490491582A00D18EE0250042352A70A1
:1030E00022E0100063381528F7D8FCF7F1FF16002E
:1030F0001F00F6FFF6FFF6FFF6FF1F00F6FFF6FFD4
:10310000F6FFF6FF9F0036007E00F6FFF6FFB000E8
:10311000F6FF3600F6FFF6FF820025001A684235FA
:10312000111D196013682B7001239EE0186809684F
:10313000021D0D060BD506681A60002E03DA2D233A
:10314000039A764213705D4B0A27049318E00668D1
:103150001A604906F1D536B2EFE70868196840C928
:10316000050602D4400600D5B6B21960534B0A27B3
:1031700004936F2A00D1023F2300002243331A70C8
:103180006368A360002B06DB04212268039D8A4349
:10319000226033430CD0039D30003900FDF728F83E
:1031A000049B013D5B5C2B70330006009F42F3D90A
:1031B000082F09D12368DB0706D5626823699A4284
:1031C00002DC3023013D2B70039B5B1B2361079BBB
:1031D000210000930598069B09AAFFF7F7FE01302E
:1031E00048D1012040420BB0F0BD202209680A43BB
:1031F0002260782232490491210045310A70196811
:10320000226840C9100602D4500600D5B6B2196033
:10321000D30702D5202313432360002E01D01027AB
:10322000AAE72022236893432360F8E71A680D6811
:10323000101D4969186013682E0601D5196002E057
:103240006D06FBD519800023039D2361BFE71A6833
:10325000111D1960156800212800626800F0F6F958
:10326000002801D0401B6060636823610023039A3B
:103270001370ACE72A00236906990598079DA847B3
:103280000130AED023689B0715D4099BE0689842B3
:10329000A9DA1800A7E72200012306990598079EDE
:1032A0001932B04701309CD00135E368099A9B1A66
:1032B000AB42F0DCE9E70025F7E7C046D978000823
:1032C000EA780008F7B50C228B5E05000C001A079F
:1032D0005AD44A68002A02DC0A6C002A4FDDE76AE9
:1032E000002F4CD0002280212E682A601A0049014C
:1032F0000A400B4234D0626DA3895B0706D5636830
:10330000D21A636B002B01D0236CD21A0023280041
:10331000E76A216AB8470C23E25E431C06D129689C
:103320001D292ED82B4BCB40DB072AD50023636009
:1033300023692360D20405D5431C02D12B68002BDE
:1033400000D16065616B2E60002918D023004433E2
:10335000994202D0280000F095F9002363630EE043
:1033600001232800216AB8470200431CC4D12B68FE
:10337000002BC1D01D2B01D0162B1DD12E6000209B
:1033800021E0402313431BE00E69002EF7D00F68A5
:103390000E60BA1B019200229B0700D14A69A2600D
:1033A000019B002BEBDDA36A32001F002800019B6C
:1033B000216AB847002807DC4023A28913431BB2C7
:1033C0000120A3814042FEBD019B36181B1A0193C8
:1033D000E6E7C046010040200B6970B505000C000F
:1033E000002B02D10025280070BD002804D0036AFC
:1033F000002B01D1FFF720FB0C22A35E002BF1D0A4
:10340000626ED20704D49B0502D4A06DFFF797FB30
:1034100028002100FFF756FF636E0500DB07E2D4AA
:10342000A3899B05DFD4A06DFFF78AFBDBE70000D3
:1034300010B50248FFF783FB10BDC046E004002032
:1034400010B50248FFF77CFB10BDC046E004002029
:1034500070B50C000E25495F00F0ACF8002803DBC6
:10346000636D1B18636570BDA389024A1340A38175
:10347000F9E7C046FFEFFFFFF8B51F008B89050095
:103480000C001600DB0505D50E23C95E00220223C1
:1034900000F07CF8A389054A28001340A38132007C
:1034A0000E23E15E3B0000F0ABF8F8BDFFEFFFFF3D
:1034B00070B50C000E25495F00F068F80C22A35E81
:1034C000421C03D1044A1340A38170BD80225201E3
:1034D0001343A3816065F8E7FFEFFFFF10B50E23EC
:1034E000C95E00F0A1F810BD0EB417B5054C05ABD0
:1034F00004CB01002068019300F036F91EBC08BC23
:1035000003B0184718000020F7B506000C0015009E
:10351000002905D11100FFF7D9FC04002000FEBDF1
:10352000002A03D100F0AEF82C00F7E700F03CFAD7
:103530000700854202D84308AB42EFD32900300090
:10354000FFF7C4FC0190002801D1019CE6E72A00A6
:10355000BD4200D93A002100019800F082F8210014
:10356000300000F08FF8F0E710B5884202D98B18D0
:10357000984208D300239A4207D0CC5CC45401334C
:10358000F9E78B5C8354013AFBD210BD70B504009F
:10359000080011001A000023054D2B60FFF7C4F846
:1035A000431C03D12B68002B00D0236070BDC046A4
:1035B000EC04002070B50400080011001A0000237C
:1035C000054D2B60FFF78AF8431C03D12B68002BB5
:1035D00000D0236070BDC046EC040020002370B50D
:1035E000064D040008002B60FFF7A0F8431C03D130
:1035F0002B68002B00D0236070BDC046EC04002077
:1036000070B50400080011001A000023054D2B605E
:10361000FFF772F8431C03D12B68002B00D0236006
:1036200070BDC046EC040020002370B5064D0400B8
:1036300008002B60FFF76EF8431C03D12B68002BAA
:1036400000D0236070BDC046EC040020C9B28218CF
:10365000904201D10020704703788B42FBD00130AB
:10366000F6E7002310B59A4200D110BDCC5CC454DB
:103670000133F8E7062010B500F0C6FA0120FFF785
:1036800027F8000070B505000C1E10D0043C23681C
:10369000002B00DAE4182800FFF7CAFE1D4A136861
:1036A000002B05D1636014602800FFF7C9FE70BDD0
:1036B000A34208D9206821188B42F3D119685B68AE
:1036C00009182160EEE71A005B68002B01D0A342C5
:1036D000F9D911685018A0420BD120680918501868
:1036E00011608342E0D118685B6841181160536033
:1036F000DAE7A04202D90C232B60D5E72068211815
:103700008B4203D119685B680918216063605460BB
:10371000CAE7C046E8040020936810B5013B9360F7
:10372000002B04DA9469A34207DB0A2905D0136849
:10373000581C10601970080010BD00F03DF9010020
:10374000F9E7F8B506000F001400D518AC4201D116
:10375000002007E021783A003000FFF7DDFF013458
:10376000431CF3D1F8BD0000F0B59FB00D0016006A
:103770001C000290002804D0036A002B01D1FFF73F
:103780005BF96B6EDB0705D4AB899B0502D4A86D92
:10379000FFF7D5F9AB891B0702D52B69002B13D195
:1037A0002900029800F04AF900280DD06B6EDB0763
:1037B00003D5012040421FB0F0BDAB899B05F8D472
:1037C000A86DFFF7BDF9F4E70023292102AA5218DA
:1037D0000B9320331370013102AA10335218137067
:1037E000059434002378002B01D0252B48D1A71B4A
:1037F000B4420BD03B00320029000298FFF7A1FF32
:10380000013000D1AEE00B9BDB190B932378002B2A
:1038100000D1A7E00122532100235242079202AABD
:103820005218661C06930993089313701C93594F02
:10383000317805223800FFF709FF741C069906ABA2
:1038400000281FD1CA0604D55327202202A8C01978
:1038500002700A0704D553272B2202A8C019027050
:1038600032782A2A15D0340000200A27DA68217815
:10387000661C3039092950D9002811D009920FE06F
:103880000134AFE70123C01B83400B43260006939E
:10389000CDE7059A101D12680590002A37DBDA6023
:1038A00022782E2A0CD162782A2A3BD1059A02343A
:1038B000111D12680591002A01DA012252425A6054
:1038C000354E032230002178FFF7C0FE06AF0028F6
:1038D00006D04023801B8340069A0134134306938D
:1038E000217806222D48661C3976FFF7AFFE0028A6
:1038F00047D02B4B002B29D10722059B073393433D
:10390000083305930B9B03995B180B9369E75242AD
:10391000DA6002220A430692C2E77A4334000120A9
:103920005218A4E700220A205A6011001300013443
:103930002278661C303A092A03D9002BC0D007919F
:10394000BEE74143340001238918F1E705AA00923C
:1039500039002A00134B029800E000BF0390039B3C
:103960000133CFD16B6EDB0705D4AB899B0502D445
:10397000A86DFFF7E5F8AB895B0600D519E70B9852
:1039800019E705AA009239002A00064B0298FFF7B2
:103990008DFBE3E7C8780008CE780008D2780008ED
:1039A00000000000433700080B1F1B68181F002B86
:1039B00001DA0B58C0187047F8B506000D00140066
:1039C000002804D0036A002B01D1FFF735F8A36962
:1039D000A360A3891B0702D52369002B09D121000D
:1039E000300000F02BF8002803D001256D4228009C
:1039F000F8BD23692068EFB2C01A6369EDB2834253
:103A000005DC21003000FFF7E7FC0028EDD1A368BA
:103A10000130013BA36023685A1C22601F70636958
:103A2000834204D0A389DB07E1D50A2DDFD1210031
:103A30003000FFF7D1FC0028D9D0D6E72B4B70B56A
:103A4000050018680C00002804D0036A002B01D17F
:103A5000FEF7F2FF0C22A35E1A0722D4DA0607D47F
:103A600009222A60373201201343A381404270BDEE
:103A70005A0713D5616B002908D0230044339942BB
:103A800002D02800FFF7FEFD002363632422A389F0
:103A900093430022626022691BB222600822134312
:103AA000A3812269002A07D19A0501D51B0603D5F7
:103AB0002100280000F046F80C23E25E01211300EB
:103AC0000B400A420CD00023A36063695B42A361F0
:103AD000002023698342CAD11306C8D54023C2E718
:103AE000910700D46369A360F2E7C0461800002084
:103AF000F0B50E001D000E23C95E140097B000291A
:103B00000CDAB2898023110019401A4214D18023A3
:103B1000DB0000202960236017B0F0BD6A4600F08A
:103B2000A5F80028EDDBF02301991B021940044B96
:103B3000C9184B425941EAE700214023E9E7C04652
:103B400000E0FFFFF7B502268B8905000C00334229
:103B500006D0230047332360236101236361F7BD4F
:103B60006A4601ABFFF7C4FF009F28003900FFF74A
:103B7000ADF90C22A35E002806D19A05EFD40322EA
:103B800093431E43A681E4E780221343A381019B54
:103B9000206020616761002BE1D028000E23E15EE8
:103BA00000F03CF80028DAD00323A2899A43023BB4
:103BB0001343A381D3E770B504000D001F2904D976
:103BC000162303600120404270BDC36B002B04D05C
:103BD0008A009B181A68002A08D1200000F042F8D9
:103BE0002A000100200000F02BF8EDE7012A09D09F
:103BF000511C03D1162303600120E5E700212800B2
:103C0000196090470020DFE710B5034B01001868EA
:103C1000FFF7D1FF10BDC04618000020002370B58B
:103C2000064D040008002B60FEF77CFD431C03D109
:103C30002B68002B00D0236070BDC046EC04002030
:103C4000002370B5064D0400080011002B60FEF73C
:103C500037FD431C03D12B68002B00D0236070BDBF
:103C6000EC04002010B5FEF729FD10BD002370B54F
:103C7000064D0400080011002B60FEF74EFD431CAA
:103C800003D12B68002B00D0236070BDEC04002012
:103C900070B50D000400C843022182B00094019564
:103CA0008024C01708401D4B6900490D2D032D0BC2
:103CB0006403CE1801382C43132E0BDC002E20DBBE
:103CC00080231B0333411C1914239B1BDC406043DE
:103CD00002B070BD1E2E1CD8114B009D9C46802347
:103CE00061441B06AC46CB406344AB42AD41342239
:103CF0006D4264198C40921B202AE8D0D3401C43AB
:103D0000E5E7084B9C4661444B4259414942084013
:103D1000DEE70098019903F091FCD9E701FCFFFF71
:103D2000EDFBFFFF02FCFFFFF8B504000D0000F003
:103D3000A9F9220006000F002B002000290003F043
:103D40005BFC002815D10022002320002900FCF78D
:103D500069FB00280DD10022002320002900FCF778
:103D600047FB002808D0FEF7A3FE22230026074FBA
:103D7000036030003900F8BDFEF79AFE212303608E
:103D8000034800F079F906000F00F2E70000F0FFA9
:103D90003C770008F8B504000D0000F067F8220039
:103DA00006000F002B002000290003F025FC00284E
:103DB00007D10022002320002900FCF71FFB002868
:103DC00002D130003900F8BDFEF772FE2123002237
:103DD000036000231000190002F0CCF806000F0069
:103DE000EFE7C04630B51F4A4B0087B05B089342EF
:103DF0001DD91D4A934205D902000B0002F0C4FFF1
:103E000007B030BD02AC220000F014FB049C059DFD
:103E10000323034002980399012B15D0022B0BD0EA
:103E2000002B17D122002B0001F088F9E8E70022CF
:103E3000002301F083F9E3E722002B0001F07EF973
:103E400080231B06C918DBE7009322002B0001F03A
:103E500089FAF5E70123220000932B0001F082FA92
:103E6000CEE7C046FB21E93FFFFFEF7FF0B54546B7
:103E7000DE4657464E460B00E0B50D00794904007A
:103E80000200080083B02840884200D1CEE0002D17
:103E900000DC86E02C1500D196E073491B03601806
:103EA00080211B0B49031943E40703D4D30F4900B6
:103EB00059185200431098465000D30F0022490071
:103EC000924680225B18002716219203BC189C4260
:103ED00002DCA7181B1B9244C40F5B0001391B199D
:103EE000400052080029F1D100229346802200268A
:103EF000202412060AE0BB4276D05B00C10FC9182D
:103F0000013C0B0040005208002C1AD09119BB4212
:103F1000F1DDB9468E18002903DAF543ED0FA94605
:103F2000B944DB1B814200D9013B4F465B00401A7C
:103F3000C10FC918013C93440B0040005208002CEB
:103F4000E4D101435DD0494F494B386879689946BF
:103F50001A685B683D687E6802F016FF02000B007D
:103F600028003100FCF754FA00284AD038687968F4
:103F70004B465D461A685B68013567D03C687D68D2
:103F800001F0DEFB02000B0020002900FCF736FAEE
:103F90005D4600285ED002356B426B416C089A4446
:103FA00031E06E00760820002900264337D0002D2E
:103FB00045D1D10A153B52050029FAD08020400393
:103FC0001C000B00014248D1802500216D035B00DD
:103FD000080001312B42FAD0202516006D1AEE4060
:103FE0008A403343241A58E77B00814200D985E791
:103FF00000238E1800299ADAF543ED0FA9464F44A5
:1040000095E75B465C081B4A5346944642465B1064
:1040100063441205D1185346DE072643300003B02F
:10402000F0BCBB46B246A946A046F0BD2000290020
:1040300002F0E2FB22002B0001F082FBEFE702F02E
:10404000A3FE02000B0001F095FFE8E701239C4668
:10405000E244D8E701356C08D5E701204042241A34
:104060001BE7C0460000F07F01FCFFFF0879000855
:10407000007900080000E03F002001497047C04679
:104080000000F87FF0B5D6464F4646468022C0B5C0
:104090000B0086B0520391427BDA4A005208024379
:1040A00000D113E1002900DA67E10022C44B02F0DD
:1040B000A3FB3624C34A0B00644293426DDCC24D1D
:1040C0001A15AC461B0362441B0B98461219802438
:1040D000BE4B640343442340BD4C45465C401B1526
:1040E00099462543BA4B29009144002202F04CFE28
:1040F000434602331B0306000F0000221B0B022B5A
:1041000055DC0023FCF774F9002800D0E5E0B14A43
:10411000B14B3000390002F06FFB02000B000020B1
:10412000AE4902F031FE320004000D003B003000C9
:10413000390002F061FB0B0002002900200002F0B0
:104140005BFB4B4604000D00002B00D10EE14846FE
:1041500003F0B0FAA24AA34B0090019102F04CFB8D
:10416000A14A0290039100980199A04B02F044FBF0
:1041700002000B002000290002F006FE32003B0086
:1041800002F002FE02000B000298039902F0FCFD0F
:1041900007E08C4A0024934291DD02000B0001F0FD
:1041A000CFFA06B0E0BCBA46B146A846F0BD8023BF
:1041B000DB0501F0C5FA02000B003000390001F008
:1041C000D9FE040048460D0003F074FA22002B00CB
:1041D00004900591200029000294039502F00CFB45
:1041E000834B020043449A460B000090019102F079
:1041F00003FB04000D007F4A7F4B02F0FDFA7F4A6B
:104200007F4B01F09DFA22002B0002F0F5FA7D4A67
:104210007D4B01F095FA22002B0002F0EDFA7B4A6B
:104220007B4B01F08DFA009A019B02F0E5FA794A86
:1042300000900191784B2000290002F0DDFA774AC6
:10424000774B01F07DFA22002B0002F0D5FA754A77
:10425000754B01F075FA22002B0002F0CDFA0B002D
:1042600002000098019901F06BFA0D0041466F4B76
:1042700004005B1A51460B43002B49DD0022574BCB
:104280003000390002F0B8FA32003B0002F0B4FA14
:1042900002000B00009001912000290001F050FA6B
:1042A000029A039B02F0A8FA4B4604000D00002B73
:1042B0006BD102000B000098019902F065FD02002D
:1042C0000B003000390002F05FFD6AE70022002396
:1042D0000020574901F04EFE63E74B46002B6BD0A0
:1042E000484603F0E7F93E4A3E4B04000D0002F059
:1042F00083FA3D4A06000F00200029003B4B02F0E4
:104300007BFA02000B003000390001F019FA48E78F
:1043100022002B003000390002F036FD029A039B88
:1043200002F06AFA4B4604000D00002B1ED00498E0
:1043300005992B4A2B4B02F05FFA2B4A0090019112
:1043400004980599294B02F057FA02000B0020004F
:10435000290002F019FD32003B0002F015FD0200B9
:104360000B000098019902F00FFD1AE722002B00C4
:104370003000390002F008FD13E7020002F004FDEE
:104380000022002301F0F6FD0BE7154A154B0498B7
:10439000059902F031FA144A0290039104980599A4
:1043A000124B02F029FA22002B0001F0C9F9020099
:1043B0000B0000980199DFE600200021F1E6C046DD
:1043C00000005043FFFFEF7F01FCFFFF645F090027
:1043D0000000F03F555555555555D53F0000E03F7D
:1043E0000000E0FE422EE63F763C7935EF39EA3DAB
:1043F00086EBF9FF44523EDF12F1C23FDE03CB965B
:104400006446C73F599322942449D23F935555554A
:104410005555E53F9FC678D0099AC33FAF788E1DAA
:10442000C571CC3F04FA97999999D93F51B80600C4
:10443000000050C3F0B557464E46DE464546E0B54F
:10444000D44B4F0091468A4691B07F089F4200D8D6
:1044500094E0D14B9F422BD8D04A002900DCBFE129
:10446000CF4B02F091FCCE4B04000D009F4200D1D7
:1044700098E0CC4ACC4B02F087FC02000B0006000F
:104480000F002000290002F07FFCC64AC64B02F054
:104490007BFC4B461E605F609860D96001239B46A1
:1044A000584611B0F0BCBB46B246A946A046F0BD86
:1044B000BE4B9F4200D88DE0BD4B9F4268D8BD4A9D
:1044C0003E15944666443305FD1A2900040003F0A6
:1044D000B5F803F0EFF802000B00200029000A9263
:1044E0000B9302F051FC0022B34B02F085F90D0052
:1044F000040003F0A3F803F0DDF802000B00200035
:104500000C920D93290002F03FFC0022AA4B02F00E
:1045100073F90AAF3D000324B04638617961286918
:104520006969002200232600083D013CFBF760FF7B
:104530000028F4D1330046469846A04B3200019340
:104540000223494600933800434600F08DF9534654
:104550008346002BA4DA494680200A684968000691
:104560000B1849460A604B608A68C9680B184946AF
:104570008A60CB605B465B429B4691E7106051606E
:104580000023002249468A60CB6000239B4687E7D0
:104590000B00020002F0F8FB4B469860D9601860EF
:1045A0005960F2E7D322804B520502F0EDFB844ABA
:1045B000844B04000D0002F0E7FB02000B00060034
:1045C0000F002000290002F0DFFB7D4A7D4B02F046
:1045D000DBFB5EE700F070FF7B4A7C4B04000D00C4
:1045E00002F00AF900227A4B01F0AAF803F026F84B
:1045F000834603F05FF8694A694B0290039102F029
:10460000FBF802000B002000290002F0BDFB0400B3
:104610000D0002980399634A634B0494059502F0D8
:10462000EBF80B000200290020000692079302F02D
:10463000ABFB5B4604000D001F2B2FDC5A46654B7D
:10464000013A9200D358BB4228D04B461C605D60B3
:104650000498059922002B0002F096FB069A079B0E
:1046600002F092FB4B4606000F009E60DF6053464F
:10467000002B00DB14E74B461C6080231B06E91867
:104680004B4659609E6080231B069C463B004A4671
:104690006344D3605B465B429B4601E73B1598460B
:1046A00042466B005B0DD31A102BCEDD02980399A6
:1046B000D3223D4B520502F09FF804000D0002008A
:1046C0000B000498059902F05FFB06000F00020042
:1046D0000B00049805990896099702F055FB2200F3
:1046E0002B0002F051FB04000D0002980399344A9C
:1046F000344B02F081F822002B0002F045FB02004F
:104700000B00300039000692079302F03DFB424651
:104710004B005B0D04000D00D31A312B05DC4B461A
:10472000049605971C605D6092E7B8220298039991
:10473000244B920502F060F804000D0002000B000B
:104740000898099902F020FB06000F0002000B00F8
:10475000089809990496059702F016FB22002B0091
:1047600002F012FB04000D00029803991A4A1B4B39
:1047700002F042F822002B0002F006FB02000B00C0
:10478000300039000692079302F0FEFA04000D0093
:104790005BE7C046FB21E93F7BD902400000405463
:1047A000FB21F93F3163621A61B4D03DFB213941ED
:1047B000FFFFEF7FEAFBFFFF0000704190790008E8
:1047C0007370032E8A19A33B83C8C96D305FE43F21
:1047D0000000E03F10790008C14920259A837B3909
:1047E0001C4B00F0ADFF1B4B04000D009F4218D086
:1047F000194A1A4B00F0A4FF02000B0006000F003C
:104800002000290002F0C0FA134A144B00F098FF70
:104810004B461E605F609860D96001235B429B46F7
:104820003EE6D3220D4B520500F08AFF0C4A0D4B99
:1048300004000D0000F084FF02000B0006000F00D2
:104840002000290002F0A0FA054A064B00F078FF8C
:10485000DEE7C046FB21F93F3163621A61B4D03D07
:104860007370032E8A19A33BF0B55746DE464E46B9
:104870004546E0B5C34CA5440D9119001400A49A17
:104880000A93C14B9200D2580B00013B04932300C2
:10489000A59F06900892143300DA18E31821E01E51
:1048A000FBF7AAFC030001339A009B1A0590DB007A
:1048B000E318059A0793049BD41A089AD61813D4C0
:1048C000013622AD361907E0A300F85802F0F2FED7
:1048D000013403C5B44207D0002CF5DA00200021D2
:1048E000013403C5B442F7D1089B002B01DA00F074
:1048F000FEFB0A9922AA8C469346089A72AB624440
:10490000994600930392049B069A9A469046DB00D0
:104910009B44083398440022002348465C46514695
:10492000049D002D00DBEDE1039D01310CC0083436
:10493000A942F5D108990DAA8B00D2180C920EAAA3
:104940009446069A88469346083B63440B93059B1E
:104950009B00FB1805930A9BDB009B444346DB004E
:104960001900009A8C460993130063441E685F681F
:104970004346002B32DD9146844B4344DB0099448F
:104980000EAB9A460022824B3000390001F034FF12
:1049900002F054FE02F08EFE00227E4B04000D0059
:1049A00001F02AFF02000B003000390002F0ECF9A0
:1049B00002F044FE534601C39A464B4620001A6853
:1049C0005B68290000F0BCFE0822524294464B4628
:1049D000009A06000F00E1449A42D3D1079B3000B1
:1049E0001A0039009A4600F06BFDFF2300229B0558
:1049F00004000D0001F000FF00F0DEFD0022664B18
:104A000001F0FAFE02000B002000290002F0BCF9C0
:104A100004000D0002F012FE814602F04BFE02007F
:104A20000B002000290002F0AFF9544606000F00E9
:104A3000002C00DC82E043465A1E92000EAB9858D0
:104A400018210300091B0B4199448B400EA9C31A7E
:104A50008B5017211D00091B0D41002D00DD3CE18D
:104A60000022002330003900FBF7C2FC002800D1EF
:104A7000D8E0089B98450FDD0EAA94460022474BCC
:104A80000C9843449B0063441968043B0A438342E7
:104A9000FAD1002A00D05BE1012343449A46089BE7
:104AA0000EAA013B9B00D358002B00D027E1012226
:104AB0000B9B1968043B01320029FAD013004344D0
:104AC00003930A9B22AA43449046009ADB00944633
:104AD0009844099B634499465346059A9B00D058D5
:104AE00002F0E8FD434618605960049B002B22DB6E
:104AF000474600240025069E3A687B6803CE01F0F5
:104B00007BFE02000B002000290000F019FE083F88
:104B100004000D005E45EFD14B469C60DD60012333
:104B20009C460733E2449C46039BE044E1449A459B
:104B3000D2DD984612E700240025EDE7079B002B05
:104B400000D1AEE00022164BFBF776FC00250028D2
:104B500086D001239C4643460225E144002B00DC1D
:104B6000B2E00EAB1800002241460E9C002C00D192
:104B70008FE0884680214904091B016044460948AA
:104B800015E0C04694FDFFFFD87A0008FFFFFF1F25
:104B90000000703E0000704100002040FFFFFF3F1A
:104BA0000000E03FFFFFFF001968411A1960013261
:104BB00004339442F8DCA0460124079B002B0DDD52
:104BC000012B00D179E1022B08D143465A1E9200F5
:104BD0000EAB9B580EA99B029B0A8B50022D00D056
:104BE0003EE732003B000020BB4902F0CDF8060052
:104BF0000F00002C00D133E7079A0020B64900F0DF
:104C00005FFC02000B003000390002F0BDF8060026
:104C10000F000022002330003900FBF7E9FB0028D9
:104C200000D026E74B460693079B30005A423900D6
:104C3000059500F045FC0022A84B06000F00FBF78D
:104C4000FBFB002800D112E2A54B00223000390006
:104C500001F0D2FD02F0F2FC42460400950002F0A1
:104C600029FD00229D4B01F0C7FD02000B00300022
:104C7000390002F089F802F0E1FC0EAA50514246D8
:104C8000079B013218330392079393000EAAD45066
:104C900079E001320433914200DC0CE118001C6819
:104CA00064E74346013B9B000EAAD558ED15002D45
:104CB00000DCD5E601239C464346E144002B00DDA1
:104CC0004FE7022D00D0CBE632003B0000208249A6
:104CD00002F05AF806000F00C2E601218C46414658
:104CE000E144002900DD3CE70799012900D102E2F7
:104CF0000229E6D19B029B0A0EA98B50E1E753469D
:104D00000393DEE68146A3468A46A5975F460024C4
:104D10000025069E3A687B6803CE01F06DFD020017
:104D20000B002000290000F00BFD083F04000D00DF
:104D30004645EFD14B4630C3994608239C46073B76
:104D4000E3449C46039BE2449A45DFD1A59FF1E5ED
:104D50004B46069343465A1E079993000EA8C35824
:104D60001839059503920791002B0CD184465D4BB1
:104D700043449B0063441868043B013A18390028F7
:104D8000F9D0039207910020079A534900F098FB4D
:104D9000039B04000D00002B00DA9CE19F00DB0068
:104DA0009846009B0EAA94461A0042449346160069
:104DB00099466744386802F07DFC22002B0001F020
:104DC0001BFD474B3060716000222000290001F07C
:104DD00013FD043F330004000D00083E9945E9D15E
:104DE0004AAB9A460493002399465B460093089B7E
:104DF000D3469A46434607935346002B2BDB3A4B48
:104E0000009F98463B000024474600250026984610
:104E100010E041460CC9884603CF01F0EDFC0200CA
:104E20000B002000290000F08BFC013604000D006F
:104E3000B24501DB4E45ECDD5B4630C39B464B463D
:104E4000009A0133083A0092039A914506D0994698
:104E50005346002BD3DA00240025EDE7079B984644
:104E6000A49B022B00DD80E0002B3FDC17D1002546
:104E7000002628003100049C44442268636800F046
:104E80005FFC049A2300083C9A42F6D105000E000C
:104E9000059B002B00D006E10D9B1D605E60072086
:104EA000069B18409B239B009D44F0BCBB46B2462A
:104EB000A946A046F0BD88467FE643465A1E9200AA
:104EC0000EAB9B580EA95B025B0A8B5086E618233B
:104ED00000225B420592EBE40000F03F00007041CD
:104EE0000000703EFEFFFF3F987A00084A9B4B9CF3
:104EF0000025009301940024049E464432687368A0
:104F00002000290000F01CFC049A330004000D006E
:104F1000083E9A42F2D1059B002B00D0C8E00B005E
:104F200002000098019901F02FFF0D9B06001C6004
:104F30005D60039B0F00002B13D00124300039006B
:104F40004CAD0CCD00F0FCFB039B0134A342F8DA1E
:104F5000059B06000F00002B03D0802109067B185B
:104F60001F000D9B9E60DF6099E7A49B032B00D080
:104F700095E7039B002B00D1CBE00822049B524213
:104F800094461C004444E0449C4626686768E0441C
:104F9000C146A3464B4630001C685D6839002200BC
:104FA0002B000096019700F0CBFB02000B000600DF
:104FB0000F002000290001F0E7FE009A019B00F09D
:104FC000BFFB4B469860D9601E605F6008235B4260
:104FD0009C46CA46049BE1449A45DBD1039B5C4650
:104FE000012B00D195E026686768D946434630001A
:104FF0001C685D68390022002B000096019700F0C4
:105000009FFB02000B0006000F002000290001F0AA
:10501000BBFE009A019B00F093FB43469860D96069
:105020001E605F6008235B429C46049BE04443454E
:10503000DCD14C4600200021049D083522686368BD
:10504000083C00F07DFBA542F8D14A9E4B9F049B93
:10505000009601979C68DD68059B002B12D10D9B83
:105060001E605F609C60DD601861596117E7434610
:10507000300039009C0002F0E1FA0EAB18514346B3
:10508000039380E680231B069C460D9E009A019B9D
:105090003260624663447360AB18F3608B18B4608F
:1050A00030617361FBE68021090673181E00F3E688
:1050B00080230D9A1B06CB18106053600B00020072
:1050C0000098019901F060FE039B06000F00002B81
:1050D00000D032E741E7A49B022B14DC002B1BDC41
:1050E000A49B002B00D0DAE600250026D0E672ABA8
:1050F0000093FFF71FFC5B025B0A0EA98B50022D89
:1051000000D0ADE4E0E54AAB0493A49B032B00D0B0
:10511000C5E60020002198E7059B4A9E4B9F002B87
:1051200006D0802300220D991B060A604B6014E70D
:10513000002200230D990A604B6012E7F0B589B098
:1051400002920393F9234E000090019176089B058B
:105150009E4263D202F072FA002800D1D9E0009892
:10516000019902000B0001F047FB04000D006A4AA0
:105170006A4B01F041FB6A4A6A4B00F0E1FA2200F7
:105180002B0001F039FB684A684B01F0FDFD22005D
:105190002B0001F031FB664A664B00F0D1FA220089
:1051A0002B0001F029FB644A644B01F0EDFD220065
:1051B0002B0001F021FB624A624B00F0C1FA220091
:1051C0002B0001F019FB049005910022200029001A
:1051D0005D4B01F011FB049A059B06000F002000B7
:1051E000290001F009FB029A039B04000D000098BE
:1051F000019901F001FB02000B002000290001F0E1
:10520000C3FD02000B003000390001F0BDFD0200BB
:105210000B0000204D4901F0B7FD72E000980199A4
:1052200002000B0001F0E8FA04000D003A4A3B4B83
:1052300001F0E2FA3A4A3B4B00F082FA22002B00DE
:1052400001F0DAFA384A394B01F09EFD22002B00BA
:1052500001F0D2FA364A374B00F072FA22002B00E6
:1052600001F0CAFA344A354B01F08EFD22002B00C2
:1052700001F0C2FA324A334B00F062FA2B002200EE
:1052800001F0BAFA324B049005919E429DD9314B00
:1052900000229E4237D83049002073182B4916004F
:1052A0001F0001F071FD06900791002220002900E7
:1052B000254B01F0A1FA32003B0001F065FD049A94
:1052C000059B06000F002000290001F095FA029AC4
:1052D000039B04000D000098019901F08DFA020073
:1052E0000B002000290001F04FFD02000B003000F0
:1052F000390001F049FD02000B000698079901F002
:1053000043FD09B0F0BD154B002606920793144FDC
:10531000CBE700200D49F4E7D43888BEE9FAA8BDF0
:10532000C4B1B4BD9EEE213EAD529C804F7E923EF4
:105330009015CB19A001FA3E7751C1166CC1563FAA
:105340004C5555555555A53F0000E03F0000F03F36
:105350003233D33F0000E93F0000E0FF0000E73FA9
:105360000000D23FF0B589B002920393F9224B00BE
:1053700006000F005B089205934206D202F05EF928
:10538000390003003000002B48D032003B003000D1
:10539000390001F031FA04000D0002000B0030006A
:1053A000390001F029FA374A00900191364B20006C
:1053B000290001F021FA354A354B01F0E5FC2200C5
:1053C0002B0001F019FA334A334B00F0B9F92200EF
:1053D0002B0001F011FA314A314B01F0D5FC2200CB
:1053E0002B0001F009FA2F4A2F4B00F0A9F90B000E
:1053F00002000E9904920593002911D12000290082
:1054000001F0FAF9294A2A4B01F0BEFC009A019BEF
:1054100001F0F2F932003B0000F092F909B0F0BD62
:10542000002202980399234B01F0E6F9049A059BA8
:10543000069007910098019901F0DEF902000B0037
:105440000698079901F0A0FC22002B0001F0D4F986
:10545000029A039B01F098FC144A04000D00009886
:105460000199134B01F0C8F902000B00200029003C
:1054700000F066F902000B003000390001F084FCF6
:10548000CCE7C0467CD5CF5A3AD9E53DEB9C2B8A78
:10549000E6E55A3E7DFEB157E31DC73ED561C11911
:1054A000A0012A3FA6F810111111813F4955555509
:1054B0005555C53F0000E03F49004B0819007047B3
:1054C0004B0070B55B0D14000A00002B25D14B007A
:1054D0005B08034320D02B4B002201F08DF92A4BAF
:1054E0009C423CDB0A004B005B0D363B274DAC4237
:1054F0001BDCE418264B9C4217DC002C29DC230023
:10550000353331DB234B36341A4024051443210054
:105510000022214B01F070F970BD204DAB42E5D166
:1055200002000B0000F00CF9F6E71D4C1D4D0029A0
:1055300006DB200029001A4A1A4B01F05DF9EBE75F
:10554000174C194D20002900154A164B01F054F94B
:10555000E2E7104B2405134023431900DCE7134A0C
:10556000134B01F049F9D7E7104C114D002906DB28
:10557000200029000D4A0E4B01F03EF9CCE70B4C00
:105580000C4DF5E700005043B03CFFFF50C3000056
:10559000FE070000FFFF0F800000903CFF070000A7
:1055A0009C7500883CE4377E3CE437FE59F3F8C232
:1055B0001F6EA5011F6EA581F0B54F464646D64623
:1055C0003E4A4B005B0DC0B59E1804000D000F0055
:1055D00089468046132E24DC002E47DB384B3341AE
:1055E0009A460B40034317D0364A374B00F0A8F8D1
:1055F00000220023FAF716FF00280BD0002D04DA52
:1056000080235B0333419946A94453464F469F4349
:105610000023984639004046E0BCBA46B146A84649
:10562000F0BD332E08DD8023DB009E42F4D1020062
:105630000B0000F085F8EFE7244A9446012263440A
:105640005242DA4091460242E6D01E4A1E4B00F01A
:1056500077F800220023FAF7E5FE0028DAD02300CD
:10566000002D1BDB4A4693439846D3E7154A164B59
:1056700000F066F800220023FAF7D4FE0028C9D013
:10568000002D03DB002300279846C3E76B005B086F
:10569000234398460DD180273F06BBE7142E06D042
:1056A00034210122891B8A40A3189C42DAD96F1C3D
:1056B000D8E70023064F9846ACE7C04601FCFFFF41
:1056C000FFFF0F009C7500883CE4377EEDFBFFFF79
:1056D0000000F0BF58220120014B40421A60704781
:1056E000EC040020F0B5CE469946030C9C4613040A
:1056F00047461B0C1D000E0061460404240C80B5B7
:105700000700100C4B436543414360432C0CC01809
:1057100024188C46A34203D980235B029846C444D4
:10572000494679435643230C2D042D0C89196344B3
:1057300024046019C918C0BCB946B046F0BDC046C3
:10574000F0B54F464646D646C0B50D0382B000922E
:1057500001934E00C300CC0F690A450F9C46009A86
:10576000019B0D435F001903D80F009B490A5B0F93
:105770001943009B760D7F0DDA00F31B844258D04D
:10578000002B13DD002F00D088E00800104300D16B
:1057900059E1581E012B00D1C2E2B14FBB4200D1EA
:1057A00041E1382800DD6AE2030064E1002B00D10A
:1057B000B1E0BB1B002E00D0E1E164462C4300D1D8
:1057C00076E25C1E012B00D1E8E2A54EB34200D187
:1057D000B7E2382C00DC6BE3541EA24292415242E5
:1057E0008D1AA0461E0004002A0268D443461F1DDD
:1057F00047459B415B42ED182B0200D49DE3984A3C
:105800000136964200D1EBE0964A73052A405B0DC3
:105810005107FF0852020F43120B1B051343E40705
:1058200023433800190002B0E0BCBA46B146A8468E
:10583000F0BD002B00DCD7E0002F00D09AE008007C
:10584000104300D1FFE0581E012B00D148E2844FE5
:10585000BB4200D1E7E0382800DCB8E28022120425
:10586000154200D149E31E000023150098467C4BE9
:1058700001369E4200D1B3E07A4B01211D404346E0
:105880005A081940EF070A4317436D087B07B3D046
:105890000F233B40042BAFD0B846A7E770488642A1
:1058A00000D1C0E0382B00DCE2E001235B4263441E
:1058B0009C45804140422D1A98462B0296D50123E3
:1058C0005B429846684D2800FAF7C0FD0300083B8C
:1058D00020214046CA1AD040020040469D409840D0
:1058E0002A438046B34200DA72E1981B43460130F6
:1058F000091A45468B40C5405E1EB34117008F40D4
:105900002B431F43C2403B00150000261343BDD16B
:105910000027002281E7554F731C3B4200D01BE15A
:1059200063460F002B431743002E00D0C4E1002B29
:1059300000D145E2002F00D107E163469B1A98464B
:10594000C445B6416B1A76429B1B8026360433420F
:1059500000D1CBE26346D31A9A4292411F00491B01
:1059600052428A1A9C46174300D0EDE204000023FD
:10597000002252E73A48864255D0382B00DD48E1F4
:105980008020000401431F2B00DDE3E12027F81AEB
:10599000824608005746B840814610004F46D8401E
:1059A000074338005746BA40D940571EBA416D18D0
:1059B000104360448046E045804140422D182B0250
:1059C00000D554E743465B0700D1B9E20F234246B6
:1059D0001340042B00D009E733004246D20834E0DC
:1059E00033000022002718E7002B00D18FE0BB1BFB
:1059F000002E00D033E16046284300D140E2581E1B
:105A0000012B00D10AE2164EB34200D185E23828BC
:105A100000DC87E280252D04294200D19CE21E0093
:105A20000023984623E763466E07D8080643ED082F
:105A300037002F4311D0802212032A43120337006C
:105A4000074B120BE9E66246D2086E071643044A7A
:105A5000ED089342ECD03700D6E0014B0022DCE6A3
:105A6000FF070000FFFF7FFFFFFF7F00FE07000032
:105A70008020000401431F2B00DDB1E02027F81A2D
:105A8000824608005746B840814610004F46D8402D
:105A9000074338005746BA40D940571EBA416D1ADD
:105AA000104363461B1A9C458041984640422D1A7C
:105AB0002B0287D56D026D0A002D00D003E740460A
:105AC000FAF7C4FC030018331F2B00DC00E7424642
:105AD000083882409E4200DD91E09B1B581C1F2825
