:020000040800F2
:1000000000300020993C0008893900088B3900082D
:1000100000000000000000000000000000000000E0
:100020000000000000000000000000008D39000802
:1000300000000000000000008F390008913900081E
:10004000E93C000800000000E93C0008E93C000829
:10005000E93C0008E93C0008E93C0008993900083F
:1000600000000000A5390008E93C0008E93C000850
:10007000E93C0008E93C0008E93C000800000000F9
:10008000E93C00080000000000000000B53900084D
:1000900000000000E93C0008E93C0008E93C0008D9
:1000A00000000000E93C000800000000E93C0008F6
:1000B000C53900080000000000000000000000003A
:1000C00002780B78002A03D0013001319A42F7D030
:1000D000D01A70470023C25C0133002AFBD1581E9E
:1000E0007047000003B47146490840004900095EAA
:1000F00049008E4403BC7047002243088B4274D3EE
:1001000003098B425FD3030A8B4244D3030B8B4218
:1001100028D3030C8B420DD3FF22090212BA030C21
:100120008B4202D31212090265D0030B8B4219D302
:1001300000E0090AC30B8B4201D3CB03C01A524122
:10014000830B8B4201D38B03C01A5241430B8B426A
:1001500001D34B03C01A5241030B8B4201D30B0353
:10016000C01A5241C30A8B4201D3CB02C01A52417A
:10017000830A8B4201D38B02C01A5241430A8B423D
:1001800001D34B02C01A5241030A8B4201D30B0226
:10019000C01A5241CDD2C3098B4201D3CB01C01A40
:1001A000524183098B4201D38B01C01A524143094A
:1001B0008B4201D34B01C01A524103098B4201D338
:1001C0000B01C01A5241C3088B4201D3CB00C01AA5
:1001D000524183088B4201D38B00C01A524143081D
:1001E0008B4201D34B00C01A5241411A00D2014642
:1001F000524110467047FFE701B5002000F0F0F8CB
:1002000002BDC0460029F7D076E7704703460B438E
:100210007FD4002243088B4274D303098B425FD3FF
:10022000030A8B4244D3030B8B4228D3030C8B422B
:100230000DD3FF22090212BA030C8B4202D3121211
:10024000090265D0030B8B4219D300E0090AC30BE6
:100250008B4201D3CB03C01A5241830B8B4201D393
:100260008B03C01A5241430B8B4201D34B03C01A7C
:100270005241030B8B4201D30B03C01A5241C30AF4
:100280008B4201D3CB02C01A5241830A8B4201D365
:100290008B02C01A5241430A8B4201D34B02C01A4F
:1002A0005241030A8B4201D30B02C01A5241CDD2F4
:1002B000C3098B4201D3CB01C01A524183098B423F
:1002C00001D38B01C01A524143098B4201D34B0128
:1002D000C01A524103098B4201D30B01C01A52418B
:1002E000C3088B4201D3CB00C01A524183088B4212
:1002F00001D38B00C01A524143088B4201D34B00FB
:10030000C01A5241411A00D201465241104670476C
:100310005DE0CA0F00D04942031000D34042534071
:1003200000229C4603098B422DD3030A8B4212D331
:10033000FC22890112BA030A8B420CD38901921163
:100340008B4208D3890192118B4204D389013AD0A0
:10035000921100E08909C3098B4201D3CB01C01A75
:10036000524183098B4201D38B01C01A5241430988
:100370008B4201D34B01C01A524103098B4201D376
:100380000B01C01A5241C3088B4201D3CB00C01AE3
:10039000524183088B4201D38B00C01A5241D9D2FB
:1003A00043088B4201D34B00C01A5241411A00D27C
:1003B0000146634652415B10104601D34042002B78
:1003C00000D54942704763465B1000D3404201B5F7
:1003D000002000F005F802BD0029F8D016E77047AC
:1003E0007047C046844608006146FFE71FB505F028
:1003F000A9FD002801D40021C8421FBD10B505F099
:1004000031FD4042013010BD10B505F09BFD0028C4
:1004100001DB002010BD012010BDC04610B505F065
:1004200091FD002801DD002010BD012010BDC04657
:1004300010B505F03FFD002801DC002010BD0120B3
:1004400010BDC04610B505F035FD002801DA0020CA
:1004500010BD012010BDC0461C2101231B04984281
:1004600001D3000C10391B0A984201D3000A083945
:100470001B09984201D30009043902A2105C4018FC
:100480007047C046040302020101010100000000A0
:100490000000000010B5064C2378002B07D1054B57
:1004A000002B02D0044800E000BF0123237010BDE0
:1004B0006800002000000000D45F0008044B10B565
:1004C000002B03D00349044800E000BF10BDC04624
:1004D000000000006C000020D45F0008BFF34F8FC5
:1004E000034B044ADA60BFF34F8FC046FDE7C046B6
:1004F00000ED00E00400FA0510B588B003AC14224A
:100500000021200003F056FD104B596B04221143CB
:100510005963596B0A400092009A596B202211438B
:100520005963596B0A400192019A596B0122114398
:1005300059635B6B13400293029B03920592A020C8
:100540002100C00501F0D6FA08B010BD001002402D
:1005500000B583B0094A916B012319439163926BF3
:1005600013400193019B00220021092001F08AF829
:10057000092001F08BF803B000BDC0460010024016
:1005800030B591B000F01AFB002800D09AE00124A9
:1005900009AD1C220021280003F00CFD14220021CB
:1005A00004A803F007FD49490B6807229343063A64
:1005B00013430B60099280235B020A93280001F029
:1005C0005BFC002800D0022404A807230493063B08
:1005D000436000238360C3600361012101F0D8FD03
:1005E000002800D00224FFF787FFFFF7B1FF0C229D
:1005F000002101A803F0DEFC3548364B0360802360
:10060000DB05436000238360C36080221206026121
:100610000422426103764376033A8276C2614362E2
:1006200083622C214254036343633B328354C3648B
:1006300000F0F4FA002800D0022401A9264B01930F
:1006400001234B60224800F05DFC002800D002240A
:100650002248234B036096239B0143600023836061
:10066000C36003610C2242618361C3610362436220
:10067000836203F06BF8002800D0022419481A4B5B
:1006800003601A4B436000238360194AC260036110
:10069000836102F04FF8002800D00224002003F00C
:1006A000BBFC03F057FB0A4800F0E2FE00280BD128
:1006B000002003F08FF90121002003F025FA20002B
:1006C00011B030BD022463E70224F1E700200240AC
:1006D000C40300200024014002000004880200201E
:1006E000004400401C030020002000407FBB0000AD
:1006F000E703000010B508490848012203F010F98B
:10070000002003F049FA002801D0072010BDC830AE
:1007100000F072FA0320F9E70402002088020020AA
:1007200010B50400FFF7D6FC82B20248210002F0A7
:1007300041F910BD8802002010B5034B584303490E
:10074000FFF764FD80B210BD88130000FF0F0000AA
:10075000F8B5061C0F1C002500240DE003F028FB53
:1007600005F030FBC021890504F078FF011C201C36
:1007700004F066FD041C0135052DEFDD0549201C44
:1007800005F0BEF8391C04F069FF311C04F058FD77
:10079000F8BDC04600004040F0B5DE4657464E4624
:1007A0004546E0B595B0002003F056F9564B0022BF
:1007B0001A80564B1B78002B57D007239946544B71
:1007C0001888FFF7B9FF04000290A0200121C0059E
:1007D00001F06EFA050003904E4B1E78F3071AD510
:1007E0004D4B9A461F884D4B7A0093469846D05AF7
:1007F000201A4B4B1A68801818609621FFF77CFC72
:10080000414B188043465A46D4520137BFB2534633
:100810001F80962F39D0B6073AD43E4B1B78002B59
:1008200002D1394B00221A803E4A04AC0195364B66
:100830001B880093029B4021200003F057FA200000
:10084000FFF76EFF039B012B33D0374B00221A605A
:10085000002003F0A1F9002847D0484615B0F0BCAD
:10086000BB46B246A946A046F0BD29492F484032B2
:1008700000F018FD002805D107239946234B0122DB
:100880001A709CE702239946F8E700221A80C2E713
:10089000200005F097FA041C25490020FFF758FFB7
:1008A000011C201C04F0CCFC04F0B2FC83B20293C7
:1008B000B3E71D4B1B68002B04D100F097F91A4BCE
:1008C0001860C5E700F092F9174B1B68C01A194B66
:1008D0009842BDD9154800F089FD0C4B00221A70D2
:1008E000114B1A6004239946B2E7104800F07EFDD0
:1008F000064B00221A70002003F0D0F8C82000F048
:100900007BF905239946A8E7C001002005020020D5
:1009100008020020850000209000002094000020A4
:100920008C000020EC5F000888000020C403002039
:100930000000C8428713000010B5431E0348026838
:10094000D362C36001F0ACFD10BDC0461C030020A3
:1009500010B5C820FFF7F0FF0748FFF7E1FE0020C1
:1009600003F01AF9002801D0072010BDC83000F0AC
:1009700043F9FFF7B3FDC046F85F000810B5024821
:1009800001F0C2FD10BDC0461C03002010B50D4B88
:1009900000221A60FA208000FFF7CEFF0A490B48B8
:1009A000012202F0BDFF002003F0F6F8002801D07C
:1009B000072010BDFFF7E2FFC82000F01DF903205B
:1009C000F7E7C046880000200402002088020020CB
:1009D00010B5FFF7D3FF002003F060F80748FFF7DA
:1009E0009FFE002003F0D8F8002801D0072010BD9A
:1009F000C83000F001F90120F9E7C04600600008A6
:100A000030B591B004002149FFF75AFB002811D0FE
:100A10001F492000FFF754FB002817D11D4A137807
:100A200001214B40DBB21370DB070BD51A48FFF7EF
:100A300077FE05E01948FFF773FE164B00221A7087
:100A400011B030BD1648FFF76BFEF9E715492000DD
:100A5000FFF736FB00280FD10E4A137802214B40D6
:100A6000DBB213709B0703D50F48FFF759FEE7E78A
:100A70000E48FFF755FEE3E70D4A23004021684684
:100A800003F034F96846FFF74BFED9E70C60000825
:100A90002860000885000020386000081060000809
:100AA0004C600008646000087460000888600008FA
:100AB0009C60000810B50400044B8200D35898478E
:100AC000072800D010BD2000FCE7C046B460000835
:100AD00010B5034C2078FFF7EDFF2070F9E7C04612
:100AE0008400002010B50268034B9A4200D010BD6C
:100AF000002002F0F5FFFAE70020004070470000F8
:100B000070B50268104B9A4200D070BD0F4B1B7835
:100B10000D2B0BD00A2B09D00D4A12883E2A0DD876
:100B20000B49501C08800B498B5407E0084C238864
:100B300008480025C554FFF763FF25800349064890
:100B4000012202F0EDFEE0E7004400400402002034
:100B5000C2010020C401002088020020704772B644
:100B6000FEE7000010B50400114B1978002901D1EF
:100B7000012010BDFA208000FFF7BEFA01000D4BE6
:100B80001868FFF7B9FA00F08DFD00280DD1032C8D
:100B900001D90120EDE7013000222100404200F0A0
:100BA00071FD054B1C600020E3E70120E1E7C04632
:100BB00000000020080000200400002010B50320E1
:100BC000FFF7D0FF041E02D00124200010BD01F069
:100BD00085F8FAE7034B1B78034A11685B1813602A
:100BE0007047C0460000002028040020014B186810
:100BF0007047C0462804002070B50400FFF7F6FFD8
:100C00000500631C02D0044B1B78E418FFF7EEFFCD
:100C1000401BA042FAD370BD0000002030B583B065
:100C2000040000230193002800D105E1836D002B0F
:100C300012D023689A68D2001BD499687F4A114069
:100C4000802252050A439A607D4B18687D49FFF760
:100C500053FA4000019009E001F058F80023E365E1
:100C60005422A354E5E7019B013B0193019B002B18
:100C7000F9D123689A68D20000D59DE0A26D1021B9
:100C80000A43A265E26D0F390A43E26501209A68C2
:100C900004210D001540114200D00125A26DD2069D
:100CA00000D5C2E0002D00D0BFE0A26D66490A4029
:100CB0000631FF310A43A2659A68D20752D4A2686E
:100CC000217E89030A43617EC9030A43A57E690325
:100CD0000A43216B002901D0802149010A43E168C0
:100CE0000A432169002969DB802189030A432C21F9
:100CF000615C49000A432021615C012961D0616A7D
:100D0000002905D0E0256D002940A56A29430A4342
:100D1000D9684E4D29400A43DA6063689B0F9B07F0
:100D2000E26C1A433C21615C012959D021680B69AE
:100D3000474D2B4013430B616368C0221206934258
:100D400010D08022D20593420CD08022120693420A
:100D500008D040490A68404D2A40F025AD032B4099
:100D600013430B602168636B4A690725AA43134349
:100D70004B612168A26B4B696935AB431201134388
:100D80004B612369002B35D12268916A103B0B43DC
:100D9000936223685A6907231340626B9A423BD0DF
:100DA000A36D12229343023A1343A365E36D0F3AF6
:100DB0001343E36501203DE0002068E7490049084E
:100DC00094E7002D03D1802149020A4397E7A16DE2
:100DD00020252943A165E16D1F3D2943E1658EE78B
:100DE000216C0B43616C0B43A16C0B431343012239
:100DF0001A439BE7802292039342CAD121688B6AEF
:100E0000E369013B9B001C221A4010235B42934084
:100E1000226E13438B62BCE70023E365A36D0322BC
:100E20009343023A1343A36504E0A36D10221343D6
:100E3000A365012003B030BD0120FBE7E8FFFF6F91
:100E400008000020400D0300FDFEFFFF0102DEFF51
:100E500002FCFF1F08270140FFFFC3FF704710B5CA
:100E6000806AFFF7FBFF10BD704710B5806A836D85
:100E7000402213438365C36D3C3A1343C365FFF7B8
:100E8000F3FF10BD10B50300806A826D502111423E
:100E90002AD1826D80239B00134383650368D96840
:100EA000C0221201114213D1827E002A10D11A6889
:100EB00012070DD59A6852070DD45A680C218A433F
:100EC0005A60836D0E4A13400432FF321343836528
:100ED000FFF744FE10BD836D202213438365C36D6D
:100EE0001F3A1343C365F3E7826DD20604D4026D43
:100EF000526B18009047EDE7FFF7B6FFEAE7C046F0
:100F0000FEFEFFFFF0B583B00400002301930569E6
:100F10005433C35C012B00D121E154230122C2547C
:100F200000688368033216001E401A4209D0A36D80
:100F30001C321343A365012054230022E25403B062
:100F4000F0BD4B68022B00D1D5E0802212069542FD
:100F500025D0844A954222D0226E1F271F400F259C
:100F6000BD40AA430B685D022FD19B0E1F261E4079
:100F7000BE40324322664D68AB080133E2699342BA
:100F800013D80E68826A1F231D40103B1F00AF401C
:100F9000BA43B60E3340AB401343836205E00B689F
:100FA000826A5B025B0A1343836220680B688D6868
:100FB00042691B029A432B406B4D2B401343436104
:100FC0000B68002B5FDB0020B6E7DD07D0D49D0760
:100FD0002FD45D072FD41D072FD4DD062FD49D06F7
:100FE0002FD45D062FD41D062FD4DD052FD49D05EB
:100FF0002FD45D052FD41D052FD4DD042FD49D04DF
:101000002FD45D042FD41D042FD4DD032FD49D03D2
:101010002FD45D032FD41D032FD4DD022FD49D02C6
:101020002FD48025ED031E002E402B42A0D0162683
:101030009EE701269CE702269AE7032698E7042606
:1010400096E7052694E7062692E7072690E7082606
:101050008EE709268CE70A268AE70B2688E70C2606
:1010600086E70D2684E70E2682E70F2680E7102606
:101070007EE711267CE712267AE7132678E7142606
:1010800076E7152674E7394A1168C02212040A402F
:101090003748834204D0374883421FD000204BE7B3
:1010A0000802F8D480231B04134330490A683248ED
:1010B000024013430B60314B18683149FFF71CF8AD
:1010C00043001B189B000133019302E0019B013B8D
:1010D0000193019B002BF9D100202DE749023CD45C
:1010E0008023DB03134321490A682348024013434A
:1010F0000B60002020E780231B069D4202D0194B85
:101100009D4205D10B68826A5B025B0A9A43826248
:101110000B68002B01DB00200EE7144A126814490B
:101120008B4204D013498B420CD0002004E780236B
:10113000DB031A400D490B680F4803401A430A604D
:101140000020F9E680231B041A4008490B680A486E
:1011500003401A430A600020EEE60020ECE602207D
:10116000EDE6C0460400008000FFFF7F0827014035
:10117000000200A4000400A8FFFF3FFF08000020B9
:10118000400D030070B50400026893685B0720D52A
:1011900093689B0705D493680F490B4010210B43BC
:1011A0009360FFF723FD050023689B685B070ED55E
:1011B000FFF71CFD401B0228F6D9A36D1022134334
:1011C000A365E36D0F3A1343E365012002E00020BD
:1011D00000E0002070BDC046E8FFFF7F30B583B05F
:1011E00004000023019303689A68D2074DD49968DC
:1011F000274A114217D19A6826490A4001210A4319
:101200009A60254B1B681B0217D5244B186824498C
:10121000FEF772FF01300190019B002B0DD0019B66
:10122000013B0193F8E7836D102213438365C36D7F
:101230000F3A1343C365012028E0637E012B01D1DF
:10124000002023E0FFF7D2FC050004E0FFF7CEFC0E
:10125000401B02280DD823681A68D20713D49A6855
:10126000D207F3D49A680B490A4001210A439A60D5
:10127000ECE7A36D10221343A365E36D0F3A13430C
:10128000E365012002E0002000E0002003B030BD53
:1012900017000080E8FFFF7F0827014008000020BA
:1012A000400D030070B504000D001600026893683D
:1012B0005B0747D45423C35C012B45D00123542141
:1012C0004354D1680B420DD19368DB0705D5936871
:1012D0001E490B4002210B4393602268D368012111
:1012E0000B43D3602000FFF779FF00282BD1A26DBC
:1012F000174B1A4080235B001343A3650023E3656B
:10130000226D1449D162226D13491163226D134974
:10131000516322681C2111605422A354226853682F
:101320000C390B43536021684031206D33002A0093
:1013300000F068FA2268936804490B4004210B43CB
:10134000936000E0022070BD0220FCE7E8FFFF7F11
:10135000FEF0FFFF850E00085F0E00086B0E000810
:1013600070B5040003689A68022108001040114219
:1013700000D001209A68D20731D5002831D1996870
:1013800005220A40012A09D0A36D10221343A36548
:10139000E36D0F3A1343E365012021E09A68124997
:1013A0000A4002210A439A60236803221A60FFF769
:1013B0001DFC050023689B68DB070ED5FFF716FCB4
:1013C000401B0228F6D9A36D10221343A365E36DD9
:1013D0000F3A1343E365012002E0002000E0002003
:1013E00070BD0020FCE7C046E8FFFF7F70B5040039
:1013F0005423C35C012B36D054230122C254FFF77F
:10140000C1FE051E1DD1206D2523C35C022B1DD0FE
:101410002268536810218B435360002D1FD1200098
:10142000FFF79EFF0500002D06D1A36D0F4A134064
:101430000432FF321343A3652268D36801218B4332
:10144000D36054230022E254280070BD00F02AFA31
:10145000051EDDD0A36D40221343A365D8E720000D
:10146000FFF77EFFDFE70225EEE7C046FEFEFFFF47
:10147000F0B583B00400002301935433C35C012B07
:1014800000D1A6E001265423C654FFF769FF0500EA
:1014900023689A6831001140164209D0A36D1022CA
:1014A0001343A36554230022E254280003B0F0BD87
:1014B000A26D494802400630FF300243A265DE6853
:1014C000464A1640DA6846480240DA60080006E0FC
:1014D000B4229A587F2313400133C01801310729E1
:1014E0001DD82768BA683F4B1A4018331343BB60B6
:1014F00023689A68002AEBDA019B01330193019A71
:10150000AE239B029A42F3D3A36D12229343023A75
:101510001343A36554230022E2540125C5E74B0879
:101520001818FEF7E9FD226893682E490B40012147
:101530000B439360226811698023DB05994217D21F
:10154000294B1B68F02189030B40E02149038B42A2
:101550000ED39B0C033B012199400091009B5B083B
:10156000009302E0009B013B0093009B002BF9D10C
:10157000B42153587F27BB431843505022689368C7
:1015800018490B4002210B439360FFF72FFB070024
:1015900023689A68D20709D4DA683243DA60A36D07
:1015A00003229343023A1343A3657BE7FFF71EFB35
:1015B000C01B0228ECD923689B68DB07E8D5A36D24
:1015C00010221343A365E36D0F3A1343E36501252E
:1015D0006BE7022569E7C046FDFEFFFF03800000C0
:1015E000FC7FFFFFE8FFFF7F0827014070B5002860
:1015F00011DB8308134DC0339B005C59032210405C
:10160000C000FC3216008640B44389010A40824083
:1016100022435A5170BD0F230340083B9B080633F9
:101620009B00094A944663445C6803221040C00052
:10163000FC3215008540AC4389010A4082402243B8
:101640005A60E7E700E100E000ED00E001388023A8
:101650005B0498420FD2094A50600948036A1B0292
:101660001B0AC02109060B43036200239360073362
:101670001360002070470120FCE7C04610E000E046
:1016800000ED00E010B5FFF7B1FF10BD002805DB4D
:101690001F22024001239340014A13607047C04655
:1016A00000E100E010B5FFF7D1FF10BDF0B5846C8C
:1016B000C56C6560046D002C02D0446D856D65605D
:1016C0000B4F7C68056C1C262E400125B5402C4331
:1016D0007C60046863608368102B04D003689960A1
:1016E0000368DA60F0BD03689A600368D960F9E7BF
:1016F0000000024010B504000368FF2018400838BD
:101700001421FEF7F9FC236C9B08064A94466344B7
:101710009B006364044BA3641C2318401B3B834061
:10172000E36410BD00820010800802404268FF237D
:101730001340064A9A1892000265054A4265013B29
:1017400003221A4001239340836570473F820010B3
:101750004009024070B5041E4DD00568274BE818BB
:101760001421FEF7C9FC8000206425230222E254E4
:101770002B68234A13402B6021680A68A368E0683D
:1017800003432069034360690343A0690343E0699D
:101790000343206A034313430B602000FFF7AAFFB3
:1017A000A2688023DB019A4218D06168626CFF2333
:1017B0000B401360A36CE26C5A606368013B032B1F
:1017C0000FD9002323656365A3650023E363252206
:1017D0000121A154013AA354002070BD002363608D
:1017E000E3E72000FFF7A2FF236D00221A60636D7C
:1017F000A26D5A60E9E70120EFE7C046F8FFFDBFA0
:101800000F80FFFF70B504002420205C012846D023
:101810002420012525540130205C012807D02423F1
:101820000022E254022024230022E25470BD24301E
:10183000013525540020E063256828680126B0435F
:1018400028602000FFF732FF236B002B1CD022689A
:1018500013680E210B431360626C1368DB0304D51D
:10186000116880235B000B431360236D002B04D0B1
:101870001968802252000A431A6022681368012105
:101880000B4313600020CEE72268136804218B43CA
:1018900013602268136806310B431360DCE70220F3
:1018A000C4E7000030B5002836D02523C35C022BE6
:1018B00006D00423C36320330022C254012030BD6C
:1018C000026813680E218B431360426C136813493E
:1018D0000B40136001680A6801239A430A60104CA8
:1018E0006268056C1C2129408B4013436360836C44
:1018F000C26C5A60036D002B06D01A6807490A4073
:101900001A60436D826D5A6025230122C254013B47
:101910000022C2540020D2E70120D0E7FFFEFFFFE3
:101920000000024070B524230022C2540132C25488
:101930000133C35C022B03D00423C363012070BDB9
:10194000026813680E218B43136001680A68012343
:101950009A430A60416C0A68124C22400A60124C99
:101960006268056C1C2129408B4013436360836CC3
:10197000C26C5A60036D002B06D01A6809490A40F0
:101980001A60436D826D5A6025230122C254013BC7
:101990000022C254836B002B02D098470020CEE770
:1019A0000020CCE7FFFEFFFF0000024070B5314B86
:1019B000196804682568026C1C23134004229A40AD
:1019C000114216D06A0714D523689B0603D42368F6
:1019D000042293432360274C6368026C1C2111404E
:1019E00004228A4013436360036B002B00D09847A6
:1019F00070BD02229A4011421CD0AA071AD5236852
:101A00009B0606D423680A22934323602523093AC0
:101A1000C254184C6368026C1C21114002228A4097
:101A20001343636024230022C254C36A002BDFD017
:101A30009847DDE708229A401142D9D02D07D7D523
:101A400023680E22934323600A4C6268036C1C21B6
:101A5000194001231D008D402A436260C363252283
:101A6000835423330022C254436B002BC0D09847C9
:101A7000BEE7C04600000240012907D0022908D075
:101A8000002909D14260826008007047426000204E
:101A9000FBE782600020F8E70120F6E7002802D08B
:101AA0000160002070470120FCE7000070B50600CF
:101AB0000268140C01252C401F2313409D40640133
:101AC0000A4BE3181A68154204D01D604368002BC6
:101AD00000D09847064B9C46644423681D4204D0BE
:101AE0002560B368002B00D0984770BD0C180240E9
:101AF00010180240F0B5D6464F464646C0B5002302
:101B00003BE0052500E00025A5402C003C43634D4B
:101B10001832920054518022AF584A46D2433D00B9
:101B20004C46A5434C68E40302D53D004C46254392
:101B30005A4C8027E551842567593D0015404C6873
:101B4000A40302D53D004C462543544C8427E5515F
:101B500027683D0015404C68E40202D53D004C4624
:101B600025434E4C256065682A404C68A40201D587
:101B70004A462A43494C626001330C682200DA402D
:101B800000D186E001229A4026001640B146144258
:101B9000F2D04C68022C01D0122C18D1DD08083587
:101BA000AD002C58A44607271F40BF000F24A246B3
:101BB0002600BE40B04666464446A643B4460C697D
:101BC000564626403400BC40664634432C500468D8
:101BD000A4465D000324A2462700AF40B846FF4359
:101BE00066464446A643B4464C68564626403400F2
:101BF000AC406646344304604C68661E012E03D92F
:101C0000112C01D0122C12D184683C40A446CC681F
:101C1000AC40664634438460446894434A68120981
:101C200094460122664632409A40224342604A6806
:101C3000032A05D0C4683C408A68AA402243C26097
:101C40004A68D20098D59A0814001834A400134D9D
:101C5000675903241C40E4000F25A540AF43A0258D
:101C6000ED05A84200D14EE70D4DA8420BD00D4D19
:101C7000A8420AD00C4DA84209D00C4DA84200D170
:101C80003FE7062540E701253EE702253CE703251F
:101C90003AE7E0BCBA46B146A846F0BD001802409B
:101CA0000004005000080050000C005000140050C8
:101CB00003690B4201D0012070470020FCE7002A95
:101CC00001D0816170478162FCE7426913000B40DB
:101CD0001B0491430B4383617047000082B00A4BA1
:101CE000196C012211431964196C0A400092009A80
:101CF000DA6B802149050A43DA63DB6B0B40019301
:101D0000019B02B07047C0460010024030B58FB052
:101D100004001422002109A802F04CF91C22002121
:101D200002A802F047F92268234B9A4201D00FB073
:101D300030BD2023029302A800F018FB002835D103
:101D40001E4B1A6C802149030A431A641A6C0A401C
:101D50000092009A596B0122114359635B6B1A4040
:101D60000192019B09A90223099301334B600025CD
:101D70008D60A020C005FFF7BDFE1148114B036028
:101D8000052343608560C5607B3303618033436115
:101D90008023DB0083612023C3610562FFF7DAFC47
:101DA000002806D1064B23659C62C0E7FEF7D7FEEC
:101DB000C6E7FEF7D4FEF5E700240140001002401C
:101DC000680300200800024000B583B002680C4B95
:101DD0009A4201D003B000BD0A4B1A6C802109025F
:101DE0000A431A641B6C0B400193019B00220021E3
:101DF0001320FFF747FC1320FFF748FCEAE7C04633
:101E0000002000400010024010B588B004001422E9
:101E1000002103A802F0CEF82268154B9A4201D0A7
:101E200008B010BD134BDA6B802189020A43DA63D4
:101E3000DA6B0A400192019A596B012211435963EE
:101E40005B6B13400293029B03A90C2303930A3B91
:101E50004B600A61A020C005FFF74CFE0022002164
:101E60001C20FFF70FFC1C20FFF710FCD8E7C04632
:101E7000004400400010024070B5041E00D139E15A
:101E80000368DB072CD5A14B9A6838231340082B35
:101E900022D043688022520293422ED0A022D20246
:101EA000934231D0994B1A6899490A401A601A68CE
:101EB00098490A401A606368002B31D0FEF796FEFD
:101EC0000500924B1B689B030AD4FEF78FFE401B54
:101ED0006428F6D903200EE14368002B00D10BE102
:101EE00023689B0747D5894B9B6838221A4261D1EA
:101EF000E368002B22D10120FDE0844A1168802391
:101F00005B020B431360D6E7804B19688022D20234
:101F10000A431A601968802252020A431A60CAE70B
:101F2000FEF764FE0500794B1B689B03D8D5FEF7CE
:101F30005DFE401B6428F6D90320DCE0734B5A6831
:101F400075490A40616909020A435A601A6873496F
:101F50000A4021690A431A601B68DB0A07221A40FB
:101F60006F4BD3406F4A13606F4B1868FEF7FAFD52
:101F7000002800D0C2E023681B0757D5634B9A683E
:101F800038231340182B4ED0A369002B77D05F4A1B
:101F9000136E01210B431366FEF728FE05005B4B11
:101FA0001B6E9B0742D4FEF721FE401B0228F6D988
:101FB0000320A0E0E368002B22D0544A136857495D
:101FC0000B4021690B431360116880235B000B43B6
:101FD0001360FEF70BFE05004C4B1B685B0506D437
:101FE000FEF704FE401B0228F6D9032083E0474990
:101FF0004B68494A13406269120213434B60BAE7C7
:10200000424A136849490B401360FEF7EFFD050093
:102010003E4B1B685B05AED5FEF7E8FD401B022872
:10202000F6D9032067E0A369002B69D023685B071A
:1020300068D5364B9A6838231340202B32D0A368DA
:10204000012B34D0052B38D0304BDA6D01218A4377
:10205000DA65DA6D03318A43DA65A368002B38D07C
:10206000FEF7C4FD0400294BDB6D9B072FD4FEF760
:10207000BDFD001B2E4B9842F5D903203BE0234ABF
:10208000136E01218B431366FEF7B0FD05001F4B55
:102090001B6E9B07CAD5FEF7A9FD401B0228F6D987
:1020A000032028E0A368002B2ED0002023E0174A4D
:1020B000D36D01210B43D365CFE7144BDA6D0421B7
:1020C0000A43DA65DA6D03390A43DA65C5E70020A9
:1020D00011E0FEF78BFD04000C4BDB6D9B0707D571
:1020E000FEF784FD001B124B9842F5D9032002E055
:1020F000002000E0012070BD0120FCE70120FAE78C
:102100000120F8E70020F6E70120F4E70010024084
:10211000FFFFFEFFFFFFFBFFFF80FFFFFFC7FFFF8B
:10212000006CDC020800002004000020FFFEFFFF1E
:1021300088130000144B9B6838221A4207D1124BB7
:102140001A68D20A072313401048D84070470E4B34
:102150009A6838231340082B10D00B4B9A68382309
:102160001340202B0CD0084B9A6838231340182BAF
:1021700001D00020EAE7FA20C001E7E70348E5E7DD
:1021800080200002E2E7C04600100240006CDC0242
:1021900070B504000D00002800D1A4E0544B1A686B
:1021A000072313408B4221D323689A0710D55B077E
:1021B00007D550498A68504B1A40B0231B0113437E
:1021C0008B604C4A93684D490B40E1680B43936028
:1021D0002368DB074CD56368012B1ED0002B39D157
:1021E000444A126852051CD4012064E0404A136836
:1021F00007218B432B431360FEF7F8FC06003C4B92
:102200001A6807231340AB42CED0FEF7EFFC801BC9
:102210003B4A9042F3D903204DE0364A12689203BC
:1022200063D534498A680720824313438B60FEF7E5
:10223000DDFC06002F4B9B6838221A406368DB00E8
:102240009A4215D0FEF7D2FC801B2D4B9842F1D953
:10225000032030E0032B05D0264AD26D9207E0D44C
:10226000012028E0234A126E9207DAD4012022E0EE
:102270001F4B1A6807231340AB421DD823685B0726
:1022800006D51C4A93681F490B4021690B43936094
:10229000FFF750FF174B9A68120A0F2313401A4A90
:1022A0009B009A581F231340D840184B1860184BB6
:1022B0001868FEF757FC70BD0D4A136807218B4361
:1022C0002B431360FEF792FC0600094B1A680723A4
:1022D0001340AB42D2D0FEF789FC801B084B9842DA
:1022E000F3D90320E7E70120E5E70120E3E7C04653
:1022F0000020024000100240FF84FFFFFFF0FFFFBC
:1023000088130000FF8FFFFF106100080800002005
:102310000400002010B5FFF70DFF074B9A68120A62
:102320000F231340054A9B009A581F231340D8409F
:10233000034B186010BDC046001002401061000839
:102340000800002010B5FFF7E5FF064B9A68120B56
:1023500007231340044A9B009A581F231340D84078
:1023600010BDC04600100240F060000870B582B099
:10237000040003685B0650D5424BDB6BDB0035D4B1
:10238000404BDA6B802149050A43DA63DB6B0B4073
:102390000193019B01253B4BD96DC02292000B009C
:1023A0001340114235D0A2699A420DD0354AD36DFF
:1023B00035490B40D06D802149020143D165D16D73
:1023C00032480140D165D365DB0711D42D4AD36D66
:1023D0002D490B40A1690B43D3650020012D1DD170
:1023E000284AD36B2A490B40D36317E00025D2E774
:1023F000FEF7FCFB0600234BDB6D9B0707D4FEF7C3
:10240000F5FB801B234B9842F5D9032002E0002006
:1024100000E000200028E1D1D8E700202368DB0796
:1024200006D5184A536D03218B43A1680B435365AE
:1024300023689B0706D5134A536D17490B40E16883
:102440000B43536523689B0606D50E4A536D9B00CC
:102450009B0861690B43536523685B0706D5094AEE
:10246000536D0E490B4021690B43536523681B06CE
:1024700006D5044A1368E0218B4361680B4313605F
:1024800002B070BD00100240FFFCFFFFFFFFFEFF27
:10249000FFFFFFEF88130000FFCFFFFFFF3FFFFFAD
:1024A0003D23C35C012B22D13C330222C25402687B
:1024B000D36801210B43D3600368104A934208D0CC
:1024C0000F4A934205D01A6801210A431A6000207E
:1024D0000EE09A680B490A40062A0AD007398A4258
:1024E00009D01A6801210A431A60002000E0012087
:1024F00070470020FCE70020FAE7C046002C0140AE
:1025000000040040070001000268D36801218B43EA
:10251000D3600368196A084A114207D1196A074A49
:10252000114203D11A6801218A431A603D23012216
:10253000C25400207047C04611110000440400003E
:10254000704770477047704770B505000368DE68D4
:102550001C69A2070ED5B2070CD5032252421A619C
:102560000123037703689B699B0757D0FFF7E9FFB7
:1025700000232B77630712D5730710D52B6805222C
:1025800052421A6102232B772B689A69C0239B0061
:102590001A4249D02800FFF7D4FF00232B772307E6
:1025A00010D533070ED52B68092252421A61042335
:1025B0002B772B68DB699B073DD02800FFF7C1FF15
:1025C00000232B77E30612D5F30610D52B681122D2
:1025D00052421A6108232B772B68DA69C0239B00CB
:1025E0001A422FD02800FFF7ACFF00232B77E30718
:1025F00001D5F3072DD482239B011C4201D0330661
:102600002FD4E30501D5330632D4630601D5730612
:1026100035D4A40601D5B60639D470BDFFF790FFB6
:102620002800FFF78FFFA3E72800FFF789FF2800A6
:10263000FFF788FFB1E72800FFF782FF2800FFF7C8
:1026400081FFBDE72800FFF77BFF2800FFF77AFF37
:10265000CBE72B68022252421A612800FEF742FAA9
:10266000C9E72B680E4A1A61280000F094F8C8E701
:102670002B680C4A1A61280000F08EF8C5E72B6819
:10268000412252421A612800FFF75DFFC1E72B6823
:10269000212252421A61280000F07CF8BDE7C046B2
:1026A0007FDFFFFFFFFEFFFF03681C4A904202D05E
:1026B0001B4A904203D1702293434A681343174A3E
:1026C00090420BD0164A904208D0164A904205D04C
:1026D000154A904202D0154A904203D1144A134041
:1026E000CA681343802293434A6913438A68C262CB
:1026F0000A688262094A904205D00B4A904202D091
:102700000A4A904201D10A690263026804210A431D
:1027100002600122426103607047C046002C014004
:1027200000040040002000400044014000480140F7
:10273000FFFCFFFF70B5041E2AD03D23C35C002BB5
:1027400020D03D2502236355210001C9FFF7ACFFCE
:1027500001234822A3540A3AA3540132A35401325C
:10276000A3540132A3540132A3540132A3540132C1
:10277000A3540132A3540132A3540132A35463552C
:10278000002070BD3C330022C254FFF71DFBD8E788
:102790000120F6E7704770477047000030B5EFF34F
:1027A0001084012282F3108801680B68124D2B40BF
:1027B0000B6084F31088EFF3108182F310880268B5
:1027C00093680E4C2340936081F31088C36E012BF5
:1027D00006D08C232022C2500023C366436730BD3D
:1027E000EFF3108183F31088026813681024A34369
:1027F000136081F31088ECE7DFFEFFFFFEFFFFEFC1
:1028000010B58823C358212B00D010BD3533C35ACF
:10281000002B17D1EFF3108C012282F3108801688E
:102820000B688024A3430B608CF31088EFF31081B6
:1028300082F310880268136840200343136081F319
:102840001088E2E7036D1A7803689A62036D01331A
:1028500003655622835A013B9BB28352D5E710B5DC
:102860008823C358212B00D010BD3533C35A002B09
:1028700017D1EFF3108C012282F3108801680B68E6
:102880008024A3430B608CF31088EFF3108182F354
:1028900010880268136840200343136081F3108896
:1028A000E2E7036D1B880268DB05DB0D9362036DB5
:1028B000023303655622835A013B9BB28352D3E70E
:1028C00010B58823C358212B00D010BD4933C35AFB
:1028D00019E0EFF3108C013282F3108801688B68E5
:1028E000144C23408B608CF31088EFF3108182F33B
:1028F00010880268136840200343136081F3108836
:10290000E3E7013B9BB2002BDFD05622825A002A1C
:10291000DFD00168CA691206F3D5026D12788A62A7
:10292000026D013202655621425A013A92B2425278
:10293000E7E7C046FFFF7FFF10B58823C358212B70
:1029400000D010BD4933C35A19E0EFF3108C0132A7
:1029500082F3108801688B68154C23408B608CF3E0
:102960001088EFF3108182F310880268136840200A
:102970000343136081F31088E3E7013B9BB2002B14
:10298000DFD05622825A002ADFD00168CA691206B7
:10299000F3D5026D1288D205D20D8A62026D023221
:1029A00002655621425A013A92B24252E5E7C046C8
:1029B000FFFF7FFF10B58823C358202B52D1002979
:1029C00052D0002A52D0836880246401A34204D1EB
:1029D0000469002C01D1CC074AD40165542142522C
:1029E00002314252002282673A31425088326F39B6
:1029F0008150416E80229205914213D08022520173
:102A0000934229D01B4B8367EFF31081012383F39B
:102A100010880268136880200343136081F31088D4
:102A2000002020E08022520193420FD0124B836796
:102A3000EFF31081012383F31088026890688023EC
:102A40001B040343936081F31088E9E70369002BBB
:102A5000ECD10A4B8367EBE70369002BD2D1084B1B
:102A60008367D1E7022010BD0120FCE70120FAE7CF
:102A70000120F8E701280008C128000839290008CA
:102A80005F28000810B5EFF31081012383F310884D
:102A9000026813684024A343136081F310888823DD
:102AA0002022C25000238367FEF728F810BD70472C
:102AB00010B5806A5E230022C252FFF7F8FF10BDF6
:102AC00070470000F8B504000268D3691068916887
:102AD000BD4D2B420BD19D0611D5850601D4CD00ED
:102AE0000DD5636F002B2AD02000984727E0B74D03
:102AF0000E002E40294223D1B54D284220D1E56E4B
:102B0000012D00D1A4E0DD0202D54D0200D549E13E
:102B10001A0605D5020600D54BE1090200D548E1A9
:102B20005A0602D5420600D54AE11A0202D54200F1
:102B300000D557E1DB0102D5002800DA56E1F8BDE7
:102B4000DD0707D5C50505D5012717629025625910
:102B50003A4362519A0709D5CA0707D52268022568
:102B600015628E35625904273A4362515A0709D5D6
:102B7000CA0707D52268042515628C3562590227D9
:102B80003A4362511A070AD5820601D4002E06D0B4
:102B900022680826166290256259324362511A054E
:102BA0000AD5420108D5226880252D01156290259D
:102BB00062592026324362519022A258002ABED088
:102BC0009B0608D5800601D4C90004D5636F002B8D
:102BD00001D0200098479023E25823689B685B0649
:102BE00002D4282313422CD02000FFF7D7FD2368FE
:102BF0009B685B0621D5EFF31081012383F31088D6
:102C00002268936840208343936081F31088802377
:102C1000E358002B0DD06F4A9A638023E058FEF7EB
:102C200081FE002800D18AE78023E058836B984713
:102C300085E72000FFF73BFF81E72000FFF737FF24
:102C40007DE72000FFF733FF90230022E25076E774
:102C5000DD0600D457E7C50600D454E710231362FD
:102C600023689B685B0662D58023E1580A68536835
:102C70009BB2002B4CD05C20205A984248D95E224F
:102C8000A3520B681B689B060BD5022323675A339C
:102C9000E15A0233E35AC91A89B22000FFF710FF44
:102CA0004DE7EFF31080012383F3108821680A6851
:102CB000494D2A400A6080F31088EFF3108083F3B7
:102CC000108821688A689A438A6080F31088EFF33D
:102CD000108083F3108821688A684235FF35AA4343
:102CE0008A6080F310888C222021A1500022E266A5
:102CF000EFF3108183F31088226813681020834358
:102D0000136081F310888023E058FEF7CBFDBCE709
:102D10005C21615A994200D011E713689B0600D4E8
:102D20000DE7022323672000FFF7CAFE07E75C23B5
:102D3000E35A5E22A15A591A89B2A35A002B00D134
:102D4000FDE6002900D1FAE6EFF31085012383F3B5
:102D5000108820680268214E3240026085F3108896
:102D6000EFF3108583F31088206882681C4E324090
:102D7000826085F310888C222020A0500022E26619
:102D80006267EFF3108083F31088226813681025C0
:102D9000AB43136080F31088022323672000FFF702
:102DA0008FFECCE680235B031362200000F0E9FD78
:102DB000C5E6A36F002B00D1C1E620009847BEE610
:102DC0002000FFF75FFEBAE60F08000001000010C8
:102DD00020010004B12A0008FFFEFFFFDFFEFFFF15
:102DE000FEFFFFEF200000F0CEFDA8E6200000F07F
:102DF000C9FDA4E610B56023C35A8C228258222A4A
:102E000005D00268936908210B43936110BD0268E5
:102E1000526ADBB2816D13400B70836D01338365A1
:102E20005E22835A013B9BB28352835A002BEDD121
:102E3000EFF3108C5D3A82F3108801680B68214C27
:102E400023400B608CF31088EFF3108C82F3108812
:102E500001688B6893438B608CF310888C231F323E
:102E6000C25000234367036703685B681B020BD5EE
:102E7000EFF31081012383F3108802681368124C6A
:102E80002340136081F31088C36E012B17D10023F8
:102E9000C366EFF31084013383F3108801680B6875
:102EA000102293430B6084F310880368D9690A42A7
:102EB00000D01A625C23C15AFFF702FEA6E7FDF7B5
:102EC0001FFEA3E7DFFEFFFFFFFFFFFB10B5602340
:102ED000C25A2C33C358222B05D0026893690821AB
:102EE0000B43936110BD03685B6A816D13400B80D7
:102EF000836D023383655E22835A013B9BB283520A
:102F0000835A002BEED1EFF3108C5D3A82F31088D8
:102F100001680B68214C23400B608CF31088EFF3A1
:102F2000108C82F3108801688B6893438B608CF35C
:102F300010888C231F32C250002343670367036845
:102F40005B681B020BD5EFF31081012383F310881C
:102F500002681368124C2340136081F31088C36E1B
:102F6000012B17D10023C366EFF31084013383F3E1
:102F7000108801680B68102293430B6084F310885B
:102F80000368D9690A4200D01A625C23C15AFFF76C
:102F900097FDA7E7FDF7B4FDA4E7C046DFFEFFFFFE
:102FA000FFFFFFFBF0B5C64600B582B0040060230A
:102FB000C35A01930368DD691A6890469F688C22A2
:102FC0008258222A07D09A6908210A439A6102B0DE
:102FD00080BCB846F0BD6823C65A07E09023E3588A
:102FE000002B40D15E23E35A002B43D0002E00D1AA
:102FF00088E0AD0600D485E023685B6A6A461279F2
:10300000A16D13400B70A36D0133A3655E22A35A1B
:10301000013B9BB2A3522368DD696A07E2D0EA074D
:1030200008D54246D20505D5012119629022A35840
:103030000B43A350AB0709D5FB0707D52368022232
:103040001A628E32A35804210B43A3506B07C5D5D7
:10305000FB07C3D5236804221A628C32A3580221CD
:103060000B43A350BAE72000FFF721FD9023002275
:10307000E250B7E7EFF31080012282F31088216855
:103080000B68354D2B400B6080F31088EFF31081F7
:1030900082F310882268936830480340936081F37C
:1030A00010888C232022E250002363672367236863
:1030B0005B681B020BD5EFF31081012383F31088AB
:1030C0002268136826480340136081F31088E36E7A
:1030D000012B3CD10023E366EFF31080013383F32F
:1030E000108821680B68102293430B6080F31088CE
:1030F0002368D9690A4200D01A625C23E15A200091
:10310000FFF7DEFC5E23E35A9AB2002B00D15EE7A4
:103110006823E35A934200D859E7EFF31080012265
:1031200082F3108821688B680E4D2B408B6080F3F2
:1031300010880D4B6367EFF3108182F310882268CB
:10314000136820200343136081F310883FE72000B9
:10315000FDF7D6FCD6E7C046FFFEFFFFFEFFFFEF00
:10316000FFFFFFFBFFFFFFEFF52D0008F8B5CE4690
:10317000474680B504006023C55A0368DF691A68B2
:1031800090469A6891468C228258222A07D09A69E2
:1031900008210A439A61C0BCB946B046F8BD68230D
:1031A000C65A07E09023E358002B40D15E23E35A30
:1031B000002B43D0002E00D188E0BF0600D485E06C
:1031C00023685B6AA26D2B401380A36D0233A36555
:1031D0005E22A35A013B9BB2A3522368DF697A07A0
:1031E000E4D0FA0708D54246D20505D50121196277
:1031F0009022A3580B43A350BB070AD54B46DB07CD
:1032000007D5236802221A628E32A35804210B4389
:10321000A3507B07C6D54B46DB07C3D523680422E2
:103220001A628C32A35802210B43A350BAE7200044
:10323000FFF73DFC90230022E250B7E7EFF3108048
:10324000012282F3108821680B68354D2B400B60FA
:1032500080F31088EFF3108182F31088226893685E
:1032600030480340936081F310888C232022E25081
:1032700000236367236723685B681B020BD5EFF3AA
:103280001081012383F310882268136826480340C5
:10329000136081F31088E36E012B3CD10023E366B9
:1032A000EFF31080013383F3108821680B6810223C
:1032B00093430B6080F310882368D9690A4200D0D9
:1032C0001A625C23E15A2000FFF7FAFB5E23E35AFF
:1032D0009AB2002B00D15EE76823E35A934200D8EC
:1032E00059E7EFF31080012282F3108821688B6880
:1032F0000E4D2B408B6080F310880D4B6367EFF30E
:10330000108182F310882268136820200343136021
:1033100081F310883FE72000FDF7F2FBD6E7C046B7
:10332000FFFEFFFFFEFFFFEFFFFFFFFBFFFFFFEFD3
:10333000CD2E000810B5040083680269134342696A
:103340001343C269134301680A6862480240134389
:103350000B602268536860490B40E1680B4353607F
:10336000A369226A1A4321688B685C4803401343AF
:103370008B602268D36A0F218B43616A0B43D3624F
:103380002368574A934230D0564A93423ED0102386
:10339000E06980221202904242D0042B00D189E0E1
:1033A0007BD8002B00D17FE0022B74D14E4B1B68E1
:1033B0005B090721194001314C48FCF79DFE626A08
:1033C0004B4B5200D15AFCF797FE61684B08C0186E
:1033D000FCF792FE0200103A464B9A426FD82368DF
:1033E0000004000CD86000206AE03F4B5A6D0323B4
:1033F0001340022B0CD005D8002B0BD0012B0BD186
:103400000333C5E7032B09D10533C1E70023BFE729
:103410000223BDE70023BBE71023B9E71023B7E77A
:10342000042B35D02AD8002B2CD0022B24D12E4BA4
:103430001B685B090721194001312C48FCF75CFE31
:10344000626A2B4B5200D15AFCF756FE400061686D
:103450004B08C018FCF750FE0200103A254B9A4268
:103460002BD882B20F239A434008083B03401343F2
:103470002268D360002023E0012021E0082BDFD068
:1034800001201DE0FEF75EFF0028D9D1002017E0E3
:10349000FEF750FEF8E7012012E0082B02D1802051
:1034A00000028CE701200BE0FEF74CFF002886D1DC
:1034B000002005E0FEF73EFEF8E7012000E00120D5
:1034C00001236A22A352023AA35200236367A3672F
:1034D00010BDC046F369FFCFFFCFFFFFFFF4FF1120
:1034E000003801400044004000100240006CDC0243
:1034F000CC600008EFFF0000836A1B0706D5026856
:1035000053682C490B40816B0B435360836ADB0784
:1035100006D50268536828490B40C16A0B435360C3
:10352000836A9B0706D50268536824490B40016BE8
:103530000B435360836A5B0706D5026853682049D2
:103540000B40416B0B435360836ADB0606D5026870
:1035500093681C490B40C16B0B439360836A9B06C5
:1035600006D50268936818490B40016C0B439360C1
:10357000836A5B060BD50268536814490B40416CA3
:103580000B435360426C80235B039A420AD0836AE8
:103590001B0606D5026853680D490B40C16C0B43EE
:1035A00053607047026853680A490B40816C0B43B3
:1035B0005360ECE7FF7FFFFFFFFFFDFFFFFFFEFF14
:1035C000FFFFFBFFFFEFFFFFFFDFFFFFFFFFEFFF4F
:1035D000FFFFF7FFFFFF9FFFF8B5CE46474680B5D8
:1035E00006000D0017009946089B98463368DC6971
:1035F0002C40641B63425C41BC4233D143460133DF
:10360000F4D0FDF7F3FA4B46C01A40452FD8434695
:10361000002B2ED0326813685B07E7D5802DE5D0EC
:10362000402DE3D0D3691B0710D4D3691B05DDD52A
:1036300080231B0113623000FFF7B0F89023202293
:10364000F2500C3B0022F25403200CE008241462D8
:103650003000FFF7A3F89023F4500C3B0022F25403
:10366000012000E00020C0BCB946B046F8BD0320F0
:10367000F9E70320F7E7000030B583B0040090239A
:103680000022C250FDF7B2FA050023681B681B0731
:1036900010D423681B685B072BD420238822A350F7
:1036A0000432A3500023E3662367083AA3540020A2
:1036B00003B030BD8021234B009303000022890317
:1036C0002000FFF789FF0028E3D0EFF310810123EA
:1036D00083F310882268136880208343136081F38A
:1036E000108888232022E250043B0022E2547D38D7
:1036F000DEE78021134B00932B000022C90320003A
:10370000FFF76AFF0028C8D0EFF31080012282F390
:10371000108821680B680C4D2B400B6080F31088DB
:10372000EFF3108082F3108821688B6893438B60DD
:1037300080F310888C231F32E250083B0022E254B1
:103740000320B5E7FFFFFF01DFFEFFFF10B5041EFA
:1037500030D08823C358002B22D088232422E25063
:103760002268136801218B431360A36A002B1DD1CB
:103770002000FFF7DFFD012811D0226853680E49B1
:103780000B405360226893682A218B439360226820
:10379000136829390B4313602000FFF76DFF10BD3C
:1037A00084330022C254FEF72FFBD6E72000FFF738
:1037B000A3FEDDE70120F2E7FFB7FFFF10B581654B
:1037C0005C23C2520233C2520023436783688021C4
:1037D00049018B4208D0002B15D10369002B0ED173
:1037E0006033FF21C15215E00369002B03D1603320
:1037F0004649C1520EE06023FF21C1520AE0602316
:103800007F21C15206E0802149058B4231D06023DF
:103810000021C15290230021C150043B2231C150EC
:10382000EFF3108C012484F3108801688B68234324
:103830008B608CF31088416E80239B05994223D0C6
:10384000826880235B019A424CD0314B4367036905
:10385000002B4DD0EFF31081012383F31088026811
:1038600010682033FF330343136081F31088002076
:1038700010BD0369002B03D160337F21C152C9E71A
:1038800060233F21C152C5E76823C35A9342D7D86A
:10389000826880235B019A421ED01E4B43670369F6
:1038A000002B0BD0EFF31081012383F31088026803
:1038B0001468FF332343136081F31088EFF3108102
:1038C000012383F310880268906880235B0503431B
:1038D000936081F31088CAE70369002BDDD10E4B9A
:1038E0004367DCE70369002BAFD10C4B4367AEE7BE
:1038F000EFF31081012383F31088026813682020FE
:103900000343136081F31088B1E7C046FF01000054
:10391000F52D0008A52F00086D310008CD2E0008F8
:1039200070B58C23C358202B23D1002923D0002A23
:1039300023D0846880235B019C4204D10369002B5F
:1039400001D1CB071BD40023C36603685B681B024D
:103950000CD5EFF3108C012383F3108804682568DD
:103960008023DB042B4323608CF31088FFF726FFB2
:1039700000E0022070BD0120FCE70120FAE70120F1
:10398000F8E7704770477047FEE7FEE770477047FB
:1039900010B5FDF71FF910BD10B5002000F006F9B5
:1039A00010BD000010B50248FEF700F810BDC0467B
:1039B0006803002010B50248FEF7C6FD10BDC046E2
:1039C0001C03002010B50248FFF77CF810BDC0466C
:1039D0008802002070B588B00400012832D8002881
:1039E0001DD11A4A516B012319435163526B134085
:1039F0000193019B164B6200D65A03A9039601233B
:103A00004B6000238B600333CB60124BA200D05875
:103A1000FEF770F8012C0CD0002008B070BD0B4AE6
:103A2000516B042319435163526B13400293029B61
:103A3000E0E7084BA400E05801223100FEF73FF90F
:103A40000020EAE702204042E7E7C04600100240BB
:103A5000E4600008E860000810B5012817D80028C5
:103A60000AD10C4B4200D15A0B4B8000C0580122A6
:103A7000FEF725F9002010BD064B4200D15A064B37
:103A80008000C0580022FEF71AF90020F3E7022058
:103A90004042F0E7E4600008E860000810B5012843
:103AA00017D800280AD10C4B4200D15A0B4B80008A
:103AB000C0580022FEF703F9002010BD064B42005B
:103AC000D15A064B8000C0580122FEF7F8F80020BA
:103AD000F3E702204042F0E7E4600008E8600008F5
:103AE00010B5012809D8064B4200D15A054B800079
:103AF000C058FEF7EAF8002010BD02204042FBE764
:103B0000E4600008E860000830B587B005001C4A92
:103B1000506B042318435063526B13400093009B77
:103B200001AB8022920101920122039201320492A0
:103B3000002908D1190000234B601248FDF7DAFF75
:103B4000002007B030BD01A90F4B4B600D48FDF7B9
:103B5000D1FF6C006419A4000C4BE4180C49200040
:103B6000FDF79CFF0B4A00212000FDF785FF002296
:103B70000F210720FDF786FD0720FDF787FDDFE712
:103B80000010024000080050000021102C0400200A
:103B90000D000006C73B000810B5802189010248CE
:103BA000FEF786F810BDC0460008005010B543006F
:103BB00018188000024BC018FDF778FF10BDC046F2
:103BC0002C040020704710B50020FFF7FBFF10BD4C
:103BD0000120704710B500F0F5F9162303600120AD
:103BE000404210BD10B501214942FFF7F3FFFEE747
:103BF00070B50C001600002504E000E000BF207046
:103C000001350134B542F8DB300070BD70B51600E7
:103C1000002405E04D1C087800E000BF01342900B5
:103C2000B442F7DB300070BD012040427047802372
:103C30009B014B60002070470120704700207047B7
:103C400010B503000C4A0D49521A0D4909680029A4
:103C500007D00B490868C318934206D8084A136076
:103C600010BD074907480860F3E700F0ABF90C23E3
:103C7000036001204042F3E7003000200004000010
:103C80003804002088050020024B802212059A602B
:103C90007047C04600ED00E00D488546FFF7F4FF91
:103CA000002103E00B4B5B58435004310A480B4B97
:103CB00042189A42F6D30A4A02E000231360043203
:103CC000084B9A42F9D300F083F9FCF701FFFEE7B5
:103CD00000300020906200080000002068000020F2
:103CE0006800002088050020FEE700000CB430B515
:103CF000174B0C001D689DB0002908DA8B230120AA
:103D00002B6040421DB030BC08BC02B01847822373
:103D100002A99B008B81002302904B6608619C42A4
:103D200000D0631E8B604B6101235B42CB81280076
:103D300021AB209A019300F023FA431C01DA8B2374
:103D40002B60002CDED00022029B1A70DAE7C046FE
:103D500018000020104B70B51D6804002A6B002A63
:103D600016D1182000F010FB021E286304D1462152
:103D70000A4B0B4800F082F90A4B002103600A4B02
:103D800043600A4B83600B238381012010615161E2
:103D900000231461536170BD1800002050610008B9
:103DA000676100080E33CDAB34126DE6ECDE050022
:103DB000164B70B51D682C6B002C17D1182000F025
:103DC000E3FA041E286305D122005221104B11484A
:103DD00000F054F9104B01220360104B4360104B6C
:103DE00083600B2383810023026143612069616941
:103DF0000C4A0D4B01F0DEF90122002380185941D5
:103E0000206161614800400870BDC0461800002074
:103E100050610008676100080E33CDAB34126DE6C7
:103E2000ECDE05002D7F954C2DF45158002310B584
:103E3000040003604360836081814366C281036143
:103E400043618361190008225C3000F0B3F80B4B2A
:103E5000246263620A4BA3620A4BE3620A4B236348
:103E60000A4B9C4205D00A4B9C4202D0094B9C4213
:103E700003D12000583000F0EBF810BD6549000870
:103E80008D490008C5490008F14900083C0400209C
:103E9000A40400200C05002010B5034A034904487F
:103EA00000F06CF810BDC0460C000020ED48000882
:103EB0001C00002041680B4B10B50400994201D052
:103EC00000F014FDA168084B994202D0200000F0D8
:103ED0000DFDE168054B994202D0200000F006FD7F
:103EE00010BDC0463C040020A40400200C050020A6
:103EF00010B5094B094A04211A6009480022FFF74E
:103F000095FF012209210748FFF790FF02221221A5
:103F10000548FFF78BFF10BD74050020993E00088F
:103F20003C040020A40400200C05002010B5024829
:103F300000F08FF810BDC0467905002010B502488A
:103F400000F088F810BDC0467905002010B50400C7
:103F5000FFF7ECFF236A002B02D0FFF7EFFF10BD45
:103F6000044B2362044B1B68002BF6D1FFF7C0FF04
:103F7000F3E7C046B53E000874050020F7B514000D
:103F8000002600900191A5686768013F04D5246868
:103F9000002CF8D13000FEBDAB89012B08D90E22D0
:103FA000AB5E013304D029000098019B984706437B
:103FB0006835EAE703008218934200D17047197010
:103FC0000133F9E7014B18687047C046180000201C
:103FD00070B500260C4C0D4D641BA410A64209D1EF
:103FE000002601F0F7FF0A4C0A4D641BA410A642FC
:103FF00005D170BDB300EB5898470136EEE7B3002A
:10400000EB5898470136F2E788620008886200089A
:104010008C62000888620008DFB501267642F71737
:104020000A4B04000022694618680096019700F0C8
:1040300013F8002801DA0096019700980199002CE6
:1040400001D02060616004B0D0BDC04618000020DF
:104050007047704770470000002370B5064D04009C
:10406000080011002B6001F09DF8431C03D12B6860
:10407000002B00D0236070BD840500207FB51400A4
:104080001A00094B05001B680E00D868074B002C6E
:1040900001D1074B1C000749019302942B000096A5
:1040A00000F0ACFC00F070FD180000201862000861
:1040B0005362000825620008F0B58E6885B01F00C5
:1040C0000C00330002900392BE4254D80C22885E4A
:1040D0009022D20010422CD00322096923685B1A77
:1040E000019363695343019ADD0FED187B1C6D103A
:1040F0009B182A00AB4201D91D001A00400527D5A4
:104100001100029800F06CF9061E2AD0019A21696C
:1041100000F031FDA289194B1A4080231343A3817B
:10412000019B2661F618266065613E00ED1A3B0092
:10413000A5601F003A000399206800F09FFC002052
:10414000A3689B1BA3602368DB19236005B0F0BD47
:10415000029800F063FC061EE2D12169029800F08B
:104160001BFD0C230120029A40421360A2893433C4
:104170001343A381EAE73E00DCE7C0467FFBFFFF75
:10418000F0B59FB002901C008B890E0015001B0635
:1041900011D50B69002B0ED1402100F021F93060C0
:1041A0003061002805D10C23029A1360012040429F
:1041B000D4E0402373610023292102AA52180B93F3
:1041C00020331370013102AA103352181370059472
:1041D0002C002378002B01D0252B48D1671BAC4243
:1041E0000BD03B002A0031000298FFF765FF013039
:1041F00000D1AEE00B9BDB190B932378002B00D191
:10420000A7E00122532100235242079202AA52182A
:10421000651C06930993089313701C93554F2978D6
:104220000522380000F09CFC6C1C069906AB0028A7
:104230001FD1CA0604D55327202202A8C019027034
:104240000A0704D553272B2202A8C01902702A7826
:104250002A2A15D02C0000200A27DA682178651C4C
:104260003039092950D9002811D009920FE00134C2
:10427000AFE70123C01B83400B4325000693CDE726
:10428000059A101D12680590002A37DBDA60227843
:104290002E2A0CD162782A2A3BD1059A0234111DAC
:1042A00012680591002A01DA012252425A60324D09
:1042B00003222800217800F053FC06AF002806D026
:1042C0004023401B8340069A013413430693217810
:1042D00006222A48651C397600F042FC00283FD0AF
:1042E000274B002B29D10722059B07339343083323
:1042F00005930B9B03995B180B9369E75242DA60B5
:1043000002220A430692C2E77A432C000120521887
:10431000A4E700220A205A60110013000134227819
:10432000651C303A092A03D9002BC0D00791BEE79B
:1043300041432C0001238918F1E705AA00923900B6
:104340003200104B029800E000BF0390039B013342
:10435000CFD1B3890B985B0600D527E71FB0F0BD1E
:1043600005AA009239003200064B029800F028F9A5
:10437000EBE7C046546200085A6200085E6200081B
:1043800000000000B940000810B5034B0100186898
:1043900000F026F810BDC0461800002070B50F4E82
:1043A0000D0031680400002902D100F0A1FB30604B
:1043B0002900200000F09CFB431C03D101256D4225
:1043C000280070BD0323C51C9D43A842F8D0291ABC
:1043D000200000F08DFB0130F2D1EFE77C050020DA
:1043E000F7B50322CB1C9343083305001F000C2BA9
:1043F00034D20C27B94233D8280000F0A3FA374E44
:1044000033681C00002C2FD139002800FFF7C6FFAD
:104410000400431C5FD134680094009B002B4AD1F8
:10442000002C52D023682800E3180099019300F073
:104430005FFB019B834248D123682800FF1A3900A3
:10444000FFF7ACFF013040D02368DB1923603368ED
:104450005A68002A33D1009B336019E0002BC9DA77
:104460000C232B600020FEBD2168C91B20D40B2922
:104470000AD9E2192760A34204D13260636811604F
:10448000536005E05A60F9E76268A3420ED13260DA
:10449000280000F05FFA200007220B30231D904314
:1044A000C21A9842DFD01B1AA350DCE75A60EFE72C
:1044B00023006468A6E7009C63680093ADE71A00D8
:1044C0005B68A342FBD10023DAE70C2328002B60B2
:1044D00000F040FAC6E70760DAE7C0468005002032
:1044E000F7B5160001938A680B690C00009093429F
:1044F00000DA13002200336043321278002A01D020
:104500000133336023689B0602D53368023333607E
:104510002268062315001D401A4227D0230043338A
:104520001B785A1E93412268920630D422000199CA
:104530000098089D4332A847013025D00622236801
:1045400000251340042B05D13368E568ED1AEB43D1
:10455000DB171D40A3682269934201DD9B1AED1809
:104560000026B54220D1002010E00135E368326812
:104570009B1AAB42D2DD2200012301990098089FCB
:104580001932B8470130F0D101204042FEBD302041
:10459000E1184331087021005A1C45310978A218EE
:1045A000433202331170C1E72200012301990098C0
:1045B000089F1A32B8470130E6D00136D1E7000033
:1045C000F0B58BB006920A00433207930590039230
:1045D0000A7E0C00109B782A09D8622A0BD8002A80
:1045E00000D1BAE07A490491582A00D18EE0250022
:1045F00042352A7022E0100063381528F7D8FBF7FF
:1046000071FD16001F00F6FFF6FFF6FFF6FF1F0014
:10461000F6FFF6FFF6FFF6FF9F0036007E00F6FF7E
:10462000F6FFB000F6FF3600F6FFF6FF8200250029
:104630001A684235111D196013682B7001239EE022
:1046400018680968021D0D060BD506681A60002E51
:1046500003DA2D23039A764213705D4B0A270493E5
:1046600018E006681A604906F1D536B2EFE7086827
:10467000196840C9050602D4400600D5B6B21960D3
:10468000534B0A2704936F2A00D1023F23000022D4
:1046900043331A706368A360002B06DB0421226891
:1046A000039D8A43226033430CD0039D30003900C0
:1046B000FBF7A8FD049B013D5B5C2B7033000600FB
:1046C0009F42F3D9082F09D12368DB0706D562681A
:1046D00023699A4202DC3023013D2B70039B5B1B54
:1046E0002361079B210000930598069B09AAFFF709
:1046F000F7FE013048D1012040420BB0F0BD20222E
:1047000009680A4322607822324904912100453128
:104710000A701968226840C9100602D4500600D5F4
:10472000B6B21960D30702D5202313432360002EAD
:1047300001D01027AAE72022236893432360F8E7DB
:104740001A680D68101D4969186013682E0601D596
:10475000196002E06D06FBD519800023039D2361DB
:10476000BFE71A68111D19601568002128006268EA
:1047700000F0F6F9002801D0401B606063682361F7
:104780000023039A1370ACE72A0023690699059861
:10479000079DA8470130AED023689B0715D4099B1D
:1047A000E0689842A9DA1800A7E7220001230699D9
:1047B0000598079E1932B04701309CD00135E36857
:1047C000099A9B1AAB42F0DCE9E70025F7E7C046FF
:1047D0006562000876620008F7B50C228B5E050062
:1047E0000C001A075AD44A68002A02DC0A6C002A14
:1047F0004FDDE76A002F4CD0002280212E682A600E
:104800001A0049010A400B4234D0626DA3895B074C
:1048100006D56368D21A636B002B01D0236CD21AC1
:1048200000232800E76A216AB8470C23E25E431C94
:1048300006D129681D292ED82B4BCB40DB072AD562
:104840000023636023692360D20405D5431C02D191
:104850002B68002B00D16065616B2E60002918D099
:1048600023004433994202D0280000F095F9002338
:1048700063630EE001232800216AB8470200431C4D
:10488000C4D12B68002BC1D01D2B01D0162B1DD1FC
:104890002E60002021E0402313431BE00E69002E10
:1048A000F7D00F680E60BA1B019200229B0700D15F
:1048B0004A69A260019B002BEBDDA36A32001F0056
:1048C0002800019B216AB847002807DC4023A28901
:1048D00013431BB20120A3814042FEBD019B361849
:1048E0001B1A0193E6E7C046010040200B6970B532
:1048F00005000C00002B02D10025280070BD002807
:1049000004D0036A002B01D1FFF720FB0C22A35E29
:10491000002BF1D0626ED20704D49B0502D4A06DA7
:10492000FFF797FB28002100FFF756FF636E050095
:10493000DB07E2D4A3899B05DFD4A06DFFF78AFBD8
:10494000DBE7000010B50248FFF783FB10BDC0464F
:104950007805002010B50248FFF77CFB10BDC0466B
:104960007805002070B50C000E25495F00F0ACF80A
:10497000002803DB636D1B18636570BDA389024AC1
:104980001340A381F9E7C046FFEFFFFFF8B51F0012
:104990008B8905000C001600DB0505D50E23C95ECA
:1049A0000022022300F07CF8A389054A2800134066
:1049B000A38132000E23E15E3B0000F0ABF8F8BDAE
:1049C000FFEFFFFF70B50C000E25495F00F068F89F
:1049D0000C22A35E421C03D1044A1340A38170BD84
:1049E000802252011343A3816065F8E7FFEFFFFFC8
:1049F00010B50E23C95E00F0A1F810BD0EB417B5B6
:104A0000054C05AB04CB01002068019300F036F99A
:104A10001EBC08BC03B0184718000020F7B50600FC
:104A20000C001500002905D11100FFF7D9FC040086
:104A30002000FEBD002A03D100F0AEF82C00F7E7FD
:104A400000F03CFA0700854202D84308AB42EFD39E
:104A500029003000FFF7C4FC0190002801D1019C1F
:104A6000E6E72A00BD4200D93A002100019800F093
:104A700082F82100300000F08FF8F0E710B588428E
:104A800002D98B18984208D300239A4207D0CC5CF5
:104A9000C4540133F9E78B5C8354013AFBD210BD57
:104AA00070B50400080011001A000023054D2B60AA
:104AB000FFF7C4F8431C03D12B68002B00D0236000
:104AC00070BDC0468405002070B5040008001100C8
:104AD0001A000023054D2B60FFF78AF8431C03D111
:104AE0002B68002B00D0236070BDC04684050020D9
:104AF000002370B5064D040008002B60FFF7A0F8F6
:104B0000431C03D12B68002B00D0236070BDC0462E
:104B10008405002070B50400080011001A0000236D
:104B2000054D2B60FFF772F8431C03D12B68002B57
:104B300000D0236070BDC04684050020002370B5FE
:104B4000064D040008002B60FFF76EF8431C03D1EC
:104B50002B68002B00D0236070BDC0468405002068
:104B6000C9B28218904201D10020704703788B426D
:104B7000FBD00130F6E7002310B59A4200D110BDFA
:104B8000CC5CC4540133F8E7062010B500F0C6FA37
:104B90000120FFF727F8000070B505000C1E10D0AB
:104BA000043C2368002B00DAE4182800FFF7CAFE53
:104BB0001D4A1368002B05D1636014602800FFF7BD
:104BC000C9FE70BDA34208D9206821188B42F3D1D9
:104BD00019685B6809182160EEE71A005B68002B12
:104BE00001D0A342F9D911685018A0420BD1206816
:104BF0000918501811608342E0D118685B684118A9
:104C000011605360DAE7A04202D90C232B60D5E78C
:104C1000206821188B4203D119685B68091821604C
:104C200063605460CAE7C04680050020936810B5F1
:104C3000013B9360002B04DA9469A34207DB0A2945
:104C400005D01368581C10601970080010BD00F0E2
:104C50003DF90100F9E7F8B506000F001400D5187A
:104C6000AC4201D1002007E021783A003000FFF784
:104C7000DDFF0134431CF3D1F8BD0000F0B59FB057
:104C80000D0016001C000290002804D0036A002BBF
:104C900001D1FFF75BF96B6EDB0705D4AB899B0590
:104CA00002D4A86DFFF7D5F9AB891B0702D52B6994
:104CB000002B13D12900029800F04AF900280DD0EA
:104CC0006B6EDB0703D5012040421FB0F0BDAB89FE
:104CD0009B05F8D4A86DFFF7BDF9F4E7002329215F
:104CE00002AA52180B9320331370013102AA103319
:104CF00052181370059434002378002B01D0252B13
:104D000048D1A71BB4420BD03B00320029000298C7
:104D1000FFF7A1FF013000D1AEE00B9BDB190B9335
:104D20002378002B00D1A7E0012253210023524217
:104D3000079202AA5218661C0693099308931370EF
:104D40001C93594F317805223800FFF709FF741C76
:104D5000069906AB00281FD1CA0604D55327202286
:104D600002A8C01902700A0704D553272B2202A8F3
:104D7000C019027032782A2A15D0340000200A2780
:104D8000DA682178661C3039092950D9002811D0F9
:104D900009920FE00134AFE70123C01B83400B43AE
:104DA00026000693CDE7059A101D12680590002A8B
:104DB00037DBDA6022782E2A0CD162782A2A3BD19E
:104DC000059A0234111D12680591002A01DA0122A8
:104DD00052425A60354E032230002178FFF7C0FE60
:104DE00006AF002806D04023801B8340069A01347A
:104DF00013430693217806222D48661C3976FFF767
:104E0000AFFE002847D02B4B002B29D10722059B52
:104E100007339343083305930B9B03995B180B935C
:104E200069E75242DA6002220A430692C2E77A43F5
:104E3000340001205218A4E700220A205A60110011
:104E4000130001342278661C303A092A03D9002B5A
:104E5000C0D00791BEE74143340001238918F1E730
:104E600005AA009239002A00134B029800E000BF07
:104E70000390039B0133CFD16B6EDB0705D4AB8965
:104E80009B0502D4A86DFFF7E5F8AB895B0600D55A
:104E900019E70B9819E705AA009239002A00064B7A
:104EA0000298FFF78DFBE3E7546200085A6200089E
:104EB0005E62000800000000574C00080B1F1B68D2
:104EC000181F002B01DA0B58C0187047F8B5060000
:104ED0000D001400002804D0036A002B01D1FFF755
:104EE00035F8A369A360A3891B0702D52369002BAA
:104EF00009D12100300000F02BF8002803D0012553
:104F00006D422800F8BD23692068EFB2C01A6369BA
:104F1000EDB2834205DC21003000FFF7E7FC0028FA
:104F2000EDD1A3680130013BA36023685A1C2260C5
:104F30001F706369834204D0A389DB07E1D50A2D82
:104F4000DFD121003000FFF7D1FC0028D9D0D6E70F
:104F50002B4B70B5050018680C00002804D0036ABC
:104F6000002B01D1FEF7F2FF0C22A35E1A0722D418
:104F7000DA0607D409222A60373201201343A381BD
:104F8000404270BD5A0713D5616B002908D0230039
:104F90004433994202D02800FFF7FEFD00236363EB
:104FA0002422A38993430022626022691BB22260FB
:104FB00008221343A3812269002A07D19A0501D54B
:104FC0001B0603D52100280000F046F80C23E25E02
:104FD000012113000B400A420CD00023A360636937
:104FE0005B42A361002023698342CAD11306C8D55E
:104FF0004023C2E7910700D46369A360F2E7C0468B
:1050000018000020F0B50E001D000E23C95E14002C
:1050100097B000290CDAB2898023110019401A4296
:1050200014D18023DB0000202960236017B0F0BD7D
:105030006A4600F0A5F80028EDDBF02301991B0279
:105040001940044BC9184B425941EAE7002140235B
:10505000E9E7C04600E0FFFFF7B502268B890500AF
:105060000C00334206D02300473323602361012321
:105070006361F7BD6A4601ABFFF7C4FF009F2800DC
:105080003900FFF7ADF90C22A35E002806D19A057E
:10509000EFD4032293431E43A681E4E78022134307
:1050A000A381019B206020616761002BE1D0280073
:1050B0000E23E15E00F03CF80028DAD00323A28939
:1050C0009A43023B1343A381D3E770B504000D005C
:1050D0001F2904D9162303600120404270BDC36B11
:1050E000002B04D08A009B181A68002A08D12000DF
:1050F00000F042F82A000100200000F02BF8EDE754
:10510000012A09D0511C03D1162303600120E5E7D1
:1051100000212800196090470020DFE710B5034BFD
:1051200001001868FFF7D1FF10BDC046180000202D
:10513000002370B5064D040008002B60FEF77CFDCF
:10514000431C03D12B68002B00D0236070BDC046E8
:1051500084050020002370B5064D040008001100EE
:105160002B60FEF737FD431C03D12B68002B00D0CA
:10517000236070BD8405002010B5FEF729FD10BD29
:10518000002370B5064D0400080011002B60FEF7E7
:105190004EFD431C03D12B68002B00D0236070BD53
:1051A0008405002058220120014B40421A607047BC
:1051B00084050020F0B5CE469946030C9C461304A6
:1051C00047461B0C1D000E0061460404240C80B5EC
:1051D0000700100C4B436543414360432C0CC0183F
:1051E00024188C46A34203D980235B029846C4440A
:1051F000494679435643230C2D042D0C89196344E9
:1052000024046019C918C0BCB946B046F0BDC046F8
:105210009E2110B5C905041CFBF714F9002803D121
:10522000201C00F0AFFD10BD9E21201CC90500F020
:1052300067FB00F0A7FD80231B069C466044F2E755
:105240004A02F8B5530ACE4699464B00C90F474665
:10525000884646004502360E1B0E80B5C40F6F0A05
:105260009209AD09F11A44454BD0002938DD002BD5
:1052700000D174E0FF2E00D1BEE08023DB041A438E
:105280001B2900DCFDE0013D6B0100D4AFE00125EE
:105290006D42AD01AF093800FBF7DEF83B00053881
:1052A0008340864200DCD3E0B94D311A1D405A07D5
:1052B00000D19EE00F221340042B00D199E0043569
:1052C0006B0100D495E0481CFE2951D1FF2000233A
:1052D000C0051843E4072043C0BCB946B046F8BD3A
:1052E000002949D0991B002E72D1002D00D133E145
:1052F0004C1E012900D159E1FF2900D14CE12100C8
:105300006CE0002900DC81E0002B55D1002A70D030
:105310004B1E012900D12BE1FF296DD01B2B50DC46
:10532000190020235B1A10009A40C840531E9A416E
:105330000243AD188023DB041D4200D1ADE0711C97
:10534000FE2EC3D001206A082840924D1540054327
:105350006A0700D08BE01D42B5D1EF0834E0002A87
:1053600047D04B1E012966D0FF2945D0190087E799
:10537000C0B2AB015B0AABE7FE239C46701C030086
:105380006046184200D092E0002E00D0E7E0002DE9
:1053900000D119E1002A17D08023AF1ADB041F4285
:1053A00000D142E14446551B00D187E001201D4257
:1053B000DFD10021EF0807E0FF2E1DD01B2900DC04
:1053C00094E031000535EF087B025B0AC8B27FE745
:1053D000FF2B00D1E0E08020C00405431B2900DC46
:1053E00088E0551E44461E00690100D54FE7310094
:1053F0000435EF08FF29E7D1002F00D166E78023AD
:10540000DB033B435B02FF205B0A61E7002958D0C6
:10541000991B002E00D089E0002D00D19DE04E1E8A
:10542000012900D1A4E0FF2900D1B6E01B2E00DD48
:10543000B8E0310081E0AA1A530100D4AFE097012F
:10544000BF093800FBF708F83B0005388340012608
:105450001D00811B20200131CD40411A8B40591E77
:105460008B411D432AD000216B0700D1F0E00F23B0
:105470002B40042B00D022E76B0100D523E7EF0877
:10548000A2E720235B1A10009A40C840531E9A419D
:105490000243AD1A6B0100D5FBE66B0700D1D5E0E6
:1054A0000F2331002B40042B00D008E7A1E7AF1AEF
:1054B0007B014ED4002F00D0EDE600240020002315
:1054C00006E7FE23711C0B4221D1002E00D081E0A3
:1054D000002D00D19FE0002A00D1B2E0AB185A01A4
:1054E00000D4B0E09B0101205B0AF1E68023DB04DD
:1054F0001A4316E720242800C840611A8D4029006D
:105500004C1EA141014344461E00551AC2E7FF2923
:1055100000D1DBE6AF187F087B0705D00F233D1DC8
:105520003B40042B00D064E7FF084DE7FF2B34D04D
:105530001B2937DC8020C004054328002026C840F2
:10554000711A8D4029004D1EA94101431E008D187E
:10555000F0E64446571B9EE64446150049E7002DF9
:1055600046D1002A66D180230024FF20DB03AFE66A
:10557000AA18530113D5074F52081740530744D0B8
:105580000F231340042B40D002213D1D31E7C046BC
:10559000FFFFFFFBFFFFFF7D44464F462CE7012145
:1055A000D70811E705321900D7080DE7571B7B0113
:1055B00037D5BF01BF093800FAF74EFF3B00053869
:1055C00083404446013643E7002A00D175E744464C
:1055D0004F46F9E6002DE0D08023DB03002A17D0E8
:1055E0009F4200D20BE7994500D308E74F4606E7F4
:1055F0008023DB03002A0BD09F4200D2FFE69945AF
:1056000000D3FCE644464F46F9E60221FF08DBE6FC
:10561000FF203B435CE6002A00D14FE70021D7087A
:10562000D2E644460121FF08CEE6002F00D07BE7FA
:10563000002443E780234A46DB034446FF2013430C
:1056400046E60021C0E60021DF08BDE63100D0E6D5
:1056500001206A0100D58BE62A00DFE7F0B54F464E
:105660004646D6464502C0B546000F1C6D0A360EAA
:10567000C40F002E00D1CDE0FF2E72D08023ED00AC
:10568000DB041D43002399469A467F3E7B025B0A5A
:1056900098467B001B0EFF0F002B72D0FF2B00D112
:1056A000A9E07F3BF6184B460A2B00DD85E0434618
:1056B0008022DB00D2041A434B4690467C400022F5
:1056C000022B0FDD494601238B40A621C9000B4266
:1056D00000D072E0902189000B4200D0DAE08821EE
:1056E000194267D1280C42462D042D0C434629004F
:1056F00012041B0C120C51435D4342435843AD1836
:105700000B0C5B199A4203D98022520294466044E2
:1057100009041A04090C52189501691E8D411B0CCD
:10572000920E1B1815439B011D431B0100D5CFE0B2
:1057300030007F30002800DCB1E06B070BD00F2376
:1057400032002B40042B06D004352B0103D58032C8
:1057500010006A4B1D40FE2864DCAB015B0AC0B23E
:105760001FE0002D00D08FE008239946063B9A46A3
:105770007B025B0A98467B00FF261B0EFF0F002B67
:105780008CD14346002B5CD14A4601331A439146E3
:1057900013000A2A11DC01227C40022B92DC00203B
:1057A0000023C0051843E4072043E0BCBA46B146D5
:1057B000A846F0BD3C00454692465346022B31D0E8
:1057C000032B11D0012BEAD030008030721C00284E
:1057D00066DD6B07B9D00F232B40042BB4D1B4E79F
:1057E0000F2A7AD03C0045468023DB032B435B0223
:1057F000FF205B0AD5E74346FF36002B34D14A46EB
:10580000023313430A2BD8DC7C40002A0AD0994685
:10581000022257E7002D08D104239946033B0026B6
:105820009A4633E7FF200023BBE72800FAF714FE6F
:105830007626431F9D400023764299469A46361AA3
:1058400024E74046FAF708FE4B46361A763E0A2B06
:10585000B3DC43460538834098464B4600227C40E3
:10586000022B00DD2EE73DE703234A461A431300CF
:105870000A2AB5DC01229A40882113007C400322C9
:10588000194200D12EE795E70C239946093BFF26E4
:105890009A46FBE680230024FF20DB0381E73200E9
:1058A00001231B1A1B2B00DD79E79E32290095404E
:1058B000D9406A1E95410D436B0704D00F232B403E
:1058C000042B00D004356B0113D50120002368E7B9
:1058D00001236A081D40154376E78023DB031D4240
:1058E00082D042461A4200D07EE73C00FF2013439C
:1058F00057E7AB0100205B0A53E7C046FFFFFFF705
:10590000F8B54746CE464B02460080B5C40F470265
:10591000580A844648007A0A360EBF09000ECD0F99
:105920009B09FF286DD001214D40311AAC423AD07D
:10593000002900DC9CE1002800D19EE0FF2E00D170
:1059400088E08022D20413431B2900DCF6E0013FEB
:105950007A0100D479E001277F42BF01BB09984654
:105960004046FAF779FD434605388340864200DC1D
:10597000CCE0B44F311A1F405A0768D00F221340B1
:10598000042B64D004377B0161D5481CFE2900D06C
:1059900081E0FF200023C0051843E4072043C0BC7A
:1059A000B946B046F8BD002900DC79E1002876D17F
:1059B000002B4CD0481E012900D147E1FF2949D0D6
:1059C0001B2871DC01001A002020CA40411A8B40BC
:1059D000591E8B411343FF188023DB041F4200D163
:1059E000B8E0711CFE2ED4D0012297483A407F08BF
:1059F000074017437A0700D096E01F42C5D1FA0846
:105A000055E03100FF398946002B2CD101214D4052
:105A1000AC4200D1B4E0494600294CD0002E00D061
:105A2000F9E0FF21002F00D108E14A1E012900D131
:105A300056E1FF2900D142E11B2A00DC24E15F1E70
:105A40002C0006007A0100D585E731000437FA08FA
:105A5000FF292CD1002A9CD08023DB0313435B0257
:105A6000FF205B0A97E7AC4200D1A7E0002922D0D3
:105A7000002ED6D062462C00EEE7002BE7D0481E61
:105A8000012936D0FF29E5D001005DE701203B0068
:105A90007A0100D457E1C0B2BB015B0A7BE7FF2E5D
:105AA000D8D01B2900DC9FE031000537FA085302EB
:105AB0005B0AC8B26FE7FE20711C084254D1002E69
:105AC00000D0B1E0002F00D102E1002B00D1F9E0BD
:105AD0008021FA1AC9040A4200D13BE10124DF1BEC
