:020000040800F2
:10000000003000209D1E0008111D0008131D00086F
:1000100000000000000000000000000000000000E0
:10002000000000000000000000000000151D000896
:100030000000000000000000171D0008191D000846
:10004000ED1E000800000000ED1E0008ED1E000877
:10005000ED1E0008211D0008ED1E00082B1D0008E4
:1000600000000000351D0008451D0008ED1E0008B9
:10007000ED1E0008ED1E0008ED1E00080000000047
:10008000ED1E00080000000000000000ED1E00084A
:1000900000000000ED1E0008ED1E0008ED1E000827
:1000A00000000000ED1E000800000000ED1E00082A
:1000B000ED1E00080000000000000000000000002D
:1000C0000023C25C0133002AFBD1581E7047000098
:1000D000002243088B4274D303098B425FD3030A87
:1000E0008B4244D3030B8B4228D3030C8B420DD39A
:1000F000FF22090212BA030C8B4202D31212090228
:1001000065D0030B8B4219D300E0090AC30B8B4265
:1001100001D3CB03C01A5241830B8B4201D38B0313
:10012000C01A5241430B8B4201D34B03C01A5241B8
:10013000030B8B4201D30B03C01A5241C30A8B42FB
:1001400001D3CB02C01A5241830A8B4201D38B02E6
:10015000C01A5241430A8B4201D34B02C01A52418A
:10016000030A8B4201D30B02C01A5241CDD2C309FC
:100170008B4201D3CB01C01A524183098B4201D378
:100180008B01C01A524143098B4201D34B01C01A63
:10019000524103098B4201D30B01C01A5241C308DB
:1001A0008B4201D3CB00C01A524183088B4201D34A
:1001B0008B00C01A524143088B4201D34B00C01A36
:1001C0005241411A00D20146524110467047FFE7A2
:1001D00001B5002000F006F802BDC0460029F7D0A6
:1001E00076E770477047C04610B5064C2378002B61
:1001F00007D1054B002B02D0044800E000BF0123CB
:10020000237010BD0C00002000000000481F0008F3
:10021000044B10B5002B03D00349044800E000BF95
:1002200010BDC0460000000010000020481F00085C
:1002300010B588B003AC14220021200001F057FE55
:10024000154B596B042211435963596B0A400092B4
:10025000009A596B202211435963596B0A4001924D
:10026000019A596B0122114359635B6B134002934E
:10027000029B0392094B0493A0202100C00500F0CB
:10028000F5FD00220021052000F012FC052000F001
:1002900013FC08B010BDC046001002400000311031
:1002A00000B583B00D4A916B012319439163926BA2
:1002B00013400193019B00220021092000F0F8FB6C
:1002C000092000F0F9FB002200210A2000F0F0FBD9
:1002D0000A2000F0F1FB03B000BDC0460010024050
:1002E00010B5064B1A68936880218B439360A02059
:1002F0006039C00500F09EFE10BDC046840000209D
:1003000072B6FEE700B585B00C22002101A801F00D
:10031000EEFD1848184B03608023DB054360002383
:100320008360C36080221206026104224261037668
:100330004376033A8276C261436283622C2142543F
:10034000036343633B328354C36400F005F9002820
:100350000BD101A9094B019301234B60054800F023
:100360001BFA002803D105B000BDFFF7C9FFFFF756
:10037000C7FFC046740100200024014002000004B1
:1003800010B50C480C4B0360E1235B024360002373
:100390008360C36003610C2242618361C3610362B5
:1003A0004362836201F07CFC002800D110BDFFF79E
:1003B000A7FFC046840000200044004010B58CB068
:1003C00005AC1C220021200001F091FD1422002127
:1003D000684601F08CFD12490B6807229343063AE8
:1003E00013430B60059280235B020693200000F00C
:1003F00005FF00280FD1684607230093063B0193B1
:100400000023029303930493012101F083F8002851
:1004100003D10CB010BDFFF773FFFFF771FFC046AB
:100420000020024070B584B06A46194B31CB31C20E
:100430001B68136000F060F8FFF7C0FFFFF7F8FEDD
:10044000FFF72EFFFFF75EFFFFF79AFF114A1248F2
:10045000002100F0A3FC002001F07CFC0121002021
:1004600001F0BAFC0D4B1C68A36880210B43A3600C
:1004700028346846FFF724FE0300074D2200694632
:10048000280000F0D5FBFA20800000F053F8E9E7DF
:10049000601F0008E10200082800002084000020FE
:1004A00010B50400114B1978002901D1012010BDAD
:1004B000FA208000FFF70CFE01000D4B1868FFF7D3
:1004C00007FE00F005FB00280DD1032C01D9012007
:1004D000EDE7013000222100404200F0E9FA054B2F
:1004E0001C600020E3E70120E1E7C0460000002097
:1004F000080000200400002010B50320FFF7D0FF03
:10050000041E02D00124200010BD00F0B5FDFAE762
:10051000034B1B78034A11685B1813607047C04691
:1005200000000020D8010020014B18687047C04629
:10053000D801002070B50400FFF7F6FF0500631C2A
:1005400002D0044B1B78E418FFF7EEFF401BA042DB
:10055000FAD370BD0000002030B583B00400002342
:100560000193002800D105E1836D002B12D0236890
:100570009A68D2001BD499687F4A114080225205A4
:100580000A439A607D4B18687D49FFF7A1FD400042
:10059000019009E000F088FD0023E3655422A35494
:1005A000E5E7019B013B0193019B002BF9D12368F7
:1005B0009A68D20000D59DE0A26D10210A43A26581
:1005C000E26D0F390A43E26501209A6804210D00AB
:1005D0001540114200D00125A26DD20600D5C2E01F
:1005E000002D00D0BFE0A26D66490A400631FF3100
:1005F0000A43A2659A68D20752D4A268217E890371
:100600000A43617EC9030A43A57E69030A43216B3D
:10061000002901D0802149010A43E1680A43216988
:10062000002969DB802189030A432C21615C490090
:100630000A432021615C012961D0616A002905D04B
:10064000E0256D002940A56A29430A43D9684E4D2B
:1006500029400A43DA6063689B0F9B07E26C1A43E8
:100660003C21615C012959D021680B69474D2B4021
:1006700013430B616368C0221206934210D080229C
:10068000D20593420CD080221206934208D04049F2
:100690000A68404D2A40F025AD032B4013430B6000
:1006A0002168636B4A690725AA4313434B6121689C
:1006B000A26B4B696935AB43120113434B6123694C
:1006C000002B35D12268916A103B0B43936223685B
:1006D0005A6907231340626B9A423BD0A36D1222E2
:1006E0009343023A1343A365E36D0F3A1343E36563
:1006F00001203DE0002068E74900490894E7002D0B
:1007000003D1802149020A4397E7A16D202529439F
:10071000A165E16D1F3D2943E1658EE7216C0B4327
:10072000616C0B43A16C0B43134301221A439BE7FB
:10073000802292039342CAD121688B6AE369013B0C
:100740009B001C221A4010235B429340226E1343ED
:100750008B62BCE70023E365A36D03229343023A57
:100760001343A36504E0A36D10221343A365012086
:1007700003B030BD0120FBE7E8FFFF6F0800002059
:10078000400D0300FDFEFFFF0102DEFF02FCFF1F24
:1007900008270140FFFFC3FFF0B583B0040000232A
:1007A000019305695433C35C012B00D121E154232B
:1007B0000122C25400688368033216001E401A42A8
:1007C00009D0A36D1C321343A365012054230022DA
:1007D000E25403B0F0BD4B68022B00D1D5E080227B
:1007E0001206954225D0844A954222D0226E1F27B8
:1007F0001F400F25BD40AA430B685D022FD19B0E01
:100800001F261E40BE40324322664D68AB080133AE
:10081000E269934213D80E68826A1F231D40103B81
:100820001F00AF40BA43B60E3340AB401343836260
:1008300005E00B68826A5B025B0A134383622068EF
:100840000B688D6842691B029A432B406B4D2B400D
:10085000134343610B68002B5FDB0020B6E7DD0725
:10086000D0D49D072FD45D072FD41D072FD4DD06CC
:100870002FD49D062FD45D062FD41D062FD4DD0561
:100880002FD49D052FD45D052FD41D052FD4DD0455
:100890002FD49D042FD45D042FD41D042FD4DD0349
:1008A0002FD49D032FD45D032FD41D032FD4DD023D
:1008B0002FD49D022FD48025ED031E002E402B4205
:1008C000A0D016269EE701269CE702269AE703267B
:1008D00098E7042696E7052694E7062692E707267A
:1008E00090E708268EE709268CE70A268AE70B267A
:1008F00088E70C2686E70D2684E70E2682E70F267A
:1009000080E710267EE711267CE712267AE7132679
:1009100078E7142676E7152674E7394A1168C0226D
:1009200012040A403748834204D0374883421FD01C
:1009300000204BE70802F8D480231B0413433049FE
:100940000A683248024013430B60314B1868314942
:10095000FFF7BEFB43001B189B000133019302E02D
:10096000019B013B0193019B002BF9D100202DE756
:1009700049023CD48023DB03134321490A682348FE
:10098000024013430B60002020E780231B069D429A
:1009900002D0194B9D4205D10B68826A5B025B0A4B
:1009A0009A4382620B68002B01DB00200EE7144A99
:1009B000126814498B4204D013498B420CD000209A
:1009C00004E78023DB031A400D490B680F480340FE
:1009D0001A430A600020F9E680231B041A400849E4
:1009E0000B680A4803401A430A600020EEE6002024
:1009F000ECE60220EDE6C0460400008000FFFF7F29
:100A000008270140000200A4000400A8FFFF3FFFE8
:100A100008000020400D030070B5002811DB83089A
:100A2000134DC0339B005C5903221040C000FC32C0
:100A300016008640B44389010A40824022435A513D
:100A400070BD0F230340083B9B0806339B00094AF7
:100A5000944663445C6803221040C000FC321500D9
:100A60008540AC4389010A40824022435A60E7E74F
:100A700000E100E000ED00E0013880235B049842D3
:100A80000FD2094A50600948036A1B021B0AC021A1
:100A900009060B43036200239360073313600020B1
:100AA00070470120FCE7C04610E000E000ED00E0E8
:100AB00010B5FFF7B1FF10BD002805DB1F22024073
:100AC00001239340014A13607047C04600E100E0F3
:100AD00010B5FFF7D1FF10BDF0B5846CC56C656033
:100AE000046D002C02D0446D856D65600B4F7C68F1
:100AF000056C1C262E400125B5402C437C60046803
:100B000063608368102B04D0036899600368DA601F
:100B1000F0BD03689A600368D960F9E700000240FD
:100B200010B504000368FF20184008381421FFF7AF
:100B3000CFFA236C9B08064A944663449B00636487
:100B4000044BA3641C2318401B3B8340E36410BD8B
:100B500000820010800802404268FF231340064ACA
:100B60009A1892000265054A4265013B03221A4029
:100B700001239340836570473F8200104009024083
:100B800070B5041E4DD00568274BE8181421FFF7F7
:100B90009FFA8000206425230222E2542B68234A16
:100BA00013402B6021680A68A368E068034320694A
:100BB000034360690343A0690343E0690343206A78
:100BC000034313430B602000FFF7AAFFA2688023B2
:100BD000DB019A4218D06168626CFF230B401360FE
:100BE000A36CE26C5A606368013B032B0FD90023AE
:100BF00023656365A3650023E36325220121A154D6
:100C0000013AA354002070BD00236360E3E7200095
:100C1000FFF7A2FF236D00221A60636DA26D5A6078
:100C2000E9E70120EFE7C046F8FFFDBF0F80FFFFB7
:100C300070B504002420205C012846D02420012522
:100C400025540130205C012807D024230022E254DF
:100C5000022024230022E25470BD243001352554A3
:100C60000020E063256828680126B0432860200042
:100C7000FFF732FF236B002B1CD0226813680E2174
:100C80000B431360626C1368DB0304D51168802387
:100C90005B000B431360236D002B04D01968802286
:100CA00052000A431A602268136801210B43136043
:100CB0000020CEE72268136804218B43136022686A
:100CC000136806310B431360DCE70220C4E7000021
:100CD00070B5314B196804682568026C1C231340F9
:100CE00004229A40114216D06A0714D523689B0645
:100CF00003D42368042293432360274C6368026C67
:100D00001C21114004228A4013436360036B002BB3
:100D100000D0984770BD02229A4011421CD0AA0709
:100D20001AD523689B0606D423680A2293432360BE
:100D30002523093AC254184C6368026C1C211140E7
:100D400002228A401343636024230022C254C36AF0
:100D5000002BDFD09847DDE708229A401142D9D016
:100D60002D07D7D523680E22934323600A4C62686F
:100D7000036C1C21194001231D008D402A43626031
:100D8000C3632522835423330022C254436B002BB8
:100D9000C0D09847BEE7C0460000024010B503002F
:100DA0002420185C012821D0242001241C54013067
:100DB0001C5CE0B2012C04D00120242200219954B3
:100DC00010BD02290FD006D8002909D00129F4D17D
:100DD0001A630020F1E70329EFD19A630020ECE7C2
:100DE000DA620800E9E75A630020E6E70220E7E755
:100DF000012907D0022908D0002909D14260826068
:100E00000800704742600020FBE782600020F8E79E
:100E10000120F6E7002802D0016000207047012081
:100E2000FCE7000070B506000268140C01252C4098
:100E30001F2313409D4064010A4BE3181A681542B2
:100E400004D01D604368002B00D09847064B9C4699
:100E5000644423681D4204D02560B368002B00D091
:100E6000984770BD0C18024010180240F0B5D646E5
:100E70004F464646C0B500233BE0052500E000256F
:100E8000A5402C003C43634D1832920054518022FF
:100E9000AF584A46D2433D004C46A5434C68E40354
:100EA00002D53D004C4625435A4C8027E551842508
:100EB00067593D0015404C68A40302D53D004C46DF
:100EC0002543544C8427E55127683D0015404C6864
:100ED000E40202D53D004C4625434E4C2560656832
:100EE0002A404C68A40201D54A462A43494C626014
:100EF00001330C682200DA4000D186E001229A40DA
:100F000026001640B1461442F2D04C68022C01D0A3
:100F1000122C18D1DD080835AD002C58A44607273F
:100F20001F40BF000F24A2462600BE40B0466646C2
:100F30004446A643B4460C69564626403400BC409D
:100F4000664634432C500468A4465D000324A24640
:100F50002700AF40B846FF4366464446A643B44622
:100F60004C68564626403400AC4066463443046024
:100F70004C68661E012E03D9112C01D0122C12D1FF
:100F800084683C40A446CC68AC40664634438460E8
:100F9000446894434A6812099446012266463240E6
:100FA0009A40224342604A68032A05D0C4683C4004
:100FB0008A68AA402243C2604A68D20098D59A083B
:100FC00014001834A400134D675903241C40E40096
:100FD0000F25A540AF43A025ED05A84200D14EE75F
:100FE0000D4DA8420BD00D4DA8420AD00C4DA84281
:100FF00009D00C4DA84200D13FE7062540E7012566
:101000003EE702253CE703253AE7E0BCBA46B14695
:10101000A846F0BD0018024000040050000800502F
:10102000000C005000140050002A01D0816170476C
:101030008162FCE7426913000B401B0491430B43A0
:10104000836170477047704710B50400094BDB6837
:10105000184204D1074B1B69234205D110BD054B33
:10106000D860FFF7EFFFF5E7024B1C612000FFF7A8
:10107000EAFFF3E70018024082B00A4B196C012224
:1010800011431964196C0A400092009ADA6B8021AE
:1010900049050A43DA63DB6B0B400193019B02B005
:1010A0007047C0460010024030B58FB004001422D3
:1010B000002109A800F01BFF1C22002102A800F05B
:1010C00016FF2268234B9A4201D00FB030BD202377
:1010D000029302A800F00CFB002835D11E4B1A6CBD
:1010E000802149030A431A641A6C0A400092009A4C
:1010F000596B0122114359635B6B1A400192019BAA
:1011000009A90223099301334B6000258D60A020BB
:10111000C005FFF7ABFE1148114B03600523436088
:101120008560C5607B330361803343618023DB00CE
:1011300083612023C3610562FFF722FD002806D1E9
:10114000064B23659C62C0E7FFF7DAF8C6E7FFF7B6
:10115000D7F8F5E7002401400010024018010020F4
:101160000800024010B588B004001422002103A832
:1011700000F0BDFE22681D4B9A4201D008B010BDA0
:101180001B4BDA6B802189020A43DA63DA6B0A406F
:101190000192019A596B0122114359635B6B134011
:1011A0000293029B03A90C2303930A3B4B600A6141
:1011B000A020C005FFF75AFE0E480F4B03603523F1
:1011C0004360253B83600023C3608022026143614A
:1011D0008361C3610362FFF7D3FC002803D1054B91
:1011E000E3679C62CAE7FFF78BF8F8E7004400402A
:1011F00000100240280000201C00024070B5041EB0
:1012000000D139E10368DB072CD5A14B9A6838235C
:101210001340082B22D043688022520293422ED0E2
:10122000A022D202934231D0994B1A6899490A40C0
:101230001A601A6898490A401A606368002B31D016
:10124000FFF772F90500924B1B689B030AD4FFF766
:101250006BF9401B6428F6D903200EE14368002B8C
:1012600000D10BE123689B0747D5894B9B68382247
:101270001A4261D1E368002B22D10120FDE0844AAB
:10128000116880235B020B431360D6E7804B19681B
:101290008022D2020A431A601968802252020A434D
:1012A0001A60CAE7FFF740F90500794B1B689B03FA
:1012B000D8D5FFF739F9401B6428F6D90320DCE0C4
:1012C000734B5A6875490A40616909020A435A60BA
:1012D0001A6873490A4021690A431A601B68DB0ACD
:1012E00007221A406F4BD3406F4A13606F4B186848
:1012F000FFF7D6F8002800D0C2E023681B0757D5B7
:10130000634B9A6838231340182B4ED0A369002BE7
:1013100077D05F4A136E01210B431366FFF704F980
:1013200005005B4B1B6E9B0742D4FFF7FDF8401B8B
:101330000228F6D90320A0E0E368002B22D0544A0B
:10134000136857490B4021690B43136011688023D0
:101350005B000B431360FFF7E7F805004C4B1B687D
:101360005B0506D4FFF7E0F8401B0228F6D90320FE
:1013700083E047494B68494A1340626912021343AC
:101380004B60BAE7424A136849490B401360FFF7C4
:10139000CBF805003E4B1B685B05AED5FFF7C4F8E4
:1013A000401B0228F6D9032067E0A369002B69D00F
:1013B00023685B0768D5364B9A6838231340202B87
:1013C00032D0A368012B34D0052B38D0304BDA6DE6
:1013D00001218A43DA65DA6D03318A43DA65A3684D
:1013E000002B38D0FFF7A0F80400294BDB6D9B07DA
:1013F0002FD4FFF799F8001B2E4B9842F5D9032004
:101400003BE0234A136E01218B431366FFF78CF8F0
:1014100005001F4B1B6E9B07CAD5FFF785F8401BC5
:101420000228F6D9032028E0A368002B2ED0002044
:1014300023E0174AD36D01210B43D365CFE7144B4B
:10144000DA6D04210A43DA65DA6D03390A43DA6595
:10145000C5E7002011E0FFF767F804000C4BDB6DD7
:101460009B0707D5FFF760F8001B124B9842F5D990
:10147000032002E0002000E0012070BD0120FCE715
:101480000120FAE70120F8E70020F6E70120F4E761
:1014900000100240FFFFFEFFFFFFFBFFFF80FFFF8A
:1014A000FFC7FFFF006CDC020800002004000020E2
:1014B000FFFEFFFF88130000144B9B6838221A427E
:1014C00007D1124B1A68D20A072313401048D8409C
:1014D00070470E4B9A6838231340082B10D00B4BE3
:1014E0009A6838231340202B0CD0084B9A68382375
:1014F0001340182B01D00020EAE7FA20C001E7E7EB
:101500000348E5E780200002E2E7C0460010024001
:10151000006CDC0270B504000D00002800D1A4E0CE
:10152000544B1A68072313408B4221D323689A0730
:1015300010D55B0707D550498A68504B1A40B02335
:101540001B0113438B604C4A93684D490B40E16883
:101550000B4393602368DB074CD56368012B1ED0D7
:10156000002B39D1444A126852051CD4012064E092
:10157000404A136807218B432B431360FEF7D4FFC7
:1015800006003C4B1A6807231340AB42CED0FEF74F
:10159000CBFF801B3B4A9042F3D903204DE0364AF3
:1015A0001268920363D534498A6807208243134343
:1015B0008B60FEF7B9FF06002F4B9B6838221A405C
:1015C0006368DB009A4215D0FEF7AEFF801B2D4BFF
:1015D0009842F1D9032030E0032B05D0264AD26D82
:1015E0009207E0D4012028E0234A126E9207DAD451
:1015F000012022E01F4B1A6807231340AB421DD87D
:1016000023685B0706D51C4A93681F490B40216974
:101610000B439360FFF750FF174B9A68120A0F2392
:1016200013401A4A9B009A581F231340D840184B66
:101630001860184B1868FEF733FF70BD0D4A136829
:1016400007218B432B431360FEF76EFF0600094B07
:101650001A6807231340AB42D2D0FEF765FF801B08
:10166000084B9842F3D90320E7E70120E5E7012082
:10167000E3E7C0460020024000100240FF84FFFF65
:10168000FFF0FFFF88130000FF8FFFFFB41F00086B
:10169000080000200400002010B5FFF70DFF074BE5
:1016A0009A68120A0F231340054A9B009A581F2379
:1016B0001340D840034B186010BDC04600100240D4
:1016C000B41F00080800002010B5FFF7E5FF064B27
:1016D0009A68120B07231340044A9B009A581F2351
:1016E0001340D84010BDC04600100240941F0008AF
:1016F00070B582B0040003685B0650D5424BDB6BCB
:10170000DB0035D4404BDA6B802149050A43DA63AC
:10171000DB6B0B400193019B01253B4BD96DC02234
:1017200092000B001340114235D0A2699A420DD0AD
:10173000354AD36D35490B40D06D802149020143B4
:10174000D165D16D32480140D165D365DB0711D435
:101750002D4AD36D2D490B40A1690B43D365002061
:10176000012D1DD1284AD36B2A490B40D36317E0C2
:101770000025D2E7FEF7D8FE0600234BDB6D9B0762
:1017800007D4FEF7D1FE801B234B9842F5D90320E6
:1017900002E0002000E000200028E1D1D8E700208E
:1017A0002368DB0706D5184A536D03218B43A168D4
:1017B0000B43536523689B0706D5134A536D17499E
:1017C0000B40E1680B43536523689B0606D50E4A20
:1017D000536D9B009B0861690B43536523685B074E
:1017E00006D5094A536D0E490B4021690B435365D9
:1017F00023681B0606D5044A1368E0218B43616801
:101800000B43136002B070BD00100240FFFCFFFFED
:10181000FFFFFEFFFFFFFFEF88130000FFCFFFFF7A
:10182000FF3FFFFF30B5EFF31084012282F31088F1
:1018300001680B68124D2B400B6084F31088EFF3A6
:10184000108182F31088026893680E4C23409360E5
:1018500081F31088C36E012B06D08C232022C25046
:101860000023C366436730BDEFF3108183F3108814
:10187000026813681024A343136081F31088ECE717
:10188000DFFEFFFFFEFFFFEF10B504008368026973
:10189000134342691343C269134301680A686248EB
:1018A000024013430B602268536860490B40E168B3
:1018B0000B435360A369226A1A4321688B685C4812
:1018C000034013438B602268D36A0F218B43616A04
:1018D0000B43D3622368574A934230D0564A93420F
:1018E0003ED01023E06980221202904242D0042BA5
:1018F00000D189E07BD8002B00D17FE0022B74D18E
:101900004E4B1B685B090721194001314C48FEF71B
:10191000DFFB626A4B4B5200D15AFEF7D9FB61687C
:101920004B08C018FEF7D4FB0200103A464B9A420F
:101930006FD823680004000CD86000206AE03F4B99
:101940005A6D03231340022B0CD005D8002B0BD06B
:10195000012B0BD10333C5E7032B09D10533C1E7B5
:101960000023BFE70223BDE70023BBE71023B9E74D
:101970001023B7E7042B35D02AD8002B2CD0022B0C
:1019800024D12E4B1B685B090721194001312C48DB
:10199000FEF79EFB626A2B4B5200D15AFEF798FB72
:1019A000400061684B08C018FEF792FB0200103A35
:1019B000254B9A422BD882B20F239A434008083B0A
:1019C000034013432268D360002023E0012021E07C
:1019D000082BDFD001201DE0FFF776FE0028D9D1CB
:1019E000002017E0FFF768FDF8E7012012E0082B60
:1019F00002D1802000028CE701200BE0FFF764FE9B
:101A0000002886D1002005E0FFF756FDF8E7012009
:101A100000E0012001236A22A352023AA3520023CC
:101A20006367A36710BDC046F369FFCFFFCFFFFF19
:101A3000FFF4FF1100380140004400400010024054
:101A4000006CDC02701F0008EFFF0000836A1B07B8
:101A500006D5026853682C490B40816B0B435360D9
:101A6000836ADB0706D50268536828490B40C16AC0
:101A70000B435360836A9B0706D502685368244969
:101A80000B40016B0B435360836A5B0706D502680A
:101A9000536820490B40416B0B435360836ADB065C
:101AA00006D5026893681C490B40C16B0B439360D9
:101AB000836A9B0606D50268936818490B40016C3F
:101AC0000B439360836A5B060BD502685368144925
:101AD0000B40416C0B435360426C80235B039A4282
:101AE0000AD0836A1B0606D5026853680D490B406D
:101AF000C16C0B4353607047026853680A490B403E
:101B0000816C0B435360ECE7FF7FFFFFFFFFFDFF9E
:101B1000FFFFFEFFFFFFFBFFFFEFFFFFFFDFFFFF0A
:101B2000FFFFEFFFFFFFF7FFFFFF9FFFF8B5CE4678
:101B3000474680B506000D0017009946089B984659
:101B40003368DC692C40641B63425C41BC4233D186
:101B500043460133F4D0FEF7E7FC4B46C01A40453C
:101B60002FD84346002B2ED0326813685B07E7D589
:101B7000802DE5D0402DE3D0D3691B0710D4D36965
:101B80001B05DDD580231B0113623000FFF74AFEE1
:101B900090232022F2500C3B0022F25403200CE050
:101BA000082414623000FFF73DFE9023F4500C3BF4
:101BB0000022F254012000E00020C0BCB946B0462B
:101BC000F8BD0320F9E70320F7E7000030B583B044
:101BD000040090230022C250FEF7A6FC05002368F3
:101BE0001B681B0710D423681B685B072BD42023BA
:101BF0008822A3500432A3500023E3662367083AE7
:101C0000A354002003B030BD8021234B0093030078
:101C1000002289032000FFF789FF0028E3D0EFF3BB
:101C20001081012383F31088226813688020834386
:101C3000136081F3108888232022E250043B0022A5
:101C4000E2547D38DEE78021134B00932B00002205
:101C5000C9032000FFF76AFF0028C8D0EFF3108007
:101C6000012282F3108821680B680C4D2B400B6019
:101C700080F31088EFF3108082F3108821688B685E
:101C800093438B6080F310888C231F32E250083B13
:101C90000022E2540320B5E7FFFFFF01DFFEFFFF54
:101CA00010B5041E30D08823C358002B22D08823BF
:101CB0002422E2502268136801218B431360A36A37
:101CC000002B1DD12000FFF7DFFD012811D0226875
:101CD00053680E490B405360226893682A218B4356
:101CE00093602268136829390B4313602000FFF7C3
:101CF0006DFF10BD84330022C254FFF733FAD6E7DC
:101D00002000FFF7A3FEDDE70120F2E7FFB7FFFFAA
:101D1000FEE7FEE77047704710B5FEF7F9FB10BD10
:101D200010B50120FFF790F910BD10B5002000F0AC
:101D30009BF810BD10B50248FEF7CAFF10BDC046A3
:101D40001801002010B50248FEF7C2FF10BDC046C2
:101D50002800002070B588B00400012832D800287F
:101D60001DD11A4A516B012319435163526B134021
:101D70000193019B164B6200D65A03A903960123D7
:101D80004B6000238B600333CB60124BA200D05812
:101D9000FFF76CF8012C0CD0002008B070BD0B4A86
:101DA000516B042319435163526B13400293029BFE
:101DB000E0E7084BA400E05801223100FFF734F9B6
:101DC0000020EAE702204042E7E7C0460010024058
:101DD000881F00088C1F000830B587B005001C4A1A
:101DE000506B042318435063526B13400093009BC5
:101DF00001AB8022920101920122039201320492EE
:101E0000002908D1190000234B601248FFF72EF873
:101E1000002007B030BD01A90F4B4B600D48FFF704
:101E200025F86C006419A4000C4BE4180C49200040
:101E3000FEF7F0FF0B4A00212000FEF7D9FF002239
:101E40000F210720FEF734FE0720FEF735FEDFE7FF
:101E5000001002400008005000002110DC010020AA
:101E60000D000006831E000810B5430018188000FE
:101E7000024BC018FEF7D6FF10BDC046DC010020A3
:101E8000704710B50020FFF7FBFF10BD024B80220A
:101E900012059A607047C04600ED00E00D48854687
:101EA000FFF7F4FF002103E00B4B5B584350043174
:101EB0000A480B4B42189A42F6D30A4A02E0002322
:101EC00013600432084B9A42F9D300F019F8FEF778
:101ED000A9FAFEE700300020FC1F000800000020E7
:101EE0000C0000200C000020E8010020FEE70300A9
:101EF0008218934200D1704719700133F9E700004E
:101F000070B500260C4C0D4D641BA410A64209D1DF
:101F1000002600F019F80A4C0A4D641BA410A642D2
:101F200005D170BDB300EB5898470136EEE7B3001A
:101F3000EB5898470136F2E7F41F0008F41F000839
:101F4000F81F0008F41F0008F8B5C046F8BC08BC2C
:101F50009E467047F8B5C046F8BC08BC9E46704720
:101F600048656C6C6F2C20776F726C64210D0A00D1
:101F7000010002000400060008000A000C00100026
:101F800020004000800000012000000200000050FE
:101F900000080050000000000000000000000000E9
:101FA000000000000100000002000000030000002B
:101FB000040000000000000000000000000000001D
:101FC0000000000000000000000000000000000011
:101FD00000000000010000000200000003000000FB
:101FE00004000000060000000700000008000000D8
:041FF00009000000E4
:041FF40011020008CE
:041FF800E9010008F3
:0C1FFC000100000004000000001BB70002
:0400000508001E9D34
:00000001FF
