:020000040800F2
:1000000000300020192500085D2300085F23000848
:1000100000000000000000000000000000000000E0
:100020000000000000000000000000006123000844
:1000300000000000000000006323000865230008A2
:1000400069250008000000006925000869250008EE
:100050006925000869250008692500086D23000846
:1000600000000000792300086925000869250008C0
:1000700069250008692500086925000800000000BE
:100080006925000800000000000000006925000844
:10009000000000006925000869250008692500089E
:1000A0000000000069250008000000006925000824
:1000B00069250008000000000000000000000000AA
:1000C0000023C25C0133002AFBD1581E7047000098
:1000D00003B47146490840004900095E49008E4456
:1000E00003BC7047002243088B4274D303098B4240
:1000F0005FD3030A8B4244D3030B8B4228D3030CF8
:100100008B420DD3FF22090212BA030C8B4202D399
:100110001212090265D0030B8B4219D300E0090AC1
:10012000C30B8B4201D3CB03C01A5241830B8B42CA
:1001300001D38B03C01A5241430B8B4201D34B03B3
:10014000C01A5241030B8B4201D30B03C01A524118
:10015000C30A8B4201D3CB02C01A5241830A8B429D
:1001600001D38B02C01A5241430A8B4201D34B0286
:10017000C01A5241030A8B4201D30B02C01A5241EA
:10018000CDD2C3098B4201D3CB01C01A524183099E
:100190008B4201D38B01C01A524143098B4201D3D8
:1001A0004B01C01A524103098B4201D30B01C01A03
:1001B0005241C3088B4201D3CB00C01A524183087D
:1001C0008B4201D38B00C01A524143088B4201D3AA
:1001D0004B00C01A5241411A00D20146524110460A
:1001E0007047FFE701B5002000F0F0F802BDC046FF
:1001F0000029F7D076E7704703460B437FD40022EF
:1002000043088B4274D303098B425FD3030A8B42AA
:1002100044D3030B8B4228D3030C8B420DD3FF2214
:10022000090212BA030C8B4202D31212090265D0E2
:10023000030B8B4219D300E0090AC30B8B4201D395
:10024000CB03C01A5241830B8B4201D38B03C01ADC
:100250005241430B8B4201D34B03C01A5241030B53
:100260008B4201D30B03C01A5241C30A8B4201D304
:10027000CB02C01A5241830A8B4201D38B02C01AAF
:100280005241430A8B4201D34B02C01A5241030A26
:100290008B4201D30B02C01A5241CDD2C3098B420B
:1002A00001D3CB01C01A524183098B4201D38B0188
:1002B000C01A524143098B4201D34B01C01A52412B
:1002C00003098B4201D30B01C01A5241C3088B4270
:1002D00001D3CB00C01A524183088B4201D38B005B
:1002E000C01A524143088B4201D34B00C01A5241FD
:1002F000411A00D201465241104670475DE0CA0FD4
:1003000000D04942031000D34042534000229C4693
:1003100003098B422DD3030A8B4212D3FC2289019D
:1003200012BA030A8B420CD3890192118B4208D373
:10033000890192118B4204D389013AD0921100E0D5
:100340008909C3098B4201D3CB01C01A52418309E9
:100350008B4201D38B01C01A524143098B4201D316
:100360004B01C01A524103098B4201D30B01C01A41
:100370005241C3088B4201D3CB00C01A52418308BB
:100380008B4201D38B00C01A5241D9D243088B4211
:1003900001D34B00C01A5241411A00D201466346B4
:1003A00052415B10104601D34042002B00D5494218
:1003B000704763465B1000D3404201B5002000F057
:1003C00005F802BD0029F8D016E770477047C0460F
:1003D00010B5064C2378002B07D1054B002B02D01B
:1003E000044800E000BF0123237010BD5C00002022
:1003F00000000000DC2E0008044B10B5002B03D0D9
:100400000349044800E000BF10BDC04600000000E2
:1004100060000020DC2E000810B588B003AC142268
:100420000021200002F0D6F8104B596B0422114332
:100430005963596B0A400092009A596B202211436C
:100440005963596B0A400192019A596B0122114379
:1004500059635B6B13400293029B03920592A020A9
:100460002100C00500F0E2FF08B010BD00100240FE
:1004700000B583B0094A916B012319439163926BD4
:1004800013400193019B00220021092000F01AFE75
:10049000092000F01BFE03B000BDC0460010024062
:1004A00010B5034B58430349FFF7A6FE80B210BDB9
:1004B00088130000FF0F000030B593B00268114BA5
:1004C0009A4201D013B030BD0F4B1C88A0200121EF
:1004D000C00501F089F805002000FFF7E1FF0300E7
:1004E0000A4A02AC00954021200002F03FF82000AB
:1004F000FFF7E6FD012382B205485B42210001F0CF
:100500000EFEDFE70024014078000020F42E0008F2
:10051000F800002010B582B072B6074B6A4603CBD4
:1005200003C26846FFF7CCFD012382B203485B4259
:10053000694601F0F4FDF0E7FC2E0008F800002009
:1005400000B585B00C22002101A802F043F818483C
:10055000184B03608023DB05436000238360C36086
:100560008022120602610422426103764376033A36
:100570008276C261436283622C214254036301325A
:1005800042633A328354C36400F0D6F800280BD19A
:1005900001A9094B019301234B60054800F040FA83
:1005A000002803D105B000BDFFF7B4FFFFF7B2FF8D
:1005B000E8010020002401400200000410B50C48AE
:1005C0000C4B0360E1235B02436000238360C36044
:1005D00003610C2242618361C361036243628362EF
:1005E00001F084FE002800D110BDFFF793FFC04644
:1005F000F80000200044004010B58CB005AC1C226F
:100600000021200001F0E6FF14220021684601F0DD
:10061000E1FF12490B6807229343063A13430B602C
:10062000059280235B020693200001F091F80028D8
:100630000FD1684607230093063B019300230293E2
:1006400003930493012101F00FFA002803D10CB0A9
:1006500010BDFFF75FFFFFF75DFFC04600200240BF
:1006600010B500F04BF8FFF7C7FFFFF7D5FEFFF717
:10067000FFFEFFF765FFFFF7A1FF084C200000F029
:1006800017FC002001F080FE0121002001F0BEFED9
:1006900003494022200000F067FBFEE7E80100204C
:1006A0007800002010B50400114B1978002901D101
:1006B000012010BDFA208000FFF714FD01000D4B52
:1006C0001868FFF70FFD00F00DFD00280DD1032C79
:1006D00001D90120EDE7013000222100404200F065
:1006E000F1FC054B1C600020E3E70120E1E7C04678
:1006F00000000020080000200400002010B50320A6
:10070000FFF7D0FF041E02D00124200010BD00F02E
:1007100079FFFAE7034B1B78034A11685B181360F3
:100720007047C046000000204C020020014B1868B2
:100730007047C0464C02002030B583B0040000234F
:100740000193002800D105E1836D002B12D02368AE
:100750009A68D2001BD499687F4A114080225205C2
:100760000A439A607D4B18687D49FFF7BBFC400047
:10077000019009E000F05EFF0023E3655422A354DA
:10078000E5E7019B013B0193019B002BF9D1236815
:100790009A68D20000D59DE0A26D10210A43A2659F
:1007A000E26D0F390A43E26501209A6804210D00C9
:1007B0001540114200D00125A26DD20600D5C2E03D
:1007C000002D00D0BFE0A26D66490A400631FF311E
:1007D0000A43A2659A68D20752D4A268217E89038F
:1007E0000A43617EC9030A43A57E69030A43216B5C
:1007F000002901D0802149010A43E1680A432169A7
:10080000002969DB802189030A432C21615C4900AE
:100810000A432021615C012961D0616A002905D069
:10082000E0256D002940A56A29430A43D9684E4D49
:1008300029400A43DA6063689B0F9B07E26C1A4306
:100840003C21615C012959D021680B69474D2B403F
:1008500013430B616368C0221206934210D08022BA
:10086000D20593420CD080221206934208D0404910
:100870000A68404D2A40F025AD032B4013430B601E
:100880002168636B4A690725AA4313434B612168BA
:10089000A26B4B696935AB43120113434B6123696A
:1008A000002B35D12268916A103B0B439362236879
:1008B0005A6907231340626B9A423BD0A36D122200
:1008C0009343023A1343A365E36D0F3A1343E36581
:1008D00001203DE0002068E74900490894E7002D29
:1008E00003D1802149020A4397E7A16D20252943BE
:1008F000A165E16D1F3D2943E1658EE7216C0B4346
:10090000616C0B43A16C0B43134301221A439BE719
:10091000802292039342CAD121688B6AE369013B2A
:100920009B001C221A4010235B429340226E13430B
:100930008B62BCE70023E365A36D03229343023A75
:100940001343A36504E0A36D10221343A3650120A4
:1009500003B030BD0120FBE7E8FFFF6F0800002077
:10096000400D0300FDFEFFFF0102DEFF02FCFF1F42
:1009700008270140FFFFC3FF704710B5806AFFF7EB
:10098000FBFF10BD704710B5806A836D4022134392
:100990008365C36D3C3A1343C365FFF7F3FF10BD96
:1009A00010B50300806A826D502111422AD1826DF8
:1009B00080239B00134383650368D968C02212011A
:1009C000114213D1827E002A10D11A6812070DD568
:1009D0009A6852070DD45A680C218A435A60836D75
:1009E0000E4A13400432FF3213438365FFF764FD60
:1009F00010BD836D202213438365C36D1F3A1343DB
:100A0000C365F3E7826DD20604D4026D526B180001
:100A10009047EDE7FFF7B6FFEAE7C046FEFEFFFFAF
:100A2000F0B583B004000023019305695433C35C1F
:100A3000012B00D121E154230122C25400688368B4
:100A4000033216001E401A4209D0A36D1C32134314
:100A5000A365012054230022E25403B0F0BD4B688B
:100A6000022B00D1D5E080221206954225D0844A7F
:100A7000954222D0226E1F271F400F25BD40AA435A
:100A80000B685D022FD19B0E1F261E40BE403243D5
:100A900022664D68AB080133E269934213D80E68B1
:100AA000826A1F231D40103B1F00AF40BA43B60EA1
:100AB0003340AB401343836205E00B68826A5B02FC
:100AC0005B0A1343836220680B688D6842691B02CE
:100AD0009A432B406B4D2B40134343610B68002B13
:100AE0005FDB0020B6E7DD07D0D49D072FD45D077C
:100AF0002FD41D072FD4DD062FD49D062FD45D06DD
:100B00002FD41D062FD4DD052FD49D052FD45D05D0
:100B10002FD41D052FD4DD042FD49D042FD45D04C4
:100B20002FD41D042FD4DD032FD49D032FD45D03B8
:100B30002FD41D032FD4DD022FD49D022FD4802566
:100B4000ED031E002E402B42A0D016269EE7012664
:100B50009CE702269AE7032698E7042696E70526EF
:100B600094E7062692E7072690E708268EE70926EF
:100B70008CE70A268AE70B2688E70C2686E70D26EF
:100B800084E70E2682E70F2680E710267EE71126EF
:100B90007CE712267AE7132678E7142676E71526EF
:100BA00074E7394A1168C02212040A403748834268
:100BB00004D0374883421FD000204BE70802F8D406
:100BC00080231B04134330490A6832480240134310
:100BD0000B60314B18683149FFF784FA43001B184A
:100BE0009B000133019302E0019B013B0193019BB8
:100BF000002BF9D100202DE749023CD48023DB03F0
:100C0000134321490A682348024013430B60002024
:100C100020E780231B069D4202D0194B9D4205D13F
:100C20000B68826A5B025B0A9A4382620B68002B44
:100C300001DB00200EE7144A126814498B4204D0ED
:100C400013498B420CD0002004E78023DB031A40B9
:100C50000D490B680F4803401A430A600020F9E66B
:100C600080231B041A4008490B680A4803401A43B2
:100C70000A600020EEE60020ECE60220EDE6C04629
:100C80000400008000FFFF7F08270140000200A44D
:100C9000000400A8FFFF3FFF08000020400D0300F4
:100CA00030B583B004000023019303689A68D2072B
:100CB0004DD49968274A114217D19A6826490A40AB
:100CC00001210A439A60254B1B681B0217D5244B50
:100CD00018682449FFF706FA01300190019B002BA8
:100CE0000DD0019B013B0193F8E7836D1022134364
:100CF0008365C36D0F3A1343C365012028E0637E0B
:100D0000012B01D1002023E0FFF710FD050004E0D6
:100D1000FFF70CFD401B02280DD823681A68D20784
:100D200013D49A68D207F3D49A680B490A40012178
:100D30000A439A60ECE7A36D10221343A365E36DA9
:100D40000F3A1343E365012002E0002000E0002099
:100D500003B030BD17000080E8FFFF7F0827014087
:100D600008000020400D030070B504000D001600BF
:100D7000026893685B0747D45423C35C012B45D0BA
:100D8000012354214354D1680B420DD19368DB07F2
:100D900005D593681E490B4002210B4393602268DE
:100DA000D36801210B43D3602000FFF779FF0028AF
:100DB0002BD1A26D174B1A4080235B001343A36510
:100DC0000023E365226D1449D162226D134911633A
:100DD000226D1349516322681C2111605422A354CF
:100DE000226853680C390B43536021684031206DF1
:100DF00033002A0000F026FA2268936804490B4069
:100E000004210B43936000E0022070BD0220FCE748
:100E1000E8FFFF7FFEF0FFFFA10900087B09000843
:100E20008709000870B5040003689A680221080069
:100E30001040114200D001209A68D20731D5002815
:100E400031D1996805220A40012A09D0A36D1022E8
:100E50001343A365E36D0F3A1343E365012021E0DB
:100E60009A6812490A4002210A439A6023680322C1
:100E70001A60FFF75BFC050023689B68DB070ED553
:100E8000FFF754FC401B0228F6D9A36D1022134330
:100E9000A365E36D0F3A1343E365012002E00020F0
:100EA00000E0002070BD0020FCE7C046E8FFFF7FA7
:100EB000F0B583B00400002301935433C35C012BCD
:100EC00000D1A6E001265423C654FFF7ABFF05006E
:100ED00023689A6831001140164209D0A36D102290
:100EE0001343A36554230022E254280003B0F0BD4D
:100EF000A26D494802400630FF300243A265DE6819
:100F0000464A1640DA6846480240DA60080006E0C1
:100F1000B4229A587F2313400133C01801310729A6
:100F20001DD82768BA683F4B1A4018331343BB607B
:100F300023689A68002AEBDA019B01330193019A36
:100F4000AE239B029A42F3D3A36D12229343023A3B
:100F50001343A36554230022E2540125C5E74B083F
:100F60001818FFF7BFF8226893682E490B4001213B
:100F70000B439360226811698023DB05994217D2E5
:100F8000294B1B68F02189030B40E02149038B4268
:100F90000ED39B0C033B012199400091009B5B0801
:100FA000009302E0009B013B0093009B002BF9D1D2
:100FB000B42153587F27BB4318435050226893688D
:100FC00018490B4002210B439360FFF7AFFB07006A
:100FD00023689A68D20709D4DA683243DA60A36DCD
:100FE00003229343023A1343A3657BE7FFF79EFB7B
:100FF000C01B0228ECD923689B68DB07E8D5A36DEA
:1010000010221343A365E36D0F3A1343E3650125F3
:101010006BE7022569E7C046FDFEFFFF0380000085
:10102000FC7FFFFFE8FFFF7F0827014070B5002825
:1010300011DB8308134DC0339B005C590322104021
:10104000C000FC3216008640B44389010A40824049
:1010500022435A5170BD0F230340083B9B080633BF
:101060009B00094A944663445C6803221040C00018
:10107000FC3215008540AC4389010A40824022437E
:101080005A60E7E700E100E000ED00E0013880236E
:101090005B0498420FD2094A50600948036A1B0258
:1010A0001B0AC02109060B43036200239360073328
:1010B0001360002070470120FCE7C04610E000E00C
:1010C00000ED00E010B5FFF7B1FF10BD002805DB13
:1010D0001F22024001239340014A13607047C0461B
:1010E00000E100E010B5FFF7D1FF10BDF0B5846C52
:1010F000C56C6560046D002C02D0446D856D656023
:101100000B4F7C68056C1C262E400125B5402C43F6
:101110007C60046863608368102B04D00368996066
:101120000368DA60F0BD03689A600368D960F9E784
:101130000000024010B504000368FF201840083882
:101140001421FEF7CFFF236C9B08064A94466344A4
:101150009B006364044BA3641C2318401B3B834027
:10116000E36410BD00820010800802404268FF2343
:101170001340064A9A1892000265054A4265013BEF
:1011800003221A4001239340836570473F82001079
:101190004009024070B5041E4DD00568274BE81881
:1011A0001421FEF79FFF8000206425230222E254D1
:1011B0002B68234A13402B6021680A68A368E06803
:1011C00003432069034360690343A0690343E06963
:1011D0000343206A034313430B602000FFF7AAFF79
:1011E000A2688023DB019A4218D06168626CFF23F9
:1011F0000B401360A36CE26C5A606368013B032BE5
:101200000FD9002323656365A3650023E3632522CB
:101210000121A154013AA354002070BD0023636052
:10122000E3E72000FFF7A2FF236D00221A60636D41
:10123000A26D5A60E9E70120EFE7C046F8FFFDBF65
:101240000F80FFFF70B504002420205C012846D0E9
:101250002420012525540130205C012807D02423B7
:101260000022E254022024230022E25470BD2430E4
:10127000013525540020E063256828680126B04325
:1012800028602000FFF732FF236B002B1CD0226860
:1012900013680E210B431360626C1368DB0304D5E3
:1012A000116880235B000B431360236D002B04D077
:1012B0001968802252000A431A60226813680121CB
:1012C0000B4313600020CEE72268136804218B4390
:1012D00013602268136806310B431360DCE70220B9
:1012E000C4E7000070B5314B196804682568026CCA
:1012F0001C23134004229A40114216D06A0714D5C9
:1013000023689B0603D42368042293432360274C5D
:101310006368026C1C21114004228A4013436360FD
:10132000036B002B00D0984770BD02229A401142F7
:101330001CD0AA071AD523689B0606D423680A2264
:10134000934323602523093AC254184C6368026C06
:101350001C21114002228A4013436360242300228F
:10136000C254C36A002BDFD09847DDE708229A40B9
:101370001142D9D02D07D7D523680E22934323607D
:101380000A4C6268036C1C21194001231D008D402A
:101390002A436260C3632522835423330022C2544C
:1013A000436B002BC0D09847BEE7C0460000024008
:1013B000012907D0022908D0002909D142608260A2
:1013C0000800704742600020FBE782600020F8E7D9
:1013D0000120F6E7002802D00160002070470120BC
:1013E000FCE7000070B506000268140C01252C40D3
:1013F0001F2313409D4064010A4BE3181A681542ED
:1014000004D01D604368002B00D09847064B9C46D3
:10141000644423681D4204D02560B368002B00D0CB
:10142000984770BD0C18024010180240F0B5D6461F
:101430004F464646C0B500233BE0052500E00025A9
:10144000A5402C003C43634D183292005451802239
:10145000AF584A46D2433D004C46A5434C68E4038E
:1014600002D53D004C4625435A4C8027E551842542
:1014700067593D0015404C68A40302D53D004C4619
:101480002543544C8427E55127683D0015404C689E
:10149000E40202D53D004C4625434E4C256065686C
:1014A0002A404C68A40201D54A462A43494C62604E
:1014B00001330C682200DA4000D186E001229A4014
:1014C00026001640B1461442F2D04C68022C01D0DE
:1014D000122C18D1DD080835AD002C58A44607277A
:1014E0001F40BF000F24A2462600BE40B0466646FD
:1014F0004446A643B4460C69564626403400BC40D8
:10150000664634432C500468A4465D000324A2467A
:101510002700AF40B846FF4366464446A643B4465C
:101520004C68564626403400AC406646344304605E
:101530004C68661E012E03D9112C01D0122C12D139
:1015400084683C40A446CC68AC4066463443846022
:10155000446894434A681209944601226646324020
:101560009A40224342604A68032A05D0C4683C403E
:101570008A68AA402243C2604A68D20098D59A0875
:1015800014001834A400134D675903241C40E400D0
:101590000F25A540AF43A025ED05A84200D14EE799
:1015A0000D4DA8420BD00D4DA8420AD00C4DA842BB
:1015B00009D00C4DA84200D13FE7062540E70125A0
:1015C0003EE702253CE703253AE7E0BCBA46B146D0
:1015D000A846F0BD0018024000040050000800506A
:1015E000000C00500014005003690B4201D0012090
:1015F00070470020FCE7002A01D0816170478162BA
:10160000FCE7000082B00A4B196C012211431964F7
:10161000196C0A400092009ADA6B802149050A434E
:10162000DA63DB6B0B400193019B02B07047C0464D
:101630000010024030B58FB004001422002109A828
:1016400000F0C8FF1C22002102A800F0C3FF22689E
:10165000234B9A4201D00FB030BD2023029302A841
:1016600000F0F0FA002835D11E4B1A6C8021490396
:101670000A431A641A6C0A400092009A596B0122BC
:10168000114359635B6B1A400192019B09A9022324
:10169000099301334B6000258D60A020C005FFF742
:1016A000C5FE1148114B0360052343608560C5608A
:1016B0007B330361803343618023DB00836120231C
:1016C000C3610562FFF766FD002806D1064B23655E
:1016D0009C62C0E7FEF71EFFC6E7FEF71BFFF5E7BB
:1016E00000240140001002408C010020080002404C
:1016F00010B588B004001422002103A800F06AFF8E
:101700002268114B9A4201D008B010BD0F4BDA6B22
:10171000802189020A43DA63DA6B0A400192019A56
:10172000596B0122114359635B6B13400293029B77
:1017300003A90C2303930A3B4B600A61A020C00558
:10174000FFF774FEE0E7C04600440040001002408E
:1017500070B5041E00D139E10368DB072CD5A14B1D
:101760009A6838231340082B22D043688022520203
:1017700093422ED0A022D202934231D0994B1A68C4
:1017800099490A401A601A6898490A401A606368C1
:10179000002B31D0FEF7CAFF0500924B1B689B035C
:1017A0000AD4FEF7C3FF401B6428F6D903200EE1DC
:1017B0004368002B00D10BE123689B0747D5894B79
:1017C0009B6838221A4261D1E368002B22D10120A4
:1017D000FDE0844A116880235B020B431360D6E767
:1017E000804B19688022D2020A431A60196880224D
:1017F00052020A431A60CAE7FEF798FF0500794BC8
:101800001B689B03D8D5FEF791FF401B6428F6D9CF
:101810000320DCE0734B5A6875490A40616909028C
:101820000A435A601A6873490A4021690A431A60D8
:101830001B68DB0A07221A406F4BD3406F4A1360C4
:101840006F4B1868FEF72EFF002800D0C2E0236817
:101850001B0757D5634B9A6838231340182B4ED07B
:10186000A369002B77D05F4A136E01210B431366E7
:10187000FEF75CFF05005B4B1B6E9B0742D4FEF737
:1018800055FF401B0228F6D90320A0E0E368002B97
:1018900022D0544A136857490B4021690B43136007
:1018A000116880235B000B431360FEF73FFF0500C8
:1018B0004C4B1B685B0506D4FEF738FF401B022823
:1018C000F6D9032083E047494B68494A13406269CF
:1018D000120213434B60BAE7424A136849490B406E
:1018E0001360FEF723FF05003E4B1B685B05AED57A
:1018F000FEF71CFF401B0228F6D9032067E0A3690E
:10190000002B69D023685B0768D5364B9A6838236B
:101910001340202B32D0A368012B34D0052B38D0B4
:10192000304BDA6D01218A43DA65DA6D03318A437F
:10193000DA65A368002B38D0FEF7F8FE0400294BC7
:10194000DB6D9B072FD4FEF7F1FE001B2E4B984258
:10195000F5D903203BE0234A136E01218B43136624
:10196000FEF7E4FE05001F4B1B6E9B07CAD5FEF772
:10197000DDFE401B0228F6D9032028E0A368002BD7
:101980002ED0002023E0174AD36D01210B43D365ED
:10199000CFE7144BDA6D04210A43DA65DA6D0339B7
:1019A0000A43DA65C5E7002011E0FEF7BFFE040038
:1019B0000C4BDB6D9B0707D5FEF7B8FE001B124BE7
:1019C0009842F5D9032002E0002000E0012070BD1C
:1019D0000120FCE70120FAE70120F8E70020F6E704
:1019E0000120F4E700100240FFFFFEFFFFFFFBFFB6
:1019F000FF80FFFFFFC7FFFF006CDC020800002034
:101A000004000020FFFEFFFF88130000144B9B68BA
:101A100038221A4207D1124B1A68D20A0723134000
:101A20001048D84070470E4B9A6838231340082B53
:101A300010D00B4B9A6838231340202B0CD0084B46
:101A40009A6838231340182B01D00020EAE7FA20C7
:101A5000C001E7E70348E5E780200002E2E7C0466F
:101A600000100240006CDC0270B504000D0000287C
:101A700000D1A4E0544B1A68072313408B4221D3B2
:101A800023689A0710D55B0707D550498A68504BE1
:101A90001A40B0231B0113438B604C4A93684D4995
:101AA0000B40E1680B4393602368DB074CD5636808
:101AB000012B1ED0002B39D1444A126852051CD488
:101AC000012064E0404A136807218B432B431360D5
:101AD000FEF72CFE06003C4B1A6807231340AB426E
:101AE000CED0FEF723FE801B3B4A9042F3D9032061
:101AF0004DE0364A1268920363D534498A6807205C
:101B0000824313438B60FEF711FE06002F4B9B6848
:101B100038221A406368DB009A4215D0FEF706FEB1
:101B2000801B2D4B9842F1D9032030E0032B05D0C8
:101B3000264AD26D9207E0D4012028E0234A126E93
:101B40009207DAD4012022E01F4B1A6807231340C2
:101B5000AB421DD823685B0706D51C4A93681F4912
:101B60000B4021690B439360FFF750FF174B9A68B6
:101B7000120A0F2313401A4A9B009A581F2313403E
:101B8000D840184B1860184B1868FEF78BFD70BDD5
:101B90000D4A136807218B432B431360FEF7C6FDE4
:101BA0000600094B1A6807231340AB42D2D0FEF758
:101BB000BDFD801B084B9842F3D90320E7E70120C5
:101BC000E5E70120E3E7C0460020024000100240A4
:101BD000FF84FFFFFFF0FFFF88130000FF8FFFFF70
:101BE000482F0008080000200400002010B5FFF76F
:101BF0000DFF074B9A68120A0F231340054A9B00FA
:101C00009A581F231340D840034B186010BDC0469C
:101C100000100240482F00080800002010B5FFF710
:101C2000E5FF064B9A68120B07231340044A9B00FA
:101C30009A581F231340D84010BDC04600100240E0
:101C4000282F000870B582B0040003685B0650D5E9
:101C5000424BDB6BDB0035D4404BDA6B802149050E
:101C60000A43DA63DB6B0B400193019B01253B4B7D
:101C7000D96DC02292000B001340114235D0A269E9
:101C80009A420DD0354AD36D35490B40D06D802135
:101C900049020143D165D16D32480140D165D36518
:101CA000DB0711D42D4AD36D2D490B40A1690B439D
:101CB000D3650020012D1DD1284AD36B2A490B4042
:101CC000D36317E00025D2E7FEF730FD0600234B73
:101CD000DB6D9B0707D4FEF729FD801B234B984241
:101CE000F5D9032002E0002000E000200028E1D127
:101CF000D8E700202368DB0706D5184A536D032177
:101D00008B43A1680B43536523689B0706D5134A91
:101D1000536D17490B40E1680B43536523689B06DD
:101D200006D50E4A536D9B009B0861690B435365B2
:101D300023685B0706D5094A536D0E490B4021699C
:101D40000B43536523681B0606D5044A1368E0213C
:101D50008B4361680B43136002B070BD00100240FA
:101D6000FFFCFFFFFFFFFEFFFFFFFFEF88130000F8
:101D7000FFCFFFFFFF3FFFFF30B5EFF310840122DD
:101D800082F3108801680B68124D2B400B6084F3BE
:101D90001088EFF3108182F31088026893680E4C6C
:101DA0002340936081F31088C36E012B06D08C23EF
:101DB0002022C2500023C366436730BDEFF3108179
:101DC00083F31088026813681024A343136081F31F
:101DD0001088ECE7DFFEFFFFFEFFFFEF10B5040009
:101DE00083680269134342691343C269134301685C
:101DF0000A686248024013430B60226853686049D6
:101E00000B40E1680B435360A369226A1A432168BF
:101E10008B685C48034013438B602268D36A0F21B0
:101E20008B43616A0B43D3622368574A934230D095
:101E3000564A93423ED01023E0698022120290421B
:101E400042D0042B00D189E07BD8002B00D17FE069
:101E5000022B74D14E4B1B685B09072119400131DD
:101E60004C48FEF73FF9626A4B4B5200D15AFEF7DD
:101E700039F961684B08C018FEF734F90200103ACE
:101E8000464B9A426FD823680004000CD8600020AB
:101E90006AE03F4B5A6D03231340022B0CD005D848
:101EA000002B0BD0012B0BD10333C5E7032B09D13A
:101EB0000533C1E70023BFE70223BDE70023BBE7EB
:101EC0001023B9E71023B7E7042B35D02AD8002B0D
:101ED0002CD0022B24D12E4B1B685B090721194003
:101EE00001312C48FEF7FEF8626A2B4B5200D15AA2
:101EF000FEF7F8F8400061684B08C018FEF7F2F8EA
:101F00000200103A254B9A422BD882B20F239A43F3
:101F10004008083B034013432268D360002023E0BD
:101F2000012021E0082BDFD001201DE0FFF776FE25
:101F30000028D9D1002017E0FFF768FDF8E701205D
:101F400012E0082B02D1802000028CE701200BE078
:101F5000FFF764FE002886D1002005E0FFF756FD5C
:101F6000F8E7012000E0012001236A22A352023A8F
:101F7000A35200236367A36710BDC046F369FFCF78
:101F8000FFCFFFFFFFF4FF11003801400044004085
:101F900000100240006CDC02042F0008EFFF00007C
:101FA000836A1B0706D5026853682C490B40816B76
:101FB0000B435360836ADB0706D5026853682849E0
:101FC0000B40C16A0B435360836A9B0706D50268C6
:101FD000536824490B40016B0B435360836A5B07D2
:101FE00006D50268536820490B40416B0B43536090
:101FF000836ADB0606D5026893681C490B40C16BF7
:102000000B439360836A9B0606D502689368184960
:102010000B40016C0B439360836A5B060BD502682F
:10202000536814490B40416C0B435360426C80234E
:102030005B039A420AD0836A1B0606D5026853687E
:102040000D490B40C16C0B435360704702685368E5
:102050000A490B40816C0B435360ECE7FF7FFFFFA5
:10206000FFFFFDFFFFFFFEFFFFFFFBFFFFEFFFFF97
:10207000FFDFFFFFFFFFEFFFFFFFF7FFFFFF9FFF08
:10208000F8B5CE46474680B506000D0017009946C4
:10209000089B98463368DC692C40641B63425C41B2
:1020A000BC4233D143460133F4D0FEF73FFB4B46ED
:1020B000C01A40452FD84346002B2ED032681368F3
:1020C0005B07E7D5802DE5D0402DE3D0D3691B0712
:1020D00010D4D3691B05DDD580231B0113623000AA
:1020E000FFF74AFE90232022F2500C3B0022F254CC
:1020F00003200CE0082414623000FFF73DFE90231B
:10210000F4500C3B0022F254012000E00020C0BC3F
:10211000B946B046F8BD0320F9E70320F7E7F0B56C
:10212000C64600B582B004000D0090461E0088230C
:10213000C358202B65D1002968D0002A68D0826856
:1021400080235B019A4204D10369002B01D1CB07A4
:1021500060D490230022E250083B2132E250FEF787
:10216000E5FA070054234246E2520233E252A268E3
:1021700080235B019A4202D00023984618E023692D
:10218000002B29D00023984612E088232022E25019
:10219000032037E043461B882268DB05DB0D936292
:1021A00002239C46E0445623E25A013A92B2E2529C
:1021B0005623E35A002B12D000963B0000228021C8
:1021C0002000FFF75DFF0028DFD1002DE2D02A7844
:1021D00023689A620135E6E7A8460025E8E70096FD
:1021E0003B00002240212000FFF74AFF002803D1D6
:1021F00088232022E25005E088232022E250032099
:1022000000E0022002B080BCB846F0BD0120F9E732
:102210000120F7E70120F5E730B583B004009023F3
:102220000022C250FEF782FA050023681B681B07D4
:1022300010D423681B685B072BD420238822A3506B
:102240000432A3500023E3662367083AA354002016
:1022500003B030BD8021234B00930300002289038B
:102260002000FFF70DFF0028E3D0EFF310810123DA
:1022700083F310882268136880208343136081F3FE
:10228000108888232022E250043B0022E2547D384B
:10229000DEE78021134B00932B000022C9032000AE
:1022A000FFF7EEFE0028C8D0EFF31080012282F382
:1022B000108821680B680C4D2B400B6080F3108850
:1022C000EFF3108082F3108821688B6893438B6052
:1022D00080F310888C231F32E250083B0022E25426
:1022E0000320B5E7FFFFFF01DFFEFFFF10B5041E6F
:1022F00030D08823C358002B22D088232422E250D8
:102300002268136801218B431360A36A002B1DD13F
:102310002000FFF763FD012811D0226853680E49A1
:102320000B405360226893682A218B439360226894
:10233000136829390B4313602000FFF76DFF10BDB0
:1023400084330022C254FFF7D3F9D6E72000FFF709
:1023500027FEDDE70120F2E7FFB7FFFFFEE7FEE71C
:102360007047704710B5FEF7D5F910BD10B50020C5
:1023700000F094F810BD000010B50248FEF7B2FF5F
:1023800010BDC0468C01002070B588B00400012843
:1023900032D800281DD11A4A516B012319435163C9
:1023A000526B13400193019B164B6200D65A03A94E
:1023B000039601234B6000238B600333CB60124BE9
:1023C000A200D058FFF732F8012C0CD0002008B042
:1023D00070BD0B4A516B042319435163526B134078
:1023E0000293029BE0E7084BA400E0580122310071
:1023F000FFF701F90020EAE702204042E7E7C04684
:10240000001002401C2F0008202F000830B587B0B4
:1024100005001C4A506B042318435063526B134051
:102420000093009B01AB8022920101920122039252
:1024300001320492002908D1190000234B60124890
:10244000FEF7F4FF002007B030BD01A90F4B4B6031
:102450000D48FEF7EBFF6C006419A4000C4BE41868
:102460000C492000FEF7B6FF0B4A00212000FEF7C2
:102470009FFF00220F210720FEF724FE0720FEF712
:1024800025FEDFE700100240000800500000211088
:10249000500200200D000006B724000810B54300CC
:1024A00018188000024BC018FEF79CFF10BDC046F4
:1024B00050020020704710B50020FFF7FBFF10BD51
:1024C00010B503000C4A0D49521A0D49096800293C
:1024D00007D00B490868C318934206D8084A13600E
:1024E00010BD074907480860F3E700F07BF80C23AC
:1024F000036001204042F3E70030002000040000A8
:102500005C020020A8030020024B802212059A6082
:102510007047C04600ED00E00D488546FFF7F4FF28
:10252000002103E00B4B5B58435004310A480B4B2E
:1025300042189A42F6D30A4A02E00023136004329A
:10254000084B9A42F9D300F053F8FEF789F8FEE7FA
:1025500000300020C42F0008000000205C00002094
:102560005C000020A8030020FEE700000CB430B59A
:10257000174B0C001D689DB0002908DA8B23012041
:102580002B6040421DB030BC08BC02B0184782230B
:1025900002A99B008B81002302904B6608619C423C
:1025A00000D0631E8B604B6101235B42CB8128000E
:1025B00021AB209A019300F0A5F8431C01DA8B238C
:1025C0002B60002CDED00022029B1A70DAE7C04696
:1025D0000C00002003008218934200D1704719704C
:1025E0000133F9E7014B18687047C0460C00002022
:1025F00070B500260C4C0D4D641BA410A64209D1E9
:10260000002600F06BFC0A4C0A4D641BA410A64285
:1026100005D170BDB300EB5898470136EEE7B30023
:10262000EB5898470136F2E7BC2F0008BC2F000892
:10263000C02F0008BC2F000870477047F0B58E68A7
:1026400085B01F000C00330002900392BE4254D8A4
:102650000C22885E9022D20010422CD003220969FD
:1026600023685B1A019363695343019ADD0FED18E8
:102670007B1C6D109B182A00AB4201D91D001A006B
:10268000400527D51100029800F062F9061E2AD0F5
:10269000019A216900F0C7FBA289194B1A408023D7
:1026A0001343A381019B2661F618266065613E00F5
:1026B000ED1A3B00A5601F003A000399206800F066
:1026C00083FB0020A3689B1BA3602368DB192360A6
:1026D00005B0F0BD029800F047FB061EE2D121696B
:1026E000029800F0A9FB0C230120029A40421360DB
:1026F000A28934331343A381EAE73E00DCE7C046F6
:102700007FFBFFFFF0B59FB002901C008B890E008D
:1027100015001B0611D50B69002B0ED1402100F0CE
:1027200017F930603061002805D10C23029A13603C
:1027300001204042D4E0402373610023292102AAF2
:1027400052180B9320331370013102AA1033521820
:10275000137005942C002378002B01D0252B48D131
:10276000671BAC420BD03B002A0031000298FFF7F8
:1027700065FF013000D1AEE00B9BDB190B93237892
:10278000002B00D1A7E001225321002352420792DF
:1027900002AA5218651C06930993089313701C93A0
:1027A000554F29780522380000F032FB6C1C069941
:1027B00006AB00281FD1CA0604D55327202202A841
:1027C000C01902700A0704D553272B2202A8C0198A
:1027D00002702A782A2A15D02C0000200A27DA68ED
:1027E0002178651C3039092950D9002811D0099267
:1027F0000FE00134AFE70123C01B83400B432500EA
:102800000693CDE7059A101D12680590002A37DB64
:10281000DA6022782E2A0CD162782A2A3BD1059AD6
:102820000234111D12680591002A01DA0122524278
:102830005A60324D03222800217800F0E9FA06AFF1
:10284000002806D04023401B8340069A01341343DE
:102850000693217806222A48651C397600F0D8FABA
:1028600000283FD0274B002B29D10722059B073397
:102870009343083305930B9B03995B180B9369E70C
:102880005242DA6002220A430692C2E77A432C00DF
:1028900001205218A4E700220A205A6011001300F8
:1028A00001342278651C303A092A03D9002BC0D0A4
:1028B0000791BEE741432C0001238918F1E705AADF
:1028C000009239003200104B029800E000BF0390E4
:1028D000039B0133CFD1B3890B985B0600D527E763
:1028E0001FB0F0BD05AA009239003200064B0298D5
:1028F00000F01EF9EBE7C046882F00088E2F000875
:10290000922F0008000000003D26000870B50F4E11
:102910000D0031680400002902D100F067FA306030
:102920002900200000F062FA431C03D101256D420A
:10293000280070BD0323C51C9D43A842F8D0291A66
:10294000200000F053FA0130F2D1EFE79C030020A1
:10295000F7B50322CB1C9343083305001F000C2B53
:1029600034D20C27B94233D8280000F0EDF9374EA5
:1029700033681C00002C2FD139002800FFF7C6FF58
:102980000400431C5FD134680094009B002B4AD1A3
:10299000002C52D023682800E3180099019300F01E
:1029A00025FA019B834248D123682800FF1A390089
:1029B000FFF7ACFF013040D02368DB192360336898
:1029C0005A68002A33D1009B336019E0002BC9DA22
:1029D0000C232B600020FEBD2168C91B20D40B29CD
:1029E0000AD9E2192760A34204D1326063681160FA
:1029F000536005E05A60F9E76268A3420ED1326085
:102A0000280000F0A9F9200007220B30231D904375
:102A1000C21A9842DFD01B1AA350DCE75A60EFE7D6
:102A200023006468A6E7009C63680093ADE71A0082
:102A30005B68A342FBD10023DAE70C2328002B605C
:102A400000F08AF9C6E70760DAE7C046A003002075
:102A5000F7B5160001938A680B690C000090934249
:102A600000DA13002200336043321278002A01D0CA
:102A70000133336023689B0602D533680233336029
:102A80002268062315001D401A4227D02300433335
:102A90001B785A1E93412268920630D42200019975
:102AA0000098089D4332A847013025D006222368AC
:102AB00000251340042B05D13368E568ED1AEB437C
:102AC000DB171D40A3682269934201DD9B1AED18B4
:102AD0000026B54220D1002010E00135E3683268BD
:102AE0009B1AAB42D2DD2200012301990098089F76
:102AF0001932B8470130F0D101204042FEBD3020EC
:102B0000E1184331087021005A1C45310978A21898
:102B1000433202331170C1E722000123019900986A
:102B2000089F1A32B8470130E6D00136D1E70000DD
:102B3000F0B58BB006920A004332079305900392DA
:102B40000A7E0C00109B782A09D8622A0BD8002A2A
:102B500000D1BAE07A490491582A00D18EE02500CC
:102B600042352A7022E0100063381528F7D8FDF7A7
:102B7000AFFA16001F00F6FFF6FFF6FFF6FF1F0084
:102B8000F6FFF6FFF6FFF6FF9F0036007E00F6FF29
:102B9000F6FFB000F6FF3600F6FFF6FF82002500D4
:102BA0001A684235111D196013682B7001239EE0CD
:102BB00018680968021D0D060BD506681A60002EFC
:102BC00003DA2D23039A764213705D4B0A27049390
:102BD00018E006681A604906F1D536B2EFE70868D2
:102BE000196840C9050602D4400600D5B6B219607E
:102BF000534B0A2704936F2A00D1023F230000227F
:102C000043331A706368A360002B06DB042122683B
:102C1000039D8A43226033430CD0039D300039006A
:102C2000FDF7E6FA049B013D5B5C2B703300060068
:102C30009F42F3D9082F09D12368DB0706D56268C4
:102C400023699A4202DC3023013D2B70039B5B1BFE
:102C50002361079B210000930598069B09AAFFF7B3
:102C6000F7FE013048D1012040420BB0F0BD2022D8
:102C700009680A43226078223249049121004531D3
:102C80000A701968226840C9100602D4500600D59F
:102C9000B6B21960D30702D5202313432360002E58
:102CA00001D01027AAE72022236893432360F8E786
:102CB0001A680D68101D4969186013682E0601D541
:102CC000196002E06D06FBD519800023039D236186
:102CD000BFE71A68111D1960156800212800626895
:102CE00000F096F8002801D0401B60606368236103
:102CF0000023039A1370ACE72A002369069905980C
:102D0000079DA8470130AED023689B0715D4099BC7
:102D1000E0689842A9DA1800A7E722000123069983
:102D20000598079E1932B04701309CD00135E36801
:102D3000099A9B1AAB42F0DCE9E70025F7E7C046A9
:102D4000992F0008AA2F000810B50248FFF774FC5D
:102D500010BDC0469803002010B50248FFF76DFC77
:102D600010BDC04698030020F7B506000C00150002
:102D7000002905D11100FFF7EBFD04002000FEBD86
:102D8000002A03D100F058F82C00F7E700F09EF875
:102D90000700854202D84308AB42EFD32900300038
:102DA000FFF7D6FD0190002801D1019CE6E72A003B
:102DB000BD4200D93A002100019800F034F821000A
:102DC000300000F039F8F0E710B5884202D98B18CE
:102DD000984208D300239A4207D0CC5CC4540133F4
:102DE000F9E78B5C8354013AFBD210BD002370B528
:102DF000064D040008002B60FFF762FB431C03D163
:102E00002B68002B00D0236070BDC046A4030020B7
:102E1000C9B28218904201D10020704703788B42DA
:102E2000FBD00130F6E7002310B59A4200D110BD67
:102E3000CC5CC4540133F8E770B505000C1E10D00B
:102E4000043C2368002B00DAE4182800FFF77CFF1D
:102E50001D4A1368002B05D1636014602800FFF73A
:102E60007BFF70BDA34208D9206821188B42F3D1A3
:102E700019685B6809182160EEE71A005B68002B8F
:102E800001D0A342F9D911685018A0420BD1206893
:102E90000918501811608342E0D118685B68411826
:102EA00011605360DAE7A04202D90C232B60D5E70A
:102EB000206821188B4203D119685B6809182160CA
:102EC00063605460CAE7C046A00300200B1F1B6864
:102ED000181F002B01DA0B58C0187047F8B5C04610
:102EE000F8BC08BC9E467047F8B5C046F8BC08BCA4
:042EF0009E46704743
:102EF40025752C25750D0A005B4552524F525D0015
:102F0400010002000400060008000A000C00100082
:102F1400200040008000000120000002000000505A
:102F24000008005000000000000000000000000045
:102F34000000000001000000020000000300000087
:102F44000400000000000000000000000000000079
:102F5400000000000000000000000000000000006D
:102F64000000000001000000020000000300000057
:102F74000400000006000000070000000800000034
:102F840009000000232D302B2000686C4C0065667E
:102F940067454647003031323334353637383941A6
:102FA40042434445460030313233343536373839BC
:082FB4006162636465660000C0
:042FBC00F90300080D
:042FC000D103000831
:102FC4000100000004000000001BB70010000020F6
:102FD4000000000060020020C8020020300300202E
:102FE40000000000000000000000000000000000DD
:102FF40000000000000000000000000000000000CD
:1030040000000000000000000000000000000000BC
:0C301400000000000000000000000000B0
:0400000508002519B1
:00000001FF
